:020000040800F2
:10000000109E00207D02000825320008A52C000863
:10001000F9310008E50A000841400008000000002E
:10002000000000000000000000000000C101000806
:10003000B90F000800000000150200081138000880
:10004000970200089702000897020008970200082C
:10005000970200089702000897020008970200081C
:10006000970200089702000897020008970200080C
:10007000010F000897020008970200089702000885
:100080000D0F0008190F000897020008F50A000874
:10009000E90A000897020008970200089702000882
:1000A00097020008970200089702000897020008CC
:1000B000970200080D39000897020008970200080F
:1000C00097020008970200089702000897020008AC
:1000D0009702000897020008E53F00082940000841
:1000E000970200089702000897020008970200088C
:1000F000970200089702000897020008970200087C
:10010000970200089702000897020008970200086B
:100110009702000897020008453900089702000876
:1001200097020008250F0008310F00089702000809
:100130009702000897020008970200080D0B0008BC
:10014000010B0008970200089702000897020008B8
:10015000970200089702000897020008354000083F
:10016000970200089702000897020008970200080B
:10017000970200089702000897020008000000009C
:100180009702000897020008AD3B0008970200089C
:1001900097020008970200089702000897020008DB
:1001A000000000000000000097020008DFF80CD0FB
:1001B00000F0FCFB00480047CD630008109E0020C3
:1001C0002B4B19680868B0E8F04F80F30988BFF33B
:1001D0006F8F4FF0000080F311887047000000001F
:1001E00006480068006880F3088862B661B6BFF30D
:1001F0004F8FBFF36F8F00DF00BF00BF08ED00E03F
:10020000DFF80C00016841F470010160704700BF25
:1002100088ED00E0EFF30980BFF36F8F144B1A688D
:100220001EF0100F08BF20ED108A20E9F04F10607B
:1002300008B44FF0500080F31188BFF34F8FBFF325
:100240006F8F06F07DFF4FF0000080F3118808BC2F
:1002500019680868B0E8F04F1EF0100F08BFB0EC46
:10026000108A80F30988BFF36F8F704700BF00BF0B
:1002700008000020EFF30580704700000648804723
:1002800006480047FEE7FEE7FEE7FEE7FEE7FEE77B
:10029000FEE7FEE7FEE7FEE7B9380008AD0100081B
:1002A00040EA01039B0703D009E008C9121F08C0F8
:1002B000042AFAD203E011F8013B00F8013B521E78
:1002C000F9D27047D2B201E000F8012B491EFBD2EF
:1002D00070470022F6E710B513460A460446194651
:1002E000FFF7F0FF204610BD2DE9FE4F804681EA62
:1002F0000300C00F0C46009021F0004123F00045A0
:10030000B8EB0200A94105D24046214690461C4662
:100310000B46024623F00040104347D0270DC7F399
:100320000A00C3F30A510290401A019040286BDA88
:10033000C3F3130040F4801B0098924620B10023C1
:10034000D2EB030A63EB0B0B01985946C0F1400254
:10035000504600F0A2F906460D4650465946019A0D
:1003600000F0AAF910EB08006141002487EA11525D
:1003700084EAE7731A4340D0009A62B3019A012AD3
:100380004FEA075215DC001B61EB02014FF00042FF
:1003900002EA0752CDE90042001C41F580113246C5
:1003A0002B4600F0E1F903B0BDE8F08F404621464E
:1003B000F9E7001B61EB0201001C41F580130018F6
:1003C0005B412018A2F5001747EB030140EAD57006
:1003D000B6196D4111E06D084FEA360645EAC07561
:1003E0004FEA0752001B61EB0201001C41F580112E
:1003F00049084FEA30000019514132462B4603B0FC
:10040000BDE8F04F00F0A1B90098012240000023A0
:10041000D0EB020263EBE073009821464FEAE074F0
:10042000B8EB000061EB0401E9E783F000435BE710
:1004300081F0004158E72DE9FE4F81EA030404F002
:10044000004421F0004100944FF0000B23F00043E2
:1004500050EA01045ED052EA03045BD0C3F30A54AD
:10046000C1F30A552C44A4F2F3340194A0FB0254C6
:10047000C1F3130141F48011C3F3130343F4801358
:1004800001FB024400FB034E840A970A44EA8154AC
:1004900047EA8357A4FB076802958D0A05FB078589
:1004A0004FEA932C04FB0C542705029D4FEA065893
:1004B00047EA1637B5EB08056EEB070C870E920E70
:1004C00047EA811742EA8312A7FB0201B6EB0B0150
:1004D00064EB00042B0D43EA0C335E1844EB1C5014
:1004E000DA465146E7FB0201C5F313044FEA0B332A
:1004F00043EA14534FEA0432019C43EA0603A4F191
:100500000C040294009CCDE900B400F02DF903B076
:10051000BDE8F08F00200146F9E72DE9F04D81EAB2
:10052000030404F0004B21F0004514464FF0000A8C
:1005300023F0004150EA050220D054EA01021DD008
:10054000C5F30A570246C5F31303C1F31300C1F301
:100550000A5640F4801543F48013A7EB0608101BDD
:10056000D64608F2FD3873EB050002D308F1010806
:1005700001E092185B41B8F1000F03DA0020014658
:10058000BDE8F08D00204FF48011064684460EE051
:10059000171B73EB050705D3121B63EB050306431B
:1005A0004CEA010C49084FEA300092185B4150EACE
:1005B0000107EDD152EA030012D082EA040083EA77
:1005C0000501084305D0101BAB4106D201220023D0
:1005D00006E000224FF0004302E06FF001025310EA
:1005E0001AEB06004CEB085110EB0A0041EB0B0133
:1005F000BDE8F04D00F0A9B80EB540F233420292CA
:100600000022CDE90022134600F0AEF803B000BD91
:1006100000F0004230F000400AD0C10D01F56071D9
:10062000C0F3160042EA0151C20840071143704767
:1006300000200146704701F0004330B421F0004132
:1006400050EA010206D00A0DA2F56072C1F313014F
:10065000002A02DC30BC00207047440F44EAC10489
:10066000C100E01830BC00EBC25000F037B830B524
:100670000B46014600202022012409E021FA02F560
:100680009D4205D303FA02F5491B04FA02F52844FA
:10069000151EA2F10102F1DC30BD202A04DB203A54
:1006A00000FA02F1002070479140C2F1200320FAC5
:1006B00003F3194390407047202A06DBCB17203AFA
:1006C00041FA02F043EAE07306E041FA02F3D04057
:1006D000C2F1200291400843194670470029A8BF83
:1006E0007047401C490008BF20F00100704710B45B
:1006F000B0FA80FC00FA0CF050EA010404BF10BC10
:10070000704749B1CCF1200421FA04F411FA0CF13C
:1007100018BF012121430843A3EB0C01CB1D4FEA75
:1007200000614FEA102042BF002010BC704700EB70
:10073000C35010440029A4BF10BC7047401C49009E
:1007400008BF20F0010010BC704710B5141E73F1F3
:10075000000408DA401C41F1000192185B411A4381
:1007600001D120F0010010BD2DE9F04D92469B46CD
:1007700011B1B1FA81F202E0B0FA80F22032904673
:10078000FFF78BFF04460F4640EA0A0041EA0B01DF
:1007900053465A46084313D0114653EA010019D074
:1007A000C8F14002504600F013F905460E46504687
:1007B00059464246FFF771FF084305D0012004E087
:1007C00020463946BDE8F08D0020054346EAE07634
:1007D0002C4337430A986305E40AA0EB0800002283
:1007E000FD0A44EA47540A3002D500200146E9E7F1
:1007F000010510196941DDE9084500196941BDE8A5
:10080000F04DA2E770B521F0004303430CD0C1F3D3
:100810000A550024D5EB040564EB0403D617AD1A82
:10082000B34102DB0020014670BD201841EB0251AC
:1008300070BD2DE9F04D00231A461B1A8A4103DBD7
:1008400000200146BDE8F08DC1F30A52C1F3130147
:1008500041F480154FF0000BD10702D100186D4113
:10086000521E0027044640F2FF11384601EB620A8F
:100870003E468046024600204FF4801100F0A8F862
:10088000C2197141BB1846EB0100B4EB030C75EBC8
:10089000000C04D3E41A65EB000517460E46241934
:1008A00008F101006D4180463428E3DDF91946EB7B
:1008B0000600091BA84103D24FF0FF32134601E0A6
:1008C000002213461BEB070046EB0A51BDE8F04D32
:1008D000FFF73BBF2DE9FE4FC3F30A5701F0004578
:1008E0000024C1F30A56C3F31303C1F3130143F405
:1008F000801312EB020AA64641F48011009543EBE7
:10090000030CA7F1010B16E0B0EB0A0061EB0C0140
:10091000071E71F1000707DA4FF00008D0EB08005E
:1009200085F0004568EB0101171A73EB0107EBD363
:10093000761E001849415E45F6DA50EA010209D0F8
:10094000CDE900E5002213460296FFF70DFF03B044
:10095000BDE8F08F20460099F9E70EB5C10F80EA97
:10096000E0700844CA07002140F233438DE80E00CE
:100970000A460B46FFF7F8FE03B000BD30B5041E73
:1009800071F1000404DB4FF00044404264EB0101CC
:10099000141E73F1000405DB1C464FF00043524265
:1009A00063EB0403994208BF904230BD064C074DEB
:1009B00006E0E06840F0010394E80700984710342F
:1009C000AC42F6D3FFF7F6FB007B0008207B000863
:1009D000202A04DB203A21FA02F00021704721FA94
:1009E00002F3D040C2F120029140084319467047FB
:1009F0000EB540F2334102910021CDE900110A46C3
:100A00000B46FFF7B1FE03B000BD70B5C1F30A524B
:100A100001F000450024C1F3130140F2FF3341F41B
:100A200080119A4201DA002070BD40F233439A42AD
:100A3000A2F2334203DC5242FFF7CAFF00E09040CB
:100A40002C43F1D0404270BD70B58C1810F8015B9A
:100A500015F0070301D110F8013B2A1106D110F857
:100A6000012B03E010F8016B01F8016B5B1EF9D15B
:100A70002B0705D40023521E0DD401F8013BFAE7E1
:100A800010F8013BCB1A921C03E013F8015B01F84C
:100A9000015B521EF9D5A142D8D3002070BD0000E1
:100AA00070B588B020220E496846FFF7F9FB082090
:100AB00000246D4600EBD0760DE000BF35F8340021
:100AC000C82180B205F0D2FA05EBC400406880006E
:100AD00006F01AFA641CB4EB660FEFDB08B070BDC9
:100AE00028760008FEE70000014800F0DFBA0000A9
:100AF000888F0020014800F0D9BA0000888F0020BC
:100B0000014800F0D3BA0000C88F0020014800F06F
:100B1000CDBA0000C88F002010B54FF4D87203681A
:100B200002EB01129B5813F00404436B9C600468B1
:100B3000436BA45854D0E4085C6003689A58436B34
:100B400002F00202DA604FF4DA72036802EB01127B
:100B50009B58446B03F00F03236103689A58436B5F
:100B6000C2F30722DA614FF4DC72036802EB011270
:100B70009B58446B237503689B58446B1B0A637531
:100B800003689B58446B1B0CA37503689A58436B0E
:100B9000120EDA754FF4DE72036802EB01129B58F5
:100BA000446B237603689B58446B1B0A6376036887
:100BB0009B58446B1B0CA37603689A58436B120E28
:100BC000DA762022002901680DD00A6101684A699D
:100BD00022F010024A6190F83810222909D021E051
:100BE000640D1C60A9E7CA6001684A6922F002022C
:100BF000F0E701684A6922F480724A6101684A6933
:100C000022F400724A6101684A6922F480624A61F2
:100C100001684A6922F400624A6101684A6922F463
:100C200000424A6190F83810322907D05FF0010184
:100C300080F8381000F052FC002010BD1221F7E7B8
:100C400010B501684A6922F001024A6190F8381033
:100C5000122918D101684A6922F480724A61016838
:100C60004A6922F400724A6101684A6922F480628A
:100C70004A6101684A6922F400624A6101684A696E
:100C800022F400424A6190F83810322906D001213E
:100C900080F8381000F024FD002010BD2221F7E775
:100CA00070B5734C2DED0E8BF0EE408A2069FFF786
:100CB000AFFC41EC100B9FED6FABB0EE4A1AF0EEBB
:100CC0006A1A03F0C9FDB0EE402AF0EE602AB0EED9
:100CD000429AF0EE629AE068FFF79AFC41EC100B42
:100CE000B0EE4A1AF0EE6A1A03F0B6FD53EC192B77
:100CF00051EC100BFFF7F8FA41EC100B04F038FC44
:100D000051EC100BFFF797FC08EE100A5B4918EE48
:100D1000100A08445A49884203D35A48006806F02A
:100D2000ADF9D4ED030A80EE880A10EE100AFFF741
:100D30006FFC41EC100B03F05BFB9FED53DB51ECC0
:100D4000100B53EC1D2BFFF776FB9FED51CB53ECB3
:100D50001C2BFFF7E2FBFFF76EFCB3EE040A05461F
:100D600028EE000A10EE100AFFF752FCB0EE4AEA35
:100D7000F0EE6AEA41EC190BB0EE4E1AF0EE6E1A84
:100D80009FED450B03F068FDB0EE40BAF0EE60BA9F
:100D9000B0EE4E1AF0EE6E1A9FED410B03F05CFDC3
:100DA000B0EE40AAF0EE60AA18EE100AFFF730FC91
:100DB00041EC100BB0EE4E1AF0EE6E1A03F04CFD43
:100DC000B0EE401AF0EE601A53EC1A2B51EC110BF6
:100DD000FFF78AFA53EC1B2BFFF727FB53EC192B79
:100DE000FFF79BFB41EC100B03F056F953EC1D2B66
:100DF00051EC100BFFF71FFB53EC1C2BFFF78DFB87
:100E000041EC190B2846FFF703FC53EC192BFFF7B5
:100E10000FFBFFF710FC08EE100A2846FFF7F8FB5F
:100E200053EC192BFFF760FAFFF705FC00EE100AF0
:100E300018EE900ADFED1C0AB0F17E5F0FD018EEBD
:100E4000900A10F1814F07D138EE601A30EE600A37
:100E500084ED051A84ED060ABDEC0E8B70BD38EEEC
:100E6000601A30EE600A84ED061A84ED050AF3E795
:100E70009400002000000000000000403333E3BE77
:100E80009A99D10080000020000000000080664098
:100E900000000060FB210940000000000000344019
:100EA00000000000000024400000B44210B5002003
:100EB00002F01CFB012002F019FB022002F016FBDD
:100EC000BDE81040032002F011BB70B52DED028B80
:100ED00082B00DF1200CB0EE418A9CE87000CDE9A3
:100EE000004502F0C1FBB0EE480AFFF7D9FE02B0A0
:100EF0003046BDEC028BBDE8704002F0F7BA00004E
:100F0000014800F001BC0000D48C0020014800F032
:100F1000FBBB0000348D0020014800F0F5BB000051
:100F2000948E0020014800F0EFBB0000948D00205B
:100F3000014800F0E9BB0000348E0020016818234E
:100F4000CAB2103AB2FBF3F2054B6FF30901032A60
:100F50009B5CC36500D9091D816508467047000088
:100F60001076000810B5014600208B698A6A4FF0A0
:100F7000C07453B1B3F5005F15D072B1012A0CD023
:100F8000022A0AD0032A09D104E01AB1012A06D0A4
:100F9000022A03D1C96AC90100D5012010BDC96A5E
:100FA000A142FAD010BD002AF7D0012AF2D0022ABD
:100FB000F3D0032AF3D010BD704701F075FEFCE7B3
:100FC000FEE70000F0B50A7D01209040344A136826
:100FD00043F001031360136823F47C531360136818
:100FE0004C6A43EA042313602D4B1C331C68844372
:100FF0001C602B4D2B4CCE690C35A6B92E68864350
:101000002E608F894E6867F31F464F6904EBC70750
:10101000C7F840660F890E6867F31F464F6904EBF7
:10102000C707C7F84466CE69012E14D12E6806435F
:101030002E600E884D6866F31F454E6904EBC606A8
:10104000C6F840560E89CD6866F31F454E6904EB1D
:10105000C604C4F84456124C8D69241D002D256821
:1010600006D0054325600E4C0D69143415B104E01B
:101070008543F7E72568854325600D69012D02D179
:10108000256805432560096A012902D119680143D1
:101090001960106820F0010010600020F0BD000011
:1010A00000660040006000407047000010B5044634
:1010B00000684169C943C90714D1826858499143FE
:1010C00068D000218368574A9A4365D0002283681C
:1010D0005548984362D000201143014302D0204676
:1010E000FFF7AEFD2068C168406911F0030FC0F33F
:1010F000400004D018B100212046FFF70DFD216803
:101100000869496910F0030FC1F3001104D019B147
:1011100001212046FFF700FD20688169426911F036
:10112000010FC2F300234269C2F3C03205D023B1DC
:101130001AB1E16B41F00101E1638169C1F3400340
:1011400041694269C1F34021C2F3C0322BB121B1E0
:101150001AB1E16B41F00201E16381694269C1F3B7
:101160008001C2F380234269C2F3C03229B123B1A6
:101170001AB1E16B41F00401E163816911F0700F74
:101180000ED0002142694369C2F3C022C3F3C033C9
:1011900041B127E0012195E7012298E701209BE773
:1011A0000121EFE7F2B1EBB1816901F07001402953
:1011B00029D006DC102909D020290BD030290DD1E7
:1011C0001DE0502923D0602908D124E0E16B41F0D3
:1011D000080102E0E16B41F01001E163816921F057
:1011E00070018161E06B002808D02168042048600C
:1011F000012084F838002046FFF756FF10BDE16B50
:1012000041F02001E9E7E16B41F04001E5E7E16BE6
:1012100041F08001E1E7E16B41F48071DDE700001E
:101220000300000400030008000003102DE9F04152
:10123000040004D094F83800002518B107E001201C
:10124000BDE8F08184F83950204600F093F8022080
:1012500084F838002068016821F0020101602068EC
:10126000016841F00101016000F076FC07460326A9
:1012700005E000BF00F070FCC01B0A2863D820689E
:101280004068C007F6D020684168C90768D0A169E6
:10129000012901683FD021F080010160E069012847
:1012A000206801683AD021F040010160206A0128DD
:1012B0002068016835D021F020010160606A0128B2
:1012C0002068016830D021F010010160A06A012877
:1012D000206801682BD021F008010160E06A012834
:1012E0002068016826D021F004010160D4E90201E0
:1012F0000843D4E90412114308436168491E0843B6
:101300002168C8612068016821F00101016000F0D6
:1013100023FC07461CE041F08001BEE741F040019C
:10132000C3E741F02001C8E741F01001CDE741F0EB
:101330000801D2E741F00401D7E700BF00F00CFC40
:10134000C01B0A2804D904F8386F0320657077E7BA
:1013500020684068C007F1D120684068C00703D00A
:10136000042084F838006AE7E563012084F8380037
:10137000002065E7F0B5324B0768DFF8C0C0186899
:101380000322022409252F490026401C87B0674507
:1013900021D11860012807D1086840F0007008606A
:1013A000086800F0007005908DE85400CDE9032531
:1013B0006946254800F0E4FA00220521132000F0D8
:1013C00065FC132000F056FC00220521142000F0DB
:1013D0005DFC14202EE0DFF874C067452CD10F6847
:1013E00047F080670F600F68012807F08067059756
:1013F000186007D1086840F000700860086800F0C5
:10140000007005904FF440508DE85100CDE9032560
:1014100069460F4800F0B4FA002211463F2000F060
:1014200035FC3F2000F026FC00221146402000F051
:101430002DFC402000F01EFC07B0F0BD0064004011
:101440007800002040380240000C02400068004054
:101450000004024010B590F83820012A01D0122A69
:1014600039D190F83920012A35D0012280F839206D
:1014700090F83820122A29D05FF0220280F8382014
:101480000022C26303685C6944F480745C61036891
:101490005C6944F400745C6103685C6944F48064D2
:1014A0005C6103685C6944F400645C6103685C69C6
:1014B00044F400445C6180F83920006800294169E7
:1014C00006D041F010014161002010BD3222D5E765
:1014D00041F00201F7E7022010BD000010B50446FC
:1014E000406B0068A0F20120072818D81249C0B24A
:1014F000087000EB400101EBC001104800EB8100D7
:10150000816A4A1C32298262214602D804F002FF15
:1015100001E004F0D5FE2146094804F0D1FE094857
:101520000068416941F00201416107480068416972
:1015300041F00201416110BD1503002028970020F1
:1015400008990020888F0020C88F00202DE9F05FC7
:101550000E46016804468868400105D48868000189
:1015600002D48868C00067D594F8390001280ED0ED
:10157000012784F8397094F8380022280AD0122004
:1015800084F838008868400106D500250AE002206A
:10159000BDE8F09F3220F3E78868000101D50125FE
:1015A00000E002254FF4C07000EB05100A5802F06D
:1015B00001020A50216B8A68EAB3D4F800C05CF8D3
:1015C00000301343CA68496842EAC1010B434CF832
:1015D0000030216B0A7C02F00F020A614FF4C271E5
:1015E000226801EB0511535823F00F035350226872
:1015F0005358D4F830C0DCF810C043EA0C03535001
:10160000216B4FF4C47303EB05130A7DD1F8151059
:1016100042EA01212268D150216B4FF4C67303EBDB
:1016200005130A7ED1F8191042EA01212268D1502F
:1016300021680A5801E00DE046E042F001020A503C
:1016400000F08AFA81464FF00008DFF888A0DFF842
:1016500088B019E022681358D1F80CC0098843EA11
:101660000C0343EA41511150B3E7701C0CD02EB16A
:1016700000F072FAA0EB0900B04205D9032084F80B
:10168000380084F8398083E795B12068012D81689E
:1016900013D0124888430028E7D194F83800322844
:1016A0000ED084F8387000BF84F8398000206FE7CE
:1016B000206881682AEA0100EDE72BEA0100EAE7E9
:1016C000222084F83800EFE7042084F83800012055
:1016D0005EE70000030000040003000800000310A0
:1016E000704790F83510022903D080214165012010
:1016F0007047052180F835100068016821F001016C
:1017000001600020704700002DE9F84304464FF0C7
:101710000008CDF8008064484FF41651A56D0068AC
:10172000B0FBF1F72E6894F85C10082000FA01F184
:1017300031420FD021680A6852070BD50A6822F09F
:1017400004020A6094F85C108840A860606D40F064
:101750000100606594F85C1054488840304208D01D
:1017600021684969090604D5A860606D40F002004F
:1017700060654E4894F85C10C01C8840304208D028
:1017800021680968890704D5A860606D40F00400ED
:10179000606594F85C1010208840304218D02168B1
:1017A0000968090714D5A86020680168490304D5B1
:1017B0000068000308D5A16C07E00168C90503D4DF
:1017C000016821F008010160216C09B120468847B9
:1017D00094F85C102020884030424FF0010631D050
:1017E00021680968C9062DD5A86094F83500052838
:1017F0002068016806D0490347D5006800031DD45E
:10180000616C1CE021F0160101602068416921F043
:1018100080014161206C08B9A06C20B1206801688A
:1018200021F00801016094F85C103F208840A86016
:1018300084F8348084F83560216D1FE0E16B09B1D4
:1018400020468847606D00282BD0606DC00714D0FB
:10185000052084F835002068016821F0010101604D
:101860000098401C0090B84203D820680068C00768
:10187000F6D184F8348084F83560E16C002910D00A
:1018800001B02046BDE8F04308470168C905D5D43A
:10189000016821F01001016084F8348084F835601B
:1018A000CCE7BDE8F88300000400002001008000C0
:1018B0002DE9F041044600F04FF906465CB10025E1
:1018C00084F83450022084F835002068016821F043
:1018D000010101600DE00120BDE8F08100F03CF95C
:1018E000801B052805D920206065032084F8350079
:1018F000F2E720680068C007F0D1226811681F482D
:101900000140D4E901031843D4E9033633431843B3
:1019100063691843A3691843E3691843236A1843AA
:101920000843616A042903D1D4E90B13194308431E
:10193000106020684069666A20F0070130460E4357
:10194000012704280AD1A06A06432046FFF70AFBB4
:1019500020B14020606584F83570BCE7206846619E
:101960002046FFF7EBFA94F85C203F21914081601C
:10197000656584F835700020AEE700003F8010F008
:101980002DE9F84FDFF890B100224FF001084FF039
:10199000030A4FF00F090BF1040E00BF0B6808FAA1
:1019A00002F42340A3426ED14D68022D01D0122DC6
:1019B0000ED1D50800EB850CDCF820505607F70E49
:1019C00009FA07F6B5430E69BE402E43CCF82060F5
:1019D000066855000F790AFA05FC07F0030726EAA6
:1019E0000C06AF40374307604E68012E05D0022E2B
:1019F00003D0112E01D0122E0ED18768CE6827EAAF
:101A00000C07AE403E4386604668A6430C79C4F39B
:101A10000014944034434460C4688E6824EA0C0483
:101A2000AE402643C6604C68E4006FD53B4C256849
:101A300045F480452560246822F0030504F48044C1
:101A40000094374C2E19D6F8084895072F0F09FA3D
:101A500007F5AC43334DA84201D100252EE0324DAD
:101A6000A84201D1012529E0304DA84201D102252B
:101A700024E02F4DA84201D103251FE02D4DA8429F
:101A800002D104251AE041E02B4DA84201D10525E1
:101A900014E02A4DA84201D106250FE0284DA842A6
:101AA00001D107250AE0274DA84201D1082505E00C
:101AB000254DA84201D1092500E00A25BD40254356
:101AC000C6F80858DBF800405D464E689C43F603B4
:101AD00000D51C432C60DEF8004075464E689C43E0
:101AE000B60300D51C432C600B4D08352C684E689E
:101AF0009C43F60200D51C432C60074D0C352C6826
:101B00004E689C43B60200D51C432C60521C102A20
:101B1000FFF444AFBDE8F88F003C01404438024078
:101B20000030014000000240000402400008024072
:101B3000000C024000100240001402400018024055
:101B4000001C024000200240002402400AB18161D2
:101B500070470904FBE70000014800687047000077
:101B60000000002002480168491C01607047000025
:101B7000000000200B4810B5016841F400710160BD
:101B8000016841F480610160016841F48071016085
:101B9000032000F09BF8002000F006F800F03EF86B
:101BA000002010BD003C024010B5014688B0002264
:101BB000362000F06BF8362000F05CF81348002463
:101BC000016841F010010160006805A900F01000F3
:101BD0000690684600F090F900F0B4F90C49400016
:101BE000B0FBF1F10C480B4A491E026040F2E732AB
:101BF000C0E90324C0E9011400F008FC10B1012081
:101C000008B010BD044800F03BFCF9E74038024042
:101C100040420F0000100040F48E002010B5032059
:101C200000F054F8002211466FF00B0000F02EF87F
:101C3000002211466FF00A0000F028F80022114639
:101C40006FF0090000F022F800221146501F00F04A
:101C50001DF800221146101F00F018F800220F2175
:101C6000901E00F013F800220F21BDE81040501E16
:101C700000F00CB800F01F020121914040098000E3
:101C800000F1E020C0F8001170470000F0B40E4BE6
:101C90001B680C46C3F30223C3F10705042D00D9CA
:101CA0000425191D072901D2002300E0DB1E0126AF
:101CB00006FA05F1491E214099409E40761E1640C5
:101CC0003143F0BC01F0AFBA0CED00E0064900F082
:101CD000070208684FF6FF03184040EA0220034A53
:101CE00010430860704700000CED00E00000FA05AA
:101CF0002DE9F8431E48016841F0805101600068F9
:101D0000012600F080500090300490FAA0F0194FA6
:101D1000B0FA80F047F82060FFF71EFF05464FF449
:101D20007A78154C05E000BFFFF716FF401B4045D1
:101D300015D86068C003F7D54FF4003090FAA0F0D2
:101D4000B0FA80F047F82060FFF706FF05464646E8
:101D500008E000BFFFF700FF401BB04202D903209C
:101D6000BDE8F88360688003F4D50020F8E7000040
:101D70004038024000000E42007000402DE9F0475C
:101D8000DFF8649105460F46D9F8000000F00F0116
:101D9000F8B28046B94208D2014689F80010D9F855
:101DA000000000F00F00B84274D128784F4C800733
:101DB00005D52068A96820F0F00008432060287845
:101DC000C00759D049496868083901281AD0022843
:101DD0001BD0032819D00968890700295ADA21681D
:101DE00021F0030101432160FFF7B6FE6968064652
:101DF00041F28830012911D002291DD003298246E1
:101E000027D035E009688903E7E709688901E4E735
:101E1000FFF7A2FE811B514501D926E082462068CA
:101E2000C0F381000128F3D126E000BFFFF794FE44
:101E3000811B514501D918E082462068C0F381001A
:101E40000228F3D118E000BFFFF786FE811B514541
:101E50000BD82068C0F381000328F5D10CE000BF47
:101E6000FFF77AFE811B514502D90320BDE8F087B8
:101E7000206810F00C0FF3D1D9F80010484601F09B
:101E80000F01B94208D980F80080006800F00F0007
:101E9000B84201D00120E9E72878400705D520683D
:101EA000E96820F4E050084320602878000706D550
:101EB0002068296920F4604040EAC100206000F0F9
:101EC00071F82168F02292FAA2F201F0F001B2FA60
:101ED00082F2D140064A515CC840064908600020A1
:101EE000FFF762FE0020C1E7003C024008380240D4
:101EF00018760008040000200F2202600C4A1368C4
:101F000003F003034360136803F0F0038360136876
:101F100003F4E053C36012684FF4E05303EAD202C3
:101F200002610448006800F00F000860704700007C
:101F300008380240003C0240014800687047000039
:101F40000400002008480949006809684FF4E0527D
:101F500092FAA2F201F4E051B2FA82F2D140044ABC
:101F6000515CC8407047000004000020083802405F
:101F70001876000808480949006809684FF460426B
:101F800092FAA2F201F46041B2FA82F2D140044A1C
:101F9000515CC8407047000004000020083802402F
:101FA0001876000830B51948006810F00C01184880
:101FB00012D0184C04290ED008290DD11349091F3D
:101FC0000A6802F03F030A68550247F6C07204D55A
:101FD000B4FBF3F003E0204630BDB0FBF3F00B6838
:101FE0000968134092FAA2F2B2FA82F2D34058433F
:101FF0004FF4403292FAA2F201F44031B2FA82F286
:10200000D140491C4900B0FBF1F030BD0838024016
:102010000024F400001BB7002DE9F84F0446DFF858
:10202000CC820078A8F1040BC007ABF1040537D0CF
:10203000D8F800104046C1F38101012908D000689A
:10204000C0F3810002280AD1DBF80000400206D567
:102050002868800324D56068002878D020E0A34950
:102060002079891F0870606868B1FFF775FD064622
:1020700005E000BFFFF770FD801B642868D8286862
:102080008003F7D50CE0FFF767FD064605E000BFCB
:10209000FFF762FD801B6428F0D828688003F7D41E
:1020A0002078934E80074FF0010A4FF0000742D589
:1020B000D8F80010404611F00C0F08D00068C0F3AB
:1020C000810002280AD1DBF80000400206D428680B
:1020D000800714D5E068012839D110E0E068D8B154
:1020E000C6F800A0FFF738FD814605E0FFF734FD94
:1020F000A0EB09000228C1D828688007F6D5286817
:10210000F82292FAA2F22169B2FA82F220F0F800E3
:102110009140084328600EE03760FFF71DFD8146BF
:1021200006E000BFFFF718FDA0EB090002280FD85A
:1021300028688007F6D42078000728D56D486169A3
:10214000A1B1C0F800A0FFF707FD814608E0CAE092
:1021500079E000BFFFF700FDA0EB0900022872D86C
:1021600062486C3000688007F4D510E00760FFF724
:10217000F3FC814606E000BFFFF7EEFCA0EB090090
:10218000022860D859486C3000688007F4D4207861
:10219000400749D555483830016841F08051016009
:1021A000006800F0805000905348016841F480714D
:1021B0000160FFF7D1FC814606E000BFFFF7CCFCD1
:1021C000A0EB090002283ED84B480068C005F5D5B1
:1021D000DFF81891207A09F1680989F80000A068F1
:1021E00088B1FFF7B9FC009008E000BFFFF7B4FC2E
:1021F0000099411A41F2883081426CD8D9F8000028
:102200008007F3D510E0FFF7A7FC009008E000BFBF
:10221000FFF7A2FC0099411A41F2883081425AD856
:10222000D9F800008007F3D4A069E0B3D8F8001013
:10223000C1F38101022956D00228376604D0FFF786
:102240008BFC04464AE046E0FFF786FC074604E0C4
:10225000FFF782FCC01B02283DD828688001F7D414
:10226000D4E90701084347F6C07292FAA2F2616A04
:10227000B2FA82F29140A26A4FF0FF3303EB5202AE
:102280004FF4403393FAA3F3B3FA83F39A40114324
:1022900008434FF0706292FAA2F2E16AB2FA82F257
:1022A0009140084300E01CE0CBF80000C6F860A0B5
:1022B000FFF752FC044604E0FFF74EFC001B022827
:1022C00009D828688001F7D50BE000BFFFF744FC70
:1022D000001B022802D90320BDE8F88F286880017E
:1022E000F4D40020F8E70120F6E7000008380240A7
:1022F00000004742800E47420070004070B5040065
:1023000005D00025A56294F8510010B106E0012027
:1023100070BD84F85050204600F030F8022084F858
:1023200051002068016821F040010160D4E90101F9
:102330000843D4E903121143084361690843218B20
:1023400001F400710843E1690843216A0843A16A66
:10235000084321680860A069042101EA1040616A0D
:102360000843216848602068C16921F40061C161A7
:102370006565012084F85100002070BD00B500683B
:102380000E4987B0884217D10D480021026842F4F7
:1023900080120260006800F4801005904FF46070B5
:1023A00000900220CDE90101032003900520049054
:1023B00069460448FFF7E4FA07B000BD0050014049
:1023C00044380240001402404FF0E021042808691C
:1023D00003D020F004000861704740F00400FAE7E1
:1023E00010B5401EB0F1807F01D3012010BD4FF029
:1023F000E02460610F21601700F015FF0020A0614C
:1024000007202061002010BD7047704710B5040000
:1024100003D094F8390010B107E0012010BD00206E
:1024200084F83800204600F00DF8022084F83900C6
:10243000211D206801F08CFA012084F83900002069
:1024400010BD000008B500680B49884212D10B4846
:10245000016841F0020101600068032200F00200FF
:10246000009001211D20FFF711FCBDE808401D2050
:10247000FFF700BC08BD00000004004040380240E7
:102480000168CA6842F00102CA600068016841F050
:102490000101016000207047704770B50446006874
:1024A00001694FF00005C943890715D4C168C943C4
:1024B000890711D4E91E0161012020762068806916
:1024C0008007204602D0FFF7E7FF04E000F098F80D
:1024D000204600F065F9257620680169C94349075F
:1024E00017D4C168C943490713D46FF004010161CF
:1024F000022020762068806910F4407F204602D0B8
:10250000FFF7CAFF04E000F07BF8204600F048F92E
:10251000257620680169C943090716D4C168C943F3
:10252000090712D46FF008010161042020762068A9
:10253000C0698007204602D0FFF7AEFF04E000F03C
:102540005FF8204600F02CF9257620680169C94320
:10255000C90617D4C168C943C90613D46FF0100166
:102560000161082020762068C06910F4407F204671
:1025700002D0FFF791FF04E000F042F8204600F09F
:102580000FF9257620680169C943C90708D1C168D8
:10259000C943C90704D1891E0161204600F01EF914
:1025A00020680169C943090609D4C168C9430906FD
:1025B00005D46FF0800101612046FFF725FF2068F8
:1025C0000169C943490609D4C168C943490605D40C
:1025D0006FF040010161204600F018F920680169A0
:1025E000C94389060BD4C168C943890607D46FF073
:1025F000200101612046BDE87040FFF706BF70BDB5
:10260000704770B5044690F838000D4601280DD08B
:10261000012684F83860022084F8390042B1042A87
:1026200018D0082A2AD00C2A4DD139E0022070BDDA
:10263000206801F0F9F92068816941F008018161A1
:102640002068816921F004018161206881692A691B
:10265000114311E0206801F013FA2068816941F408
:10266000006181612068816921F480618161206855
:1026700081692A6941EA0221816124E0206801F030
:1026800031FA2068C16941F00801C1612068C1695F
:1026900021F00401C1612068C1692A69114311E078
:1026A000206801F04FFA2068C16941F40061C161FE
:1026B0002068C16921F48061C1612068C1692A690B
:1026C00041EA0221C16184F83960002084F83800B1
:1026D00070BD10B5040003D094F8390010B107E0C4
:1026E000012010BD002084F83800204600F00CF8CE
:1026F000022084F83900211D206801F029F9012009
:1027000084F83900002010BD70B5056820481F4EC0
:102710001F49103802220123032486B0B54217D185
:102720000D6845F040050D60096801F04001059114
:10273000016841F0800101600068694600F0800096
:10274000059040208DE81D0009200490114819E0F3
:10275000114EB54218D10D6845F004050D600968A9
:1027600001F004010591016841F008010160006871
:10277000694600F0080005904FF470408DE81D0098
:1027800006480492FFF7FCF806B070BD0018004040
:1027900040380240001C024000080040000C02408B
:1027A0007047000010B504460068012201F030F9BE
:1027B00008492068884202D00749884203D1416C09
:1027C00041F4004141642068016841F00101016069
:1027D000002010BD0000014000040140084988426B
:1027E00007D10849D1E90023521C43F10003C1E994
:1027F000002300680449884201D1FFF7B3B970474C
:10280000387C0020680000200010004070477047AE
:1028100010F8391F407808437047000070B502680F
:1028200004461068D168536910F00F0F50D003F0C0
:10283000010501F4907635435DD0C20705D0CA0585
:1028400003D5E26B42F00102E263420705D5DA07E5
:1028500003D0E26B42F00202E263820705D5DA0799
:1028600003D0E26B42F00402E263020705D5DA0707
:1028700003D0E26B42F00802E263E26B002A33D03D
:10288000800604D5880602D5204601F0ABF9206801
:102890004069E16BC0F38010090700D428B32046DB
:1028A00001F092F92068416949061AD5416921F081
:1028B00040014161606BA0B11B490165606BFEF78F
:1028C00010FF002810D0606B016DBDE87040084714
:1028D000830610D58B060ED52046BDE8704001F06A
:1028E00081B92046FFF793FF70BD2046FFF78FFFA9
:1028F0000020E06370BD030606D50B0604D5204614
:10290000BDE8704001F00ABB4006F3D54806F1D59A
:10291000D168204621F04001D160202184F839108F
:1029200000F0BFF970BD0000B93B000870B50400AD
:1029300004D094F83900002510B106E0012070BDE4
:1029400084F83850204600F023F8242084F8390019
:102950002068C16821F40051C160204601F088F967
:102960002068016921F4904101612068416921F0EA
:102970002A0141612068C16841F40051C160E563EA
:10298000202084F8390084F83A00002070BD00004F
:102990002DE9F047054607685F480024DFF87CC151
:1029A000022101220323061586B087422FD1DCF8CD
:1029B000000040F40030CCF80000DCF8000000F427
:1029C0000030059060208DE80F00072004906946D4
:1029D0005348FEF7D5FF544F524838607004C7E99A
:1029E0000104C7E903467C61BC61FC613C62384676
:1029F0007C62FEF75DFF08B1FEF7E2FA6F6300222A
:102A000011462620BD63FFF741F9262041E04348E7
:102A1000DFF8188110384FF008094FF0206A474559
:102A20003CD13E4F3F1DD7F800C04CF0200CC7F8FA
:102A300000C03F6807F020070597076847F0400788
:102A40000760006800F0400005904FF484408DE876
:102A50000F0269463648FEF793FF334F354860371B
:102A60003860C7E901A4C7E9034680157C61C7E95E
:102A700006403C6238467C62FEF71AFF08B1FEF75A
:102A80009FFA6F63002205214720BD63FFF7FEF820
:102A90004720FFF7EFF806B0BDE8F087DFF8988031
:102AA0004745F8D1DCF8007047F08047CCF800705B
:102AB000DCF8007007F080470597076847F01007BB
:102AC0000760006800F0100005904FF4C0708DE8BA
:102AD0000F0269461948FEF753FF134F1148603F34
:102AE0006038E7E8020A402051C70F4847F8144908
:102AF0006038BC61FC613C627C62FEF7D9FE08B1C3
:102B0000FEF75EFA2F63002205215220BD63FFF716
:102B1000BDF85220BDE700000044004040380240AC
:102B2000000C024088600240348D002000140140F7
:102B30000018024028640240007800400010024063
:102B400090F83A30202B1DD1D1B1CAB190F838306D
:102B5000012B17D081628285C2850021C1632222A8
:102B600080F83A2080F8381001684A6942F0010282
:102B70004A610068C16841F49071C16000207047EB
:102B8000012070470220704730B500681349884221
:102B90000DD1134841880A0409D400F104024C0401
:102BA00012884FF0000306D50A2A01D0438030BDB9
:102BB00041F400410FE00D2A0BD0C1F30D04094D83
:102BC000491C89B225F814204180B1F5FA6FEDD285
:102BD00030BD41F48041418030BD000000440040E0
:102BE00070000020747C00202DE9F843044690F822
:102BF00039001E4617460D46202850D135B32FB355
:102C000094F8380001284AD0012084F838004FF0A9
:102C10000008C4F83C80212084F83900FEF79CFFAE
:102C2000A784E78481464FF48057E08C4B46401ED2
:102C3000E084A0684FF00002B8424FF080012046C7
:102C4000009611D101F09BF900BB02E00120BDE824
:102C5000F8832888C0F3080120684160206908B122
:102C60006D1C08E0AD1C06E001F089F970B921681F
:102C700015F8010B4860E08C0028D6D14B460022A5
:102C800040212046009601F07AF908B10320DEE7E2
:102C9000202084F8390084F838800020D7E702200B
:102CA000D5E77047FEE700002DE9F041584F594C39
:102CB0003888010470D5584E207058483188002556
:102CC00063295ED018DC452952D008DCA1F130011F
:102CD00005292DD2DFE801F03D3F42444600572947
:102CE00042D004DC522941D0532921D12FE061295F
:102CF00043D062291CD142E0494B1A1D6D2948D0AE
:102D00000ADCA1F16401092912D2DFE801F03C3E9E
:102D100040111111114A4D0078294CD004DC6E2964
:102D20003BD0762904D14FE0792950D07A293FD081
:102D30003CA001F087F9424800680168C943490690
:102D4000FBD440A001F07EF90020217847E0057017
:102D5000F1E7012100E002210170ECE70321FBE72C
:102D60000421F9E70521F7E70621F5E70721F3E755
:102D70003F48006804F082F9DDE70821ECE709210B
:102D8000EAE70A21E8E70B21E6E70C21E4E70D2159
:102D9000E2E74FF47F7002E026E04FF4FF60186036
:102DA000C9E74FF4A56001E040F638101060C2E7B3
:102DB0001868143001E0186814381860126819682F
:102DC0002CA001F03FF9B6E71068143001E010685C
:102DD00014381060F2E700BF26F81050401C8842FB
:102DE000FADB3D80BDE8F08160884FF47A61401CD9
:102DF00080B2B0FBF1F2608001FB120010B923A099
:102E000001F020F9BDE8F0410A2004F07DB800008F
:102E10007200002010030020747C00209400002029
:102E2000340800400D0A2020556E6B6E6F776E20BF
:102E3000636F6D6D616E642020200D0A000000003C
:102E4000548C00200D0A2F2A2A2A2A2A2A2A2A2AC2
:102E50002A2A2A2ACAD5B5BDC3FCC1EE2A2A2A2AA3
:102E60002A2A2A2A2A2A2A2A2A2A2A2A2F0D0A0024
:102E7000800000200D0A2043435231202564202089
:102E800043435232202564200D0A00000D0A2F2AE8
:102E90002A2A2A2A2A2A2A2A2A2A2A2A4842555407
:102EA00020524F424F434F4E203230313920B5F738
:102EB000CAD4C4A3CABD2A2A2A2A2A2A2A2A2A2AE2
:102EC0002A2A2A2A2A2A2F200D0A00000F4810B584
:102ED0000D4901600521416000214FF400328160FD
:102EE000C0E903125201C0E905210122C0E907210E
:102EF00041628162C162FEF799F9002803D0BDE802
:102F00001040FEF75DB810BD00640040888F0020BF
:102F1000104810B50E4901600521416000214FF0B5
:102F20004072C0E902124FF4003202615201C0E95E
:102F300005210122C0E9072141628162C162FEF7D9
:102F400075F9002803D0BDE81040FEF739B810BD70
:102F500000680040C88F00201D4808B5016841F492
:102F600080010160016801F480010091016841F471
:102F7000001101600068002200F40010009005219B
:102F80000C20FEF783FE0C20FEF774FE00220521C4
:102F90001020FEF77BFE1020FEF76CFE00220521BC
:102FA0001120FEF773FE1120FEF764FE00220521BA
:102FB0003920FEF76BFE3920FEF75CFE002205216A
:102FC0003A20FEF763FEBDE808403A20FEF752BE05
:102FD000303802402DE9F0474C4886B000240168A3
:102FE00041F010010160016801F0100105910168D4
:102FF00041F002010160016801F0020105910168E0
:1030000041F040010160016801F040010591016853
:1030100041F008010160016801F0080105910168B3
:1030200041F001010160016801F0010105910168B1
:1030300041F480710160016801F4807105910168BB
:1030400041F080010160016801F080010591016893
:1030500041F0200101600068DFF8B48000F020003A
:103060000590002288214046FEF770FD01220421D0
:103070004046FEF76BFDDFF89C904FF400560022AF
:1030800031464846FEF762FDDFF88CA044F2400767
:10309000002239465046FEF759FD8C20009001254C
:1030A000CDE90154694640460394FEF769FC0220CD
:1030B00000901A48CDE9010569464046FEF760FCDC
:1030C0000096CDE90154694648460394FEF758FC42
:1030D0004FF49060CDE90004694611480294FEF770
:1030E0004FFC0097CDE90154694650460394FEF722
:1030F00047FC0D2000900B48CDE9010469460A48C1
:10310000FEF73EFC06B0BDE8F08700003038024014
:10311000001002400018024000140240000021107C
:10312000000C02400000111000000240104810B5D1
:103130000E4901604FF48271416000218160C160DD
:103140004FF400720161C0E905123022C0E9072185
:10315000416281620A21C162FFF7D0F8002803D0E2
:10316000BDE81040FDF72CBF10BD0000005001402D
:10317000308F00200C4810B50A4901604FF4E1314E
:103180004160002181600C22C160C0E904128161AC
:10319000C161FFF7CBFB002803D0BDE81040FDF76D
:1031A0000FBF10BD00780040148C0020104810B5EF
:1031B0000E4901604FF4E1314160002181600C2231
:1031C000C160C0E904128161C161FFF7AFFB012258
:1031D00008490748FFF7B4FC0548FFF7A7FB00289C
:1031E00003D0BDE81040FDF7EBBE10BD0044004029
:1031F000548C002074000020FEE70000074803F014
:103200003DFA00210548FEF725F900210448FEF7A4
:1032100021F900BF03F04AF9FCE70000888F002085
:10322000C88F002070470907090E002806DA00F051
:103230000F0000F1E02080F8141D704700F1E0203D
:1032400080F800147047000030B4034C4466034C0F
:10325000846630BC03F02EBBB5680008C368000864
:10326000844E2DED028BA6F1FC048EB0A6F1E00792
:1032700004F500789FED808A2578182205EB45003B
:1032800006EBC00108A8FDF70BF807EB05100E2DA3
:1032900090EC040AF0D2DFE805F00714252E415423
:1032A0006573657384A4C7D284ED038A9FED730AA6
:1032B00084ED040AB7EE000AFDF7F2FCFDF7F6FD17
:1032C000DAE7B0EE482ADDE90C01F7EE005AB7EE76
:1032D000005AF7EE004AB7EE004AF0EE423AB0EE7E
:1032E000423A2BE0DDE90C01F7EE005AB7EE005A46
:1032F000F7EE004AABE0DDE90C01F0EE482AF7EE0C
:10330000005AB7EE005AF7EE004AB7EE004AF0EE68
:10331000623AB6EE003AB6EE002AA2E0DDE90C0110
:10332000F7EE005AB7EE005AF7EE004AB7EE004A41
:10333000F6EE003AB6EE003AB0EE482AF0EE422A37
:103340008FE0DDE90C01F7EE005AB7EE005AF7EE18
:10335000004AB7EE004ADFED4A3AB6EE003ADFED3A
:10336000492A0AE0DDE90C01F7EE005AB7EE005AEF
:10337000F7EE004AB7EE004A0CE0B0EE482A70E0E3
:10338000DDE90C01FFEE005ABFEE005AFFEE004AE5
:10339000BFEE004AF5EE003AB6EE083AF6EE002A25
:1033A000EBE71822384902A8FCF77AFF4046F7EE0F
:1033B000003AD0E91712CDE900125030B7EE003ACA
:1033C00090E80E00F7EE002AB7EE002AF5EE001A9C
:1033D000B6EE081AF6EE000AB0EE480AD8F84C002D
:1033E0001FE029491822183902A8FCF759FF404666
:1033F000F7EE003AD0E91D12CDE900126830B7EEC1
:10340000003A90E80E00F7EE002AB7EE002AF5EE3B
:10341000001AB6EE081AF6EE000AB0EE480AD8F81E
:10342000640002F0D3FE27E7DDE90C01F7EE005A55
:10343000BFEE005AF7EE004ABFEE004A09E0DDE9B0
:103440000C01FFEE005AB7EE005AFFEE004AB7EE4D
:10345000004AB0EE482AB6EE003AF0EE423AF6EEF6
:10346000002A0DF1200CCDE900019CE80F0002F0CC
:1034700037FE01E7900100200000000067908A41BC
:103480009A99193FCDCCCC3DF802002070B5054685
:10349000154A1448002482E8330010461461FFF7EF
:1034A00018F9114860263C306D080660C0E90154E7
:1034B000014600223C38FFF7A4F800210A48FFF734
:1034C00071F909480422583001460660C0E90154E8
:1034D0005838FFF796F8BDE8704004210248FFF71E
:1034E00061B90000000800409899002070B5514C67
:1034F00005465149D4ED050A94ED060A30EE801ACE
:1035000011EE100A884216DC11EE100A4B4988426F
:1035100011D810EE901A4A4881420CDC10EE902A25
:1035200048498A4207D810EE102A824203DC10EE86
:10353000100A884203D94448006803F09FFD9FEDBC
:10354000431ADFED431A9FED430ADFED430A434977
:1035500045B19FED432A012D1DD0022D34D0032DFE
:103560004BD062E094ED052A62EE012A82EEA12A98
:1035700022EE002AC2EE202AC1ED012A94ED062A8D
:1035800022EE011A81EE212A22EE000A80EE201A94
:1035900081ED001A49E0D4ED051A61EE812AC2EEF0
:1035A000821A61EE801AC1EEA02AC1ED022AD4ED82
:1035B000061A21EE811AC1EE021A21EE800A80EE6F
:1035C000201A81ED031A30E094ED052A62EE012AFB
:1035D00082EEA12A22EE002AC2EE202AC1ED042AA0
:1035E00094ED062A22EE011A81EE212A22EE000A2B
:1035F00080EE201A81ED051A17E0D4ED051A61EE70
:10360000812AC2EE821A61EE801AC1EEA02AC1EDB3
:10361000062AD4ED061A21EE811AC1EE021A21EE15
:10362000800A80EE201A81ED071A0E4901200870E9
:1036300070BD00009400002000003343000033C33D
:1036400000001643000016C3800000200070604593
:1036500000003BC300F8FF450000B4432890002061
:1036600000003B43140300200FB42DED020B70B596
:10367000614C2DED0A8B94ED021ADDED151A139EA7
:1036800030EE412A94ED011A109D9DED12CA01EE13
:10369000821A9DED148ADDED118A84ED011A84ED04
:1036A000020A31EE200A10EE100AFCF7B1FF41ECDD
:1036B000100B9FED529BB0EE491AF0EE691A01F023
:1036C00047F851EC100BFCF7B6FF0AEE100A9FED1D
:1036D0004DBBDFED4EAAB4EEC8AAF1EE10FA36D813
:1036E00018EE900AFCF794FF53EC1B2BFCF7A3FE9B
:1036F0008AEE080A41EC190B20EE280A10EE100A97
:10370000FCF786FF53EC192BFCF78FFEFCF793FFB9
:10371000E0602846FCF77CFF6AEE2A0A41EC190BB0
:1037200080EE880A10EE100AFCF772FF41EC100BD5
:1037300001F0BAFEB0EE408AB1EE4C0AF0EE608ABB
:1037400010EE100AFCF764FF53EC182B46E018EE5D
:10375000100AFCF75DFF53EC192BFCF769FE3AEEFB
:10376000480A41EC190B10EE100AFCF751FF53EC1C
:10377000192BFCF7D2FEFCF75EFF08EE100A18EEDC
:10378000900AFCF745FF53EC1B2BFCF754FE28EE88
:10379000680A41EC190B10EE100AFCF739FF53ECE4
:1037A000192BFCF7A1FDFCF746FFE0602846FCF76B
:1037B0002FFF28EE2A0A41EC190B10EE100AFCF735
:1037C00027FF41EC100B01F06FFEB0EE408AF0EEE7
:1037D000608A3046FCF71CFF53EC182BFCF72BFEDD
:1037E00053EC192BFCF780FDFCF725FF2061BDECA5
:1037F0000A8B70BC5DF81CFB9400002000000000E8
:103800000000F03F000000000000E03FDB0F4940F7
:1038100002F064BF30B5264893B00025016841F03E
:1038200080510160006800F08050119021480168CB
:1038300041F4404101600068022400F440401190CE
:103840000120009001908005CDE9064006200890F7
:10385000B420CDE9090404200B906846FEF7DCFB98
:1038600000B1FEE7FEF744FA00B1FEE70CA90F2015
:1038700081E831004FF4A0500F904FF48050109029
:1038800005210CA8FEF77AFA00B1FEE7FEF754FB1B
:103890004FF47A71B0FBF1F0FEF7A2FD0420FEF7C1
:1038A00093FD00220F21501EFEF7F0F913B030BD3A
:1038B00040380240007000401048016841F4700137
:1038C00001600F48016841F0010101600C4A0021CC
:1038D0000832116002680B4B1A400260031D0A4A4D
:1038E0001A60026822F48022026005480C300160F0
:1038F00002495806803908607047000088ED00E0F2
:1039000000380240FFFFF6FE103000240148FEF7A9
:10391000C4BD0000387C0020094A10B5074BC2E93D
:1039200000310021C2E9021010461161FEF76EFD60
:10393000BDE810400248FEF7A3BD000000040040AF
:10394000387C00200148FEF7A8BD0000F48E00205E
:10395000F0B50268234B244D244E254F254C4FF0E3
:10396000804C984209D0604507D0A84205D0B042AB
:1039700003D0B84201D0A04204D122F0700E4A68B0
:1039800042EA0E0298421BD0604519D0A84217D0D7
:10399000B04215D0B84213D0A04211D0164DA84263
:1039A0000ED0164DA8420BD0154DA84208D0154D8B
:1039B000A84205D0144DA84202D0144DA84203D10C
:1039C00022F44075CA682A4302608A68C2620A68A3
:1039D0008262984201D0A04201D1096901630121AC
:1039E0004161F0BD000001400004004000080040BB
:1039F000000C004000040140004001400044014030
:103A00000048014000180040001C00400020004019
:103A100010B50123046A8B409C430462036A8A4008
:103A20001343036210BD000030B5026A22F00102A8
:103A30000262026A436884690D6824F073042543B6
:103A400022F002048A6822430B4CA04202D00B4CA5
:103A5000A0420BD122F00804CA6823F44073224329
:103A60004C6922F004021C438B6923434360856147
:103A700049684163026230BD00000140000401401A
:103A800030B5026A22F010020262026A4368846959
:103A90000D6824F4E64444EA05248D6822F02002EF
:103AA00042EA05120D4DA84202D00D4DA8420ED19A
:103AB000CD6822F0800242EA05124D6923F440638A
:103AC00043EA85038D6922F0400243EA850343609F
:103AD000846149688163026230BD000000000140DA
:103AE0000004014030B5026A22F480720262036A67
:103AF0004268C46923F4007324F073050C682C43F6
:103B00008D6843EA05230D4DA84202D00C4DA84212
:103B10000ED1CD6823F4006343EA05234D6922F4F6
:103B2000405242EA05128D6923F4806342EA05128D
:103B30004260C4614968C163036230BD0000014056
:103B40000004014030B5026A22F480520262046A25
:103B50004268C3690D6823F4E64343EA05238D6890
:103B600024F4005444EA0534084DA84202D0084D1C
:103B7000A84204D14D6922F4804242EA8512426093
:103B8000C36149680164046230BD00000000014067
:103B900000040140044D00244FF47A762C80304616
:103BA0000A3403F0B1F9F9E7349900200148FEF72F
:103BB00035BE0000148C002010B5806B0021C1853B
:103BC000C184FEF724FE10BD0168CA6822F4907219
:103BD000CA6001684A6922F001024A61202180F826
:103BE0003A10704710B590F83A10222901D00220FF
:103BF00010BD8168B1F5805F11D0016900290168AD
:103C00001FD0496801F07F03816A4A1C82620B70F1
:103C1000C18D491E0904090CC18518D026E002692E
:103C2000816A002A0268526805D0D2B20A80816A8D
:103C3000491C8162ECE7C2F308020A80816A891C90
:103C4000F7E74A68816A4B1C83620A70E0E7016803
:103C5000CA6822F49072CA6001684A6922F00102BF
:103C60004A61202180F83A10FEF78EFF002010BD37
:103C70002DE9F04104460068016921F44052E168F1
:103C8000114301612168C86849F20C6290432369BD
:103C9000A268E5691A4363692B431A430243CA6069
:103CA0002168486920F44072A06910434861E169C5
:103CB0006425B1F5004F9748974A21684FF03208C4
:103CC0003FD0914201D081427CD1FEF753F900EB05
:103CD000C00101EB001061688900B0FBF1F6FEF74E
:103CE00049F900EBC00101EB001061688900B0FBED
:103CF000F1F0B0FBF5F06FF01801484306EB8001DE
:103D000008EB0110B0FBF5F000F0F006FEF732F919
:103D100000EBC00101EB001061688900B0FBF1F01D
:103D2000B0FBF5F006EB0016FEF724F900EBC0013E
:103D300001EB001061688900B0FBF1F7FEF71AF99A
:103D4000D2E0914201D081423DD1FEF713F900EB60
:103D5000C00101EB001061684900B0FBF1F0B0FB5D
:103D6000F5F00601FEF706F900EBC00101EB0010CB
:103D700061684900B0FBF1F7FEF7FCF800EBC00109
:103D800001EB001061684900B0FBF1F0B0FBF5F009
:103D90006FF01801484307EB800108EBC100B0FB4E
:103DA000F5F000F0F80006EB4006FEF7E3F800EB54
:103DB000C00101EB001061684900B0FBF1F7FEF7AC
:103DC000D9F83CE055E0FEF7BDF800EBC00101EB8F
:103DD000001061684900B0FBF1F0B0FBF5F006019E
:103DE000FEF7B0F800EBC00101EB0010616849007C
:103DF000B0FBF1F7FEF7A6F800EBC00101EB0010F5
:103E000061684900B0FBF1F0B0FBF5F06FF018010C
:103E1000484307EB800108EBC100B0FBF5F000F070
:103E2000F80006EB4006FEF78DF800EBC00101EB51
:103E3000001061684900B0FBF1F7FEF783F800EB72
:103E4000C00101EB001061684900B0FBF1F0B0FB6C
:103E5000F5F06FF01801484307EB800108EBC10053
:103E6000B0FBF5F000F00700216830448860BDE841
:103E7000F081FEF767F800EBC00101EB001061680C
:103E80008900B0FBF1F6FEF75DF800EBC00101EB35
:103E9000001061688900B0FBF1F0B0FBF5F06FF045
:103EA0001801484306EB800108EB0110B0FBF5F068
:103EB00000F0F006FEF746F800EBC00101EB001041
:103EC00061688900B0FBF1F0B0FBF5F006EB00167D
:103ED000FEF738F800EBC00101EB001061688900C3
:103EE000B0FBF1F7FEF72EF800EBC00101EB00107C
:103EF00061688900B0FBF1F0B0FBF5F06FF01801DC
:103F0000484307EB800108EB0110B0FBF5F000F02F
:103F10000F00A9E7001401400010014090F839108B
:103F2000212901D0022070478168B1F5805F016AC4
:103F30000BD04A1C0262026809785160C18C491E8C
:103F40000904090CC1840ED017E009880268C1F386
:103F50000801516001690029016A02D0491C01620F
:103F6000ECE7891CFBE70168CA6822F08002CA609E
:103F70000068C16841F04001C160002070472DE930
:103F8000F041984617460E460446069D1DE0681C03
:103F90001BD02DB1FDF7E0FDA0EB0800A84214D91D
:103FA0002068C16821F4D071C1602068416921F0A6
:103FB00001014161202084F8390084F83A00002092
:103FC00084F838000320BDE8F0812068006836EAF4
:103FD000000004D00020B842D9D00020F3E701202F
:103FE000F9E7000070B500240C4D0D48FEF716FCF3
:103FF00002E0641CAC4204D80948FEF709FC202802
:10400000F7D1002402E0641CAC4206D80122054925
:104010000348FEF795FD0028F5D170BDFFFF0100B4
:10402000548C0020740000200148FEF7F7BB00000C
:10403000F48D00200148FEF7F1BB0000948C0020B5
:10404000FEE700000FB4054B10B503A9044A02981F
:1040500001F028FF10BC5DF814FB0000BD600008F3
:104060001803002003B401984100009850EAC120D1
:1040700018BF04204A0D18BF40F0010040F2FF7243
:10408000B2EB515F08BF40F00200012808BF0520D5
:1040900002B070470000000010B5B94A2DED020BC8
:1040A0002DED0C8B82B00F9921F000409FEDB6CB27
:1040B00090422CDBA0F140530E9AA3F17F631A4388
:1040C0000FD0B349884202DC16D10E98A0B19DED05
:1040D0000E0B02B0BDEC0C8B02B0BDE8104001F03D
:1040E00087BE0029C1BF9FEDAC0B02B0BDEC0C8BAD
:1040F00002B0C8BF10BD16E0012001F0CDFE02B035
:10410000BDEC0C8B02B0BDE8104001F085BEA44AA6
:104110009FEDA59B9FEDA6AB90425EDAA6499FED71
:10412000A8CB814208DBB0EE4C0AF0EE6C0A02B07C
:10413000BDEC0C8B02B010BD9DED0E0B53EC102BA3
:1041400051EC100BFCF777F941EC180B9E48062157
:10415000B0EE480AF0EE680A784401F01DFD53EC19
:10416000182B51EC100BFCF766F941EC1B0B974830
:10417000B0EE480AF0EE680A0421784401F00CFD24
:1041800053EC182B51EC100BFCF755F953EC192B91
:10419000FCF7AAF841EC100B51EC1B0B53EC102B65
:1041A000FCF7BBF941EC100B53EC102B9DED0E0B03
:1041B00051EC100BFCF73FF953EC1A2BFCF738F9D4
:1041C0009DED0E1B53EC112BFCF732F953EC1C2B1D
:1041D000FCF72EF941EC100BA9E79FED7D8B9FEDCD
:1041E0007EBB9DED0E0B002953EC192B51EC100BEF
:1041F00052DAFCF779F853EC182BFCF71CF941EC78
:10420000180B77480621B0EE480AF0EE680A7844A9
:1042100001F0C2FC53EC182B51EC100BFCF70BF91E
:1042200041EC1D0B6F48B0EE480AF0EE680A04211D
:10423000784401F0B1FC53EC182B51EC100BFCF757
:10424000FAF853EC192BFCF74FF841EC190B51EC31
:10425000180B02F0D5FC41EC180B53EC192B51EC68
:104260001D0BFCF75AF953EC182BFCF7E4F853EC50
:104270001A2BFCF7DAF841EC100B51EC180B53EC4D
:10428000102BFCF731F853EC1B2BFCF7D4F853EC54
:104290001C2BFCF7CDF86DE0FCF7CAF853EC182B9B
:1042A000FCF7C9F841EC180B02F0AAFC41EC1A0B20
:1042B00000208DED00AB00909DED000B51EC1A0B32
:1042C00053EC102BFCF710F89DED000B41EC1C0B90
:1042D00053EC102B51EC100BFCF7ADF853EC182BF2
:1042E000FCF7A6F853EC1C2BFCF717F941EC1C0B60
:1042F0003D48B0EE480AF0EE680A0621784401F025
:104300004BFC53EC182B51EC100BFCF794F841ECE0
:104310001D0B3648B0EE480AF0EE680A04217844D6
:1043200001F03AFC53EC182B51EC100BFCF783F81E
:1043300053EC192BFBF7D8FF41EC100B51EC1D0B84
:1043400053EC102BFCF7E9F853EC1A2BFCF773F83D
:1043500053EC1C2BFBF7C8FF41EC100B53EC102B5C
:104360009DED000B51EC100BFBF7BEFF53EC1B2B2C
:10437000FCF761F841EC100BD9E6000000000000EA
:104380000000F03F00000000182D4454FB210940BC
:104390000000F07F000000000000000000000000AE
:1043A0000000E03F00000000000000000000F03FBF
:1043B000075C143326A6913C0000603C000000001E
:1043C000182D4454FB21F93F543700006237000098
:1043D000000000000000E03F00000000000000407E
:1043E0009E360000AC360000B0350000BE3500003F
:1043F00070B5C1482DED020B2DED0E8B82B0119DD5
:1044000025F000449FEDBEDB9FEDBFEB84423EDB19
:10441000A4F140511098A1F17F6108430FD0BC482E
:10442000844202DC28D1109830B39DED100B02B00D
:10443000BDEC0E8B02B0BDE8704001F0D9BC9DED23
:10444000100B53EC1D2B51EC100BFBF7F4FF9DED03
:10445000100B41EC180B53EC1E2B51EC100BFBF71F
:10446000EAFF53EC182BFBF73FFF41EC100B02B0B7
:10447000BDEC0E8B02B070BD012001F00DFD02B04D
:10448000BDEC0E8B02B0BDE8704001F0C5BCA14888
:104490009FEDA18B844256DA9DED100BB4F1795F4C
:1044A0000ADA51EC100BFFF7DDFD042808BF01F01C
:1044B000D3FC9DED100BDAE753EC102B51EC100BF5
:1044C000FBF7B9FF41EC190B95480621B0EE490AFC
:1044D000F0EE690A784401F05FFB53EC192B51ECC4
:1044E000100BFBF7A8FF41EC1A0B8E48B0EE490AFF
:1044F000F0EE690A0421784401F04EFB53EC192BCD
:1045000051EC100BFBF797FF53EC182BFBF7ECFE6D
:1045100041EC100B51EC1A0B53EC102BFBF7FDFF89
:10452000CDE900019DED000B53EC102B9DED100B20
:1045300051EC100BFBF77FFF9DED101B53EC112B83
:10454000FBF7D2FED2E09DED100B51EC100B01F009
:1045500095FD53EC182BFBF76BFF9FED730BCDE92B
:10456000000153EC102B9DED000B51EC100BFBF7F1
:1045700062FF41EC190B6E480621B0EE490AF0EEDD
:10458000690A784401F008FB53EC192B51EC100B2D
:10459000FBF751FF41EC1B0B6648B0EE490AF0EE09
:1045A000690A0421784401F0F7FA53EC192B51EC15
:1045B000100BFBF740FF53EC182BFBF795FE41EC7B
:1045C0001C0B51EC190B02F01BFB41EC180B5A4869
:1045D0009FED5BABA04222DC53EC1C2B51EC1B0B80
:1045E000FBF79BFFCDE900019DED000B51EC180B93
:1045F00053EC102BFBF71FFF53EC182BFBF774FE4B
:1046000053EC1A2BFBF717FF53EC1D2BFBF70DFF99
:1046100053EC1E2BFBF70CFF41EC100B5FE08DED14
:10462000008B002000909DED000B51EC180B53EC1B
:10463000102BFBF759FE9DED000B41EC1E0B53ECCC
:10464000102B51EC100BFBF7F6FE53EC192BFBF77C
:10465000EFFE53EC1E2BFBF760FF41EC190B53EC04
:104660001C2B51EC1B0BFBF758FF41EC1B0B53ECC5
:104670001A2B51EC190BFBF7DEFE53EC1D2BFBF74D
:10468000D7FE41EC190B53EC1A2B51EC180BFBF72E
:10469000D2FE53EC1B2BFBF7CEFE53EC192BFBF792
:1046A000C4FE9DED000B41EC180B53EC1A2B51ECA2
:1046B000100BFBF7C0FE9FED249B53EC192BFBF76F
:1046C000B7FE41EC100B51EC180B53EC102BFBF721
:1046D000ACFE53EC192BFBF7ABFE41EC100B002D9D
:1046E0003FF7C5AE51EC100B81F0004141EC100BCF
:1046F000BDE60000000000000000F03F00000000E8
:10470000075C143326A6913C182D4454FB21F93F35
:104710000000F07F0000E03F000000000000F03FDC
:104720002834000036340000000000000000E03FA4
:104730007A330000883300003333EF3F000000007D
:104740000000000000000040182D4454FB21E93F08
:1047500010B52DED040B86B09DED060B10EE100A82
:1047600010EE901A8DED000B002818BF01200843B1
:1047700020F00040C0F17F6000F1E040C00F21D187
:104780009DED080B10EE101A10EE900A8DED000B47
:10479000002918BF0121084320F00040C0F17F60CC
:1047A00000F1E040C00F0DD129490798B1EB400F4F
:1047B00004BF0698002842D00998400004BF08981A
:1047C00000283CD09DED080B53EC102B9DED060B03
:1047D00051EC100BFCF77EF8CDE902019DED020BC8
:1047E00040F2FF7110EE900A8DED000B31EA10508F
:1047F00021D00798039900F0004001F00041884261
:1048000019D09DED080B8DED040B9DED020B8DED88
:10481000000B10EE900A059961F31E0005909DEDC6
:10482000041B9DED020B51EC110B53EC102BFBF70D
:10483000FFFDCDE902019DED020B0AB010BD012084
:1048400001F02AFB0AB0BDE8104001F0E5BA000013
:104850000000E0FF000000002DE9F04D2DED040BFD
:104860002DED0E8B96B0DDE92550279CDDF890A04C
:1048700025F0004624F00048BAF1000F14BF0121D2
:10488000002101EB4502FC4953184A1093422AD3F8
:10489000002814BF0123002303EB44030B44F74912
:1048A0008B4220D358EA00019FEDF59B76D0DFF8CC
:1048B000D8B35D4503D1BAF1000F05D188E0BAF154
:1048C000000F08BF002100D0012101EB450111F5C7
:1048D000001F08D8002814BF0121002101EB44016A
:1048E00011F5001F0BD99DED261B9DED240B16B075
:1048F000BDEC0E8B04B0BDE8F04D01F083BA00278B
:10490000002DBCBFE149884521DAE1498845A8BFAF
:1049100002271CDAC3451ADCDE4901EB28511429B1
:1049200008DDC1F1340220FA02F101FA02F28242FA
:104930000DD108E058B9C1F1140228FA02F101FAC8
:1049400002F2424503D101F00101C1F1020756EA2A
:104950000A0124D1002C22DA002D18BF022F01D029
:10496000012F0AD0022001F097FA16B0BDEC0E8B91
:1049700004B0BDE8F04D01F023BA022001F08CFA3A
:1049800001F01EFA51EC100B81F0004141EC100BCC
:1049900016B0BDEC0E8B04B0BDE8F08D18E09FEDB5
:1049A000BEAB9FEDBF8B002871D1B848804522D1A6
:1049B00005F1804010F5801008BFBAF1000F07D054
:1049C000B3450ADC002CA8BF9DED260BE0DA0DE014
:1049D000B0EE490AF0EE690ADAE7002C06DA9DED3E
:1049E000260B51EC100B81F000416FE0AE4878448B
:1049F00090ED000BCCE7D8454DD1002C48DA2EB114
:104A000086423AD1BAF1000F42D126E0BAF1000F46
:104A100013D0022001F040FA01F00EFA8DED020BE6
:104A20009DED240B8DED000B10EE900A039961F3C0
:104A30001E0003909DED020BAAE78DED02AB9DEDEC
:104A4000240B1AEE901A10EE900A8DED000B61F314
:104A50001E0003909DED020B9AE78DED028B9DEDFC
:104A6000240B18EE901A10EE900A8DED000B61F3F6
:104A70001E0003909DED020B8AE709DA9DED240BE1
:104A800051EC190B53EC102BFBF747FD1EE020E017
:104A90009DED240B7CE786421BDAB4F1804F0DD0EC
:104AA000A4F10050B0F1FF5013D1002D11DB9DEDAA
:104AB000240B51EC100B02F0A3F807E09DED240B42
:104AC00053EC102B51EC100B00F0C2BC41EC100B5E
:104AD0005EE79DED240B51EC100B01F0CFFABAF11B
:104AE000000FCDE90E0142D19FED710B46B3A6F147
:104AF000E040B0F17F600CD05E4538D1002D00DA87
:104B0000A7B3022F0CBF01204FF0FF30FBF725FFAA
:104B1000DCE7002D01DD002C0DDA002D01DD002C7D
:104B20001FDB002D16DA002C14DB012F08BF9FEDD0
:104B3000620B3FF42DAFB0EE4A0AF0EE6A0A27E7A7
:104B4000022F18BF002D0CD0012F0AD1002DFFF627
:104B50001FAF06E0002DB8BF002C08DA012F3FF48C
:104B600017AFB0EE480AF0EE680A11E71BE001202B
:104B700000EBE57050EA070115D0791EB0EE498AC6
:104B8000F0EE698A084308BF9FED4D8B4E48002523
:104B9000804570DD4D494E48884514DDB0420DDB3F
:104BA000002C19DB2FE0012001F076F916B0BDECE6
:104BB0000E8B04B0BDE8F04D01F02EB9B34502DC18
:104BC000002C09DC1FE0864202DA002C1BDA03E02D
:104BD0005E452BDD002C16DD022001F05DF901F0B1
:104BE0002BF98DED020B53EC1A2B51EC180BFBF744
:104BF00022FCCDE900010399019861F31E000390A6
:104C00009DED020BC4E6022001F046F901F024F903
:104C100010EE901A18EE900A8DED020B8DED008BC0
:104C200061F31E0003909DED020BB1E69DED0E0BAE
:104C300053EC192B51EC100BFBF7F7FB9FED260BF8
:104C4000CDE9080153EC102B9DED080B51EC100B36
:104C5000FBF7F1FB9FED221B53EC112BFBF7E8FB5D
:104C60009DED081B53EC112BFBF7E5FB9FED1E1B85
:104C700053EC112B3CE08CE0FFFF1F00FFFF0F0007
:104C8000000000000000F03F0000F03F0000F07F57
:104C90000000404301FCFFFF000000000000F07F27
:104CA00000000000000000001630000000000000BE
:104CB0000000000000000080000000000000F0FF85
:104CC000000000000000F0BF0000E0410000F043E1
:104CD000FFFFEF3F00000000000000000000D03F99
:104CE000555555555555D53F000000000000E03F93
:104CF000FBF79EFB9DED080B41EC1A0B53EC102BC0
:104D000051EC100BFBF797FB53EC1A2BFBF793FBC3
:104D100041EC1A0B9FEDFE0B53EC102B9DED080B95
:104D200051EC100BFBF787FB41EC1B0B9FEDFA0BD3
:104D300051EC1A0B53EC102BFBF77DFB41EC1A0BDB
:104D40009FEDF70B53EC102B9DED080B51EC100B66
:104D5000FBF771FB53EC1A2BFBF767FB41EC1A0BCB
:104D600051EC1B0B53EC1A2BFBF7BEFA0690CDE966
:104D700006519DED060B53EC1B2B51EC100BFBF772
:104D800054FB53EC1A2BFBF753FB41EC100B00F0D8
:104D9000A1B90020B6F5801F0EDA9FEDE30B53ECAE
:104DA000102B9DED0E0B51EC100BFBF744FBCDE9E6
:104DB0000E016FF034000E4600EB2650A0F2FF37D4
:104DC000C6F31300DA4940F07F6646F04056884249
:104DD000D8BF002408DDD7498142C8BF012403DCC5
:104DE0000024A6F580167F1CD348784400EBC4004D
:104DF0000F9690ED00CB9DED0E0B53EC1C2B51EC60
:104E0000100BFBF712FB9DED0E0B41EC1B0B53EC53
:104E10001C2B51EC100BFBF767FA41EC100B51EC1B
:104E2000190B53EC102BFBF778FB41EC1D0B51ECED
:104E30001B0B53EC1D2BFBF7FEFA41EC1A0BBF4882
:104E40008DED10AB7844109590ED000B4FF00050B5
:104E500040EA660000EB84408DED080B00F5002071
:104E600009909DED080B53EC1C2B51EC100BFBF73C
:104E7000DCFA9DED0E1B53EC112BFBF7D9FA41EC3C
:104E8000100B53EC102B9DED100B51EC100BFBF79E
:104E9000D2FA9DED080B41EC1C0B53EC102B9DED51
:104EA000100B51EC100BFBF7C6FA53EC1B2BFBF766
:104EB000BFFA53EC1C2BFBF7B8FA53EC1D2BFBF796
:104EC000BAFA41EC1C0B53EC1A2B51EC1A0BFBF702
:104ED000B2FA41EC1B0B9A480621B0EE4B0AF0EEF9
:104EE0006B0A784400F058FEB0EE401AF0EE601AFB
:104EF000B0EE41DAF0EE61DA53EC1B2B51EC1B0BF8
:104F0000FBF799FA53EC1D2BFBF795FA9DED100B6F
:104F100041EC1B0B53EC1A2B51EC100BFBF7E4F993
:104F200053EC1C2BFBF787FA53EC1B2BFBF7DCF93C
:104F30009DED100B41EC1B0B53EC102B51EC100BA7
:104F4000FBF779FA41EC1D0B9FED7FEB53EC1E2B29
:104F5000FBF7CAF953EC1B2BFBF7C6F90890CDE918
:104F600008519DED080B53EC1E2B51EC100BFBF779
:104F70005CFA53EC1D2BFBF758FA53EC1B2BFBF799
:104F800057FA9DED080B41EC1D0B53EC102B9DEDDA
:104F9000100B51EC100BFBF74EFA41EC1B0B53ECD2
:104FA0001A2B51EC1D0BFBF746FA9DED080B41EC5B
:104FB0001A0B53EC102B51EC1C0BFBF73CFA53EC87
:104FC0001A2BFBF791F941EC1A0B51EC1B0B53EC2C
:104FD0001A2BFBF789F90C90CDE90C519DED0C0BC8
:104FE00053EC1B2B51EC100BFBF71FFA53EC1A2B55
:104FF000FBF71EFA41EC1B0B9FED550B53EC102BEE
:105000009DED0C0B51EC100BFBF715FA41EC1A0B54
:105010009FED510B51EC1B0B53EC102BFBF70BFAD4
:1050200041EC1B0B9FED4E0B53EC102B9DED0C0B2D
:1050300051EC100BFBF7FFF953EC1B2BFBF754F96A
:1050400041EC100B4848784400EBC40090ED001B85
:1050500051EC100B53EC112BFBF746F941EC1B0BF9
:105060003846FBF77AFCCDE9080153EC1B2B51ECD9
:105070001A0BFBF739F941EC100B3C48784400EB74
:10508000C40090ED00CB51EC100B53EC1C2BFBF744
:105090002BF99DED081B53EC112BFBF725F906901E
:1050A000CDE906519DED080B53EC102B9DED060B41
:1050B00051EC100BFBF7B9F953EC1C2BFBF7B5F9CE
:1050C00053EC1A2BFBF7B1F953EC1B2BFBF7B0F9A0
:1050D00041EC100B9DED261B53EC102B8DED001BAE
:1050E00000959DED260B51EC100BFBF7A4F99DEDFF
:1050F000000B41EC1A0B53EC102B9DED260B51ECE1
:10510000100BFBF792F99DED061B53EC112B2FE0D2
:10511000000000604715F73FFE822B654715F73FFB
:1051200044DF5DF80BAE543E000000000000404339
:105130008E9803007AB60B00622B0000C02B000093
:105140009A2A000000000000000000000000084053
:10515000000000E009C7EE3FFD033ADC09C7EE3F5F
:10516000F5015B14E02F3EBE26290000E028000078
:10517000FBF761F953EC1A2BFBF7B6F89DED060B24
:1051800041EC1A0B53EC102B9DED000B51EC100B66
:10519000FBF751F9CDE90C019DED0C0B51EC1A0B0D
:1051A00053EC102BFBF7A0F8CDE902010C46AA49FD
:1051B0008C422FDB611A084318D19DED0C0B53EC88
:1051C000102B9DED020B51EC100BFBF72EF941EC6F
:1051D0001B0B9FEDA30B51EC1A0B53EC102BFBF7A1
:1051E00083F853EC1B2BFBF7C9FB2DD2022000F0F8
:1051F00053FE00F021FE10EE901A18EE900A8DED8D
:10520000020B8DED008B61F31E0003909DED020BF0
:10521000FFF7BEBB944A24F00041914214D3934956
:10522000214408437FF4EFAC9DED0C0B53EC102BA5
:105230009DED020B51EC100BFBF7F7F853EC1A2B1A
:10524000FBF79CFB7FF6DFAC24F000408849894ADD
:10525000002601EB205182422BDA481C4FF48011CA
:1052600021FA00F02044844AC0F30A517A44A1F2A2
:10527000FF3192ED000B814A8DED080BCA4020EA08
:105280000202C0F3130040F48010C1F1140120FAAF
:1052900001F60992002CB8BF76429DED080B53EC45
:1052A000102B9DED0C0B51EC100BFBF7BEF8CDE96C
:1052B0000C019DED0C0B51EC1A0B53EC102BFBF772
:1052C00013F89FED6F0B0890CDE9085153EC102BAC
:1052D0009DED080B51EC100BFBF7ADF841EC1B0BEF
:1052E0009FED690B53EC102B9DED080B51EC100B4F
:1052F000FBF7A1F89DED0C0B41EC1C0B53EC102BB4
:105300009DED080B51EC100BFBF78FF853EC1A2BAB
:10531000FBF78EF89FED5E1B53EC112BFBF78BF820
:1053200053EC1C2BFAF7E0FF41EC1A0B51EC1B0B72
:1053300053EC1A2BFAF7D8FFCDE902019DED020BD1
:1053400053EC1B2B51EC100BFBF76FF853EC1A2BA3
:10535000FBF76EF89DED020B41EC1A0B53EC102B92
:1053600051EC100BFBF767F8CDE908014A489DEDB9
:10537000080B0521784400F00FFC9DED081B51EC53
:10538000100B53EC112BFBF756F89DED021B53EC61
:10539000112BFBF74DF8CDE906019DED020B53EC07
:1053A0001A2B51EC100BFBF746F853EC1A2BFAF7BB
:1053B0009BFF9FED3B0B41EC1A0B53EC102B9DED2B
:1053C000060B51EC100BFBF730F89DED060B41EC92
:1053D0001B0B53EC102B9DED020B51EC100BFBF74C
:1053E0002AF853EC1B2BFBF798F853EC1A2BFBF71E
:1053F0001CF89DED021B53EC112BFBF716F853EC38
:10540000192BFBF715F8CDE9020101EB0650011548
:105410000029C8BF039015DC9DED020B324651EC0C
:10542000100BFBF7EFF9FEF71DFE042808BF00F094
:1054300013FD32469DED020B51EC100BFBF7E2F928
:10544000CDE902019DED020B51EC180B53EC102B32
:10545000FAF7F1FFFFF73ABB0000904000000000B0
:10546000FE822B654715973C00CC904000346F3F7F
:1054700001FCFFFF0000E03F98270000FFFF0F0046
:1054800000000000432EE63F396CA80C615C20BE92
:10549000EF39FAFE422EE63F3826000000000000F9
:1054A000000000000000004010B52F499FED2C1BAC
:1054B0002DED020B84B0059820F000408842DCBF3F
:1054C00000209DED040B32DD2849884209D1049863
:1054D00040B94FF0010000F0DFFC00F09DFC06B089
:1054E00010BD05DB9DED040B00F082FC06B010BD85
:1054F00068469DED040B00F07BF810F0030011D01E
:10550000012818D09DED021B9DED000B02281AD03A
:1055100000F08AFA51EC100B81F0004106B041EC2A
:10552000100B10BD9DED021B9DED000B012000F046
:10553000AFFB06B010BD9DED021B9DED000B00F012
:1055400073FA06B010BD012000F0A2FB51EC100B65
:1055500081F0004106B041EC100B10BD00000000CE
:105560000000000000000000FB21E93F0000F07F88
:1055700000B52DED048BB0EE409AF0EE609A83B04A
:1055800051EC190BFBF755F941EC180B18EE100A0A
:1055900018EE901A8DED008B002818BF01200843EB
:1055A00020F00040C0F17F6000F1E040C00F14D057
:1055B00019EE101A19EE900A8DED009B002918BF04
:1055C0000121084320F00040C0F17F6000F1E0407D
:1055D000C00F04BF012000F05FFCB0EE480A03B02A
:1055E000F0EE680ABDEC048B00BD00000000000076
:1055F0002DE9F14F04462DED020B2DED088B8AB0FD
:105600009FEDE70B80ED020B139EE74826F0004567
:1056100085420ADC9DED120B002084ED000B0AB0E0
:10562000BDEC088B03B0BDE8F08FE0489FEDE0AB28
:105630009FEDE1BBA84247DDE14F9FEDE39B9FED6E
:10564000E48B9DED120B53EC1A2B51EC100B002E3A
:105650001CDDFAF7EAFE41EC100BBD4208D053EC1A
:105660001B2B51EC100BFAF7E0FEC4E900010BE034
:1056700053EC192B51EC100BFAF7D7FE53EC182B07
:10568000FAF7D3FEC4E900010120C8E7FAF72CFEBF
:1056900041EC100BBD4208D053EC1B2B51EC100B0E
:1056A000FAF722FEC4E900010BE053EC192B51EC90
:1056B000100BFAF719FE53EC182BFAF715FEC4E994
:1056C00000014FF0FF30AAE7C348A84279DB9DED07
:1056D000120B51EC100B00F0D1FC41EC180B9FEDBC
:1056E000C00B53EC102BFAF7A6FE9FEDBF1B53EC3B
:1056F000112BFAF7F9FDFBF788F90746FBF72DF9AF
:1057000041EC190B53EC1A2BFAF795FE53EC182BBE
:10571000FAF78EFE41EC180B53EC1B2B51EC190BD6
:10572000FAF789FEDFF8C8A241EC100B4FEA1558D2
:105730000125FA4453EC102B51EC180BFAF775FEC7
:10574000032DC4E900013DD0C1F30A5005EB45111A
:10575000A8EB00001139814234DA0AEB051BB0EEE8
:1057600048AA9BED000BF0EE68AA53EC102B51EC0D
:10577000190BFAF760FE41EC1B0B51EC1A0B53ECC2
:105780001B2BFAF752FE41EC180B51EC1A0B53ECA1
:10579000182BFAF74AFE53EC1B2BFAF746FE9BED4B
:1057A000020B41EC1A0B53EC102B51EC190BFAF7CE
:1057B00042FE53EC1A2BFAF738FE41EC100B6D1C2D
:1057C000B8E70EE0002EA8BF3846BFF628AF94ED2C
:1057D000000B51EC100B81F00041C4E9000178424C
:1057E0001DE7C6F3130040F4801EC6F30A50A0F272
:1057F000F530471100F01F05C5F12000DDF848B075
:1058000008900020069007900520EC467949002D6D
:1058100007EB0002794408BF51F8221009D051F873
:10582000223001EB8201AB404A68089922FA01F16B
:105830001943A1FB0E26A1FB0B131A449A4234BF55
:105840000123002303EB06080CEB8003D3E901A638
:105850000E448E4234BF0121002192448A4411B18A
:10586000924502D903E0924501D2012100E00021D6
:10587000C3E901A641444CF82010011EA0F101002B
:10588000C4DC029800F10050850F0298DDE903673F
:105890008000DDF81480FBF760F841EC1A0B30460D
:1058A000FBF7A6F89FED541B53EC112BFAF7C3FD41
:1058B00041EC1B0B3846FBF79BF89FED511B53EC5B
:1058C000112BFAF7B8FD41EC180B4046FBF790F8A6
:1058D0009FED4D1B53EC112BFAF7ADFD41EC190B6D
:1058E00051EC180B53EC192BFAF7FEFC53EC1B2B65
:1058F000FAF7FAFC53EC1A2BFAF7F6FCCDE908019B
:10590000002008909DED080B53EC1A2B51EC100B66
:10591000FAF78BFD53EC1B2BFAF787FD53EC182B92
:10592000FAF783FD53EC192BFAF782FD9FED381B34
:1059300053EC112BFAF77FFD9FED370B41EC180B61
:1059400053EC102B9DED080B51EC100BFAF773FD87
:1059500053EC182BFAF7C8FC9FED310B41EC180BF8
:1059600053EC102B9DED080B51EC100BFAF763FD77
:1059700053EC182BFAF7B8FC41EC100B139810F00D
:10598000004F06D06D4251EC100B81F0004141EC0C
:10599000100B284684ED000B41E6000000000000DB
:1059A0000000000000000000FB21E93F7CD902401C
:1059B00000004054FB21F93F3163621A61B4D03DCD
:1059C000FB21F93F000000000000601A61B4D03DE7
:1059D0007370032E8A19A33BFB213941000000009C
:1059E00083C8C96D305FE43F000000000000E03F65
:1059F000DA22000028220000000000000000103E13
:105A0000000000000000103C000000000000103A00
:105A1000182D4454FB21F93D3326A611460B113CA9
:105A200000000054FB21F93D10B52DED040B2DEDC8
:105A3000088B82B0B0EE419AF0EE619A0B9820F09C
:105A400000449FED4BABB4F1795F11DA9DED0A0B89
:105A500051EC100BFAF7D9FF002801BFB0EE4A0A4B
:105A6000F0EE6A0A02B0BDEC088B04BF04B010BDB2
:105A70009DED0A0B53EC102B51EC100BFAF7DBFCED
:105A800041EC180B3C480621B0EE480AF0EE680ADB
:105A9000784400F081F853EC182B51EC100BFAF716
:105AA000CAFC9DED0A0B41EC1B0B53EC192B51EC7E
:105AB000100BFAF7C0FC41EC190B53EC1B2B51EC0B
:105AC000180BFAF7B8FC53EC192BFAF7AEFC9FED64
:105AD0002C0B41EC190B53EC102B51EC180BFAF773
