:020000040800F2
:10000000189E00207D02000849330008C92D000811
:100010001D330008E50A0008FD410008000000004B
:10002000000000000000000000000000C101000806
:10003000E10F000800000000150200083539000833
:10004000970200089702000897020008970200082C
:10005000970200089702000897020008970200081C
:10006000970200089702000897020008970200080C
:10007000010F000897020008970200089702000885
:100080000D0F0008190F000897020008F50A000874
:10009000E90A000897020008970200089702000882
:1000A00097020008970200089702000897020008CC
:1000B00097020008313A00089702000897020008EA
:1000C00097020008970200089702000897020008AC
:1000D0009702000897020008A1410008E5410008C6
:1000E000970200089702000897020008970200088C
:1000F000970200089702000897020008970200087C
:10010000970200089702000897020008970200086B
:100110009702000897020008693A00089702000851
:1001200097020008250F0008310F00089702000809
:100130009702000897020008970200080D0B0008BC
:10014000010B0008970200089702000897020008B8
:10015000970200089702000897020008F141000882
:10016000970200089702000897020008970200080B
:10017000970200089702000897020008000000009C
:100180009702000897020008D53C00089702000873
:1001900097020008970200089702000897020008DB
:1001A000000000000000000097020008DFF80CD0FB
:1001B00000F0FCFB00480047D5650008189E0020B1
:1001C0002B4B19680868B0E8F04F80F30988BFF33B
:1001D0006F8F4FF0000080F311887047000000001F
:1001E00006480068006880F3088862B661B6BFF30D
:1001F0004F8FBFF36F8F00DF00BF00BF08ED00E03F
:10020000DFF80C00016841F470010160704700BF25
:1002100088ED00E0EFF30980BFF36F8F144B1A688D
:100220001EF0100F08BF20ED108A20E9F04F10607B
:1002300008B44FF0500080F31188BFF34F8FBFF325
:100240006F8F07F095F84FF0000080F3118808BC1D
:1002500019680868B0E8F04F1EF0100F08BFB0EC46
:10026000108A80F30988BFF36F8F704700BF00BF0B
:1002700008000020EFF30580704700000648804723
:1002800006480047FEE7FEE7FEE7FEE7FEE7FEE77B
:10029000FEE7FEE7FEE7FEE7DD390008AD010008F6
:1002A00040EA01039B0703D009E008C9121F08C0F8
:1002B000042AFAD203E011F8013B00F8013B521E78
:1002C000F9D27047D2B201E000F8012B491EFBD2EF
:1002D00070470022F6E710B513460A460446194651
:1002E000FFF7F0FF204610BD2DE9FE4F804681EA62
:1002F0000300C00F0C46009021F0004123F00045A0
:10030000B8EB0200A94105D24046214690461C4662
:100310000B46024623F00040104347D0270DC7F399
:100320000A00C3F30A510290401A019040286BDA88
:10033000C3F3130040F4801B0098924620B10023C1
:10034000D2EB030A63EB0B0B01985946C0F1400254
:10035000504600F0A2F906460D4650465946019A0D
:1003600000F0AAF910EB08006141002487EA11525D
:1003700084EAE7731A4340D0009A62B3019A012AD3
:100380004FEA075215DC001B61EB02014FF00042FF
:1003900002EA0752CDE90042001C41F580113246C5
:1003A0002B4600F0E1F903B0BDE8F08F404621464E
:1003B000F9E7001B61EB0201001C41F580130018F6
:1003C0005B412018A2F5001747EB030140EAD57006
:1003D000B6196D4111E06D084FEA360645EAC07561
:1003E0004FEA0752001B61EB0201001C41F580112E
:1003F00049084FEA30000019514132462B4603B0FC
:10040000BDE8F04F00F0A1B90098012240000023A0
:10041000D0EB020263EBE073009821464FEAE074F0
:10042000B8EB000061EB0401E9E783F000435BE710
:1004300081F0004158E72DE9FE4F81EA030404F002
:10044000004421F0004100944FF0000B23F00043E2
:1004500050EA01045ED052EA03045BD0C3F30A54AD
:10046000C1F30A552C44A4F2F3340194A0FB0254C6
:10047000C1F3130141F48011C3F3130343F4801358
:1004800001FB024400FB034E840A970A44EA8154AC
:1004900047EA8357A4FB076802958D0A05FB078589
:1004A0004FEA932C04FB0C542705029D4FEA065893
:1004B00047EA1637B5EB08056EEB070C870E920E70
:1004C00047EA811742EA8312A7FB0201B6EB0B0150
:1004D00064EB00042B0D43EA0C335E1844EB1C5014
:1004E000DA465146E7FB0201C5F313044FEA0B332A
:1004F00043EA14534FEA0432019C43EA0603A4F191
:100500000C040294009CCDE900B400F02DF903B076
:10051000BDE8F08F00200146F9E72DE9F04D81EAB2
:10052000030404F0004B21F0004514464FF0000A8C
:1005300023F0004150EA050220D054EA01021DD008
:10054000C5F30A570246C5F31303C1F31300C1F301
:100550000A5640F4801543F48013A7EB0608101BDD
:10056000D64608F2FD3873EB050002D308F1010806
:1005700001E092185B41B8F1000F03DA0020014658
:10058000BDE8F08D00204FF48011064684460EE051
:10059000171B73EB050705D3121B63EB050306431B
:1005A0004CEA010C49084FEA300092185B4150EACE
:1005B0000107EDD152EA030012D082EA040083EA77
:1005C0000501084305D0101BAB4106D201220023D0
:1005D00006E000224FF0004302E06FF001025310EA
:1005E0001AEB06004CEB085110EB0A0041EB0B0133
:1005F000BDE8F04D00F0A9B80EB540F233420292CA
:100600000022CDE90022134600F0AEF803B000BD91
:1006100000F0004230F000400AD0C10D01F56071D9
:10062000C0F3160042EA0151C20840071143704767
:1006300000200146704701F0004330B421F0004132
:1006400050EA010206D00A0DA2F56072C1F313014F
:10065000002A02DC30BC00207047440F44EAC10489
:10066000C100E01830BC00EBC25000F037B830B524
:100670000B46014600202022012409E021FA02F560
:100680009D4205D303FA02F5491B04FA02F52844FA
:10069000151EA2F10102F1DC30BD202A04DB203A54
:1006A00000FA02F1002070479140C2F1200320FAC5
:1006B00003F3194390407047202A06DBCB17203AFA
:1006C00041FA02F043EAE07306E041FA02F3D04057
:1006D000C2F1200291400843194670470029A8BF83
:1006E0007047401C490008BF20F00100704710B45B
:1006F000B0FA80FC00FA0CF050EA010404BF10BC10
:10070000704749B1CCF1200421FA04F411FA0CF13C
:1007100018BF012121430843A3EB0C01CB1D4FEA75
:1007200000614FEA102042BF002010BC704700EB70
:10073000C35010440029A4BF10BC7047401C49009E
:1007400008BF20F0010010BC704710B5141E73F1F3
:10075000000408DA401C41F1000192185B411A4381
:1007600001D120F0010010BD2DE9F04D92469B46CD
:1007700011B1B1FA81F202E0B0FA80F22032904673
:10078000FFF78BFF04460F4640EA0A0041EA0B01DF
:1007900053465A46084313D0114653EA010019D074
:1007A000C8F14002504600F013F905460E46504687
:1007B00059464246FFF771FF084305D0012004E087
:1007C00020463946BDE8F08D0020054346EAE07634
:1007D0002C4337430A986305E40AA0EB0800002283
:1007E000FD0A44EA47540A3002D500200146E9E7F1
:1007F000010510196941DDE9084500196941BDE8A5
:10080000F04DA2E770B521F0004303430CD0C1F3D3
:100810000A550024D5EB040564EB0403D617AD1A82
:10082000B34102DB0020014670BD201841EB0251AC
:1008300070BD2DE9F04D00231A461B1A8A4103DBD7
:1008400000200146BDE8F08DC1F30A52C1F3130147
:1008500041F480154FF0000BD10702D100186D4113
:10086000521E0027044640F2FF11384601EB620A8F
:100870003E468046024600204FF4801100F0A8F862
:10088000C2197141BB1846EB0100B4EB030C75EBC8
:10089000000C04D3E41A65EB000517460E46241934
:1008A00008F101006D4180463428E3DDF91946EB7B
:1008B0000600091BA84103D24FF0FF32134601E0A6
:1008C000002213461BEB070046EB0A51BDE8F04D32
:1008D000FFF73BBF2DE9FE4FC3F30A5701F0004578
:1008E0000024C1F30A56C3F31303C1F3130143F405
:1008F000801312EB020AA64641F48011009543EBE7
:10090000030CA7F1010B16E0B0EB0A0061EB0C0140
:10091000071E71F1000707DA4FF00008D0EB08005E
:1009200085F0004568EB0101171A73EB0107EBD363
:10093000761E001849415E45F6DA50EA010209D0F8
:10094000CDE900E5002213460296FFF70DFF03B044
:10095000BDE8F08F20460099F9E70EB5C10F80EA97
:10096000E0700844CA07002140F233438DE80E00CE
:100970000A460B46FFF7F8FE03B000BD30B5041E73
:1009800071F1000404DB4FF00044404264EB0101CC
:10099000141E73F1000405DB1C464FF00043524265
:1009A00063EB0403994208BF904230BD064C074DEB
:1009B00006E0E06840F0010394E80700984710342F
:1009C000AC42F6D3FFF7F6FB307D0008507D0008FF
:1009D000202A04DB203A21FA02F00021704721FA94
:1009E00002F3D040C2F120029140084319467047FB
:1009F0000EB540F2334102910021CDE900110A46C3
:100A00000B46FFF7B1FE03B000BD70B5C1F30A524B
:100A100001F000450024C1F3130140F2FF3341F41B
:100A200080119A4201DA002070BD40F233439A42AD
:100A3000A2F2334203DC5242FFF7CAFF00E09040CB
:100A40002C43F1D0404270BD70B58C1810F8015B9A
:100A500015F0070301D110F8013B2A1106D110F857
:100A6000012B03E010F8016B01F8016B5B1EF9D15B
:100A70002B0705D40023521E0DD401F8013BFAE7E1
:100A800010F8013BCB1A921C03E013F8015B01F84C
:100A9000015B521EF9D5A142D8D3002070BD0000E1
:100AA00070B588B020220E496846FFF7F9FB082090
:100AB00000246D4600EBD0760DE000BF35F8340021
:100AC000C82180B205F0D6FB05EBC4004068800069
:100AD00006F032FB641CB4EB660FEFDB08B070BDB0
:100AE00058780008FEE70000014800F0F3BA000063
:100AF000908F0020014800F0EDBA0000908F002098
:100B0000014800F0E7BA0000D08F0020014800F053
:100B1000E1BA0000D08F002010B54FF4D8720368FE
:100B200002EB01129B5813F00404436B9C600468B1
:100B3000436BA45854D0E4085C6003689A58436B34
:100B400002F00202DA604FF4DA72036802EB01127B
:100B50009B58446B03F00F03236103689A58436B5F
:100B6000C2F30722DA614FF4DC72036802EB011270
:100B70009B58446B237503689B58446B1B0A637531
:100B800003689B58446B1B0CA37503689A58436B0E
:100B9000120EDA754FF4DE72036802EB01129B58F5
:100BA000446B237603689B58446B1B0A6376036887
:100BB0009B58446B1B0CA37603689A58436B120E28
:100BC000DA762022002901680DD00A6101684A699D
:100BD00022F010024A6190F83810222909D021E051
:100BE000640D1C60A9E7CA6001684A6922F002022C
:100BF000F0E701684A6922F480724A6101684A6933
:100C000022F400724A6101684A6922F480624A61F2
:100C100001684A6922F400624A6101684A6922F463
:100C200000424A6190F83810322907D05FF0010184
:100C300080F8381000F066FC002010BD1221F7E7A4
:100C400010B501684A6922F001024A6190F8381033
:100C5000122918D101684A6922F480724A61016838
:100C60004A6922F400724A6101684A6922F480628A
:100C70004A6101684A6922F400624A6101684A696E
:100C800022F400424A6190F83810322906D001213E
:100C900080F8381000F038FD002010BD2221F7E761
:100CA00070B5734C2DED0E8BF0EE408A2069FFF786
:100CB000AFFC41EC100B9FED6FABB0EE4A1AF0EEBB
:100CC0006A1A03F0CDFEB0EE402AF0EE602AB0EED4
:100CD000429AF0EE629AE068FFF79AFC41EC100B42
:100CE000B0EE4A1AF0EE6A1A03F0BAFE53EC192B72
:100CF00051EC100BFFF7F8FA41EC100B04F03CFD3F
:100D000051EC100BFFF797FC08EE100A5B4918EE48
:100D1000100A08445A49884203D35A48006806F02A
:100D2000C5FAD4ED030A80EE880A10EE100AFFF728
:100D30006FFC41EC100B03F05FFC9FED53DB51ECBB
:100D4000100B53EC1D2BFFF776FB9FED51CB53ECB3
:100D50001C2BFFF7E2FBFFF76EFCB3EE040A05461F
:100D600028EE000A10EE100AFFF752FCB0EE4AEA35
:100D7000F0EE6AEA41EC190BB0EE4E1AF0EE6E1A84
:100D80009FED450B03F06CFEB0EE40BAF0EE60BA9A
:100D9000B0EE4E1AF0EE6E1A9FED410B03F060FEBE
:100DA000B0EE40AAF0EE60AA18EE100AFFF730FC91
:100DB00041EC100BB0EE4E1AF0EE6E1A03F050FE3E
:100DC000B0EE401AF0EE601A53EC1A2B51EC110BF6
:100DD000FFF78AFA53EC1B2BFFF727FB53EC192B79
:100DE000FFF79BFB41EC100B03F05AFA53EC1D2B61
:100DF00051EC100BFFF71FFB53EC1C2BFFF78DFB87
:100E000041EC190B2846FFF703FC53EC192BFFF7B5
:100E10000FFBFFF710FC08EE100A2846FFF7F8FB5F
:100E200053EC192BFFF760FAFFF705FC00EE100AF0
:100E300018EE900ADFED1C0AB0F17E5F0FD018EEBD
:100E4000900A10F1814F07D138EE601A30EE600A37
:100E500084ED051A84ED060ABDEC0E8B70BD38EEEC
:100E6000601A30EE600A84ED061A84ED050AF3E795
:100E70009800002000000000000000403333E3BE73
:100E80009A99D10080000020000000000080664098
:100E900000000060FB210940000000000000344019
:100EA00000000000000024400000B44210B5002003
:100EB00002F0AEFB012002F0ABFB022002F0A8FB27
:100EC000BDE81040032002F0A3BB70B52DED028BEE
:100ED00082B00DF1200CB0EE418A9CE87000CDE9A3
:100EE000004502F053FCB0EE480AFFF7D9FE02B00D
:100EF0003046BDEC028BBDE8704002F089BB0000BB
:100F0000014800F015BC0000DC8C0020014800F016
:100F10000FBC00003C8D0020014800F009BC00001F
:100F20009C8E0020014800F003BC00009C8D002036
:100F3000014800F0FDBB00003C8E00200168182332
:100F4000CAB2103AB2FBF3F2054B6FF30901032A60
:100F50009B5CC36500D9091D816508467047000088
:100F60004078000810B5014600208B698A6A4FF06E
:100F7000C07453B1B3F5005F15D072B1012A0CD023
:100F8000022A0AD0032A09D104E01AB1012A06D0A4
:100F9000022A03D1C96AC90100D5012010BDC96A5E
:100FA000A142FAD010BD002AF7D0012AF2D0022ABD
:100FB000F3D0032AF3D010BD30B50468256825F4BA
:100FC00080252560046863608368402B036803D034
:100FD00099600068C26030BD9A600068C16030BD31
:100FE000704701F0F3FEFCE7FEE70000F0B50A7D74
:100FF00001209040344A136843F0010313601368E2
:1010000023F47C53136013684C6A43EA042313608F
:101010002D4B1C331C6884431C602B4D2B4CCE691C
:101020000C35A6B92E6886432E608F894E6867F30B
:101030001F464F6904EBC707C7F840660F890E6863
:1010400067F31F464F6904EBC707C7F84466CE69CC
:10105000012E14D12E6806432E600E884D6866F36B
:101060001F454E6904EBC606C6F840560E89CD688A
:1010700066F31F454E6904EBC604C4F84456124C8F
:101080008D69241D002D256806D0054325600E4C72
:101090000D69143415B104E08543F7E725688543ED
:1010A00025600D69012D02D1256805432560096A77
:1010B000012902D1196801431960106820F001006C
:1010C00010600020F0BD000000660040006000409D
:1010D0007047000010B5044600684169C943C9075C
:1010E00014D182685849914368D000218368574AD7
:1010F0009A4365D0002283685548984362D0002007
:101100001143014302D02046FFF79AFD2068C168D1
:10111000406911F0030FC0F3400004D018B1002162
:101120002046FFF7F9FC21680869496910F0030FB0
:10113000C1F3001104D019B101212046FFF7ECFCE6
:1011400020688169426911F0010FC2F300234269EE
:10115000C2F3C03205D023B11AB1E16B41F00101F5
:10116000E1638169C1F3400341694269C1F34021F0
:10117000C2F3C0322BB121B11AB1E16B41F00201CF
:10118000E16381694269C1F38001C2F3802342694E
:10119000C2F3C03229B123B11AB1E16B41F00401AD
:1011A000E163816911F0700F0ED00021426943693B
:1011B000C2F3C022C3F3C03341B127E0012195E758
:1011C000012298E701209BE70121EFE7F2B1EBB1A3
:1011D000816901F07001402929D006DC102909D06D
:1011E00020290BD030290DD11DE0502923D06029B2
:1011F00008D124E0E16B41F0080102E0E16B41F02D
:101200001001E163816921F070018161E06B0028C8
:1012100008D0216804204860012084F83800204666
:10122000FFF756FF10BDE16B41F02001E9E7E16BEC
:1012300041F04001E5E7E16B41F08001E1E7E16B5E
:1012400041F48071DDE700000300000400030008A2
:10125000000003102DE9F041040004D094F8380098
:10126000002518B107E00120BDE8F08184F839506D
:10127000204600F093F8022084F8380020680168C6
:1012800021F0020101602068016841F00101016064
:1012900000F0B2FC0746032605E000BF00F0ACFCFE
:1012A000C01B0A2863D820684068C007F6D02068B1
:1012B0004168C90768D0A169012901683FD021F0C0
:1012C00080010160E0690128206801683AD021F0BE
:1012D00040010160206A01282068016835D021F0B2
:1012E00020010160606A01282068016830D021F087
:1012F00010010160A06A0128206801682BD021F04C
:1013000008010160E06A01282068016826D021F008
:1013100004010160D4E902010843D4E90412114335
:1013200008436168491E08432168C8612068016854
:1013300021F00101016000F05FFC07461CE041F074
:101340008001BEE741F04001C3E741F02001C8E75A
:1013500041F01001CDE741F00801D2E741F004016E
:10136000D7E700BF00F048FCC01B0A2804D904F8E6
:10137000386F0320657077E720684068C007F1D1B7
:1013800020684068C00703D0042084F838006AE76A
:10139000E563012084F83800002065E7F0B5324BA2
:1013A0000768DFF8C0C018680322022409252F4906
:1013B0000026401C87B0674521D11860012807D15D
:1013C000086840F000700860086800F00070059040
:1013D0008DE85400CDE903256946254800F020FB3F
:1013E00000220521132000F0A1FC132000F092FC44
:1013F00000220521142000F099FC14202EE0DFF8D3
:1014000074C067452CD10F6847F080670F600F6884
:10141000012807F080670597186007D1086840F039
:1014200000700860086800F0007005904FF44050AC
:101430008DE85100CDE9032569460F4800F0F0FA28
:10144000002211463F2000F071FC3F2000F062FCBA
:1014500000221146402000F069FC402000F05AFCB8
:1014600007B0F0BD00640040780000204038024022
:10147000000C0240006800400004024010B590F8E3
:101480003820012A01D0122A39D190F83920012AB6
:1014900035D0012280F8392090F83820122A29D03E
:1014A0005FF0220280F838200022C26303685C6982
:1014B00044F480745C6103685C6944F400745C61AA
:1014C00003685C6944F480645C6103685C6944F4AB
:1014D00000645C6103685C6944F400445C6180F80A
:1014E000392000680029416906D041F010014161AE
:1014F000002010BD3222D5E741F00201F7E70220BB
:1015000010BD000010B50446406B0068A0F2012039
:10151000072818D81249C0B2087000EB400101EB4F
:10152000C001104800EB8100816A4A1C32298262A6
:10153000214602D804F0F2FF01E004F0C5FF214685
:10154000094804F0C1FF09480068416941F00201FF
:10155000416107480068416941F00201416110BDE5
:10156000190300203097002010990020908F002050
:10157000D08F00202DE9F05F0E4601680446886890
:10158000400105D48868000102D48868C00067D58E
:1015900094F8390001280ED0012784F8397094F8A6
:1015A000380022280AD0122084F8380088684001C8
:1015B00006D500250AE00220BDE8F09F3220F3E7BF
:1015C0008868000101D5012500E002254FF4C070B4
:1015D00000EB05100A5802F001020A50216B8A68DC
:1015E000EAB3D4F800C05CF800301343CA68496815
:1015F00042EAC1010B434CF80030216B0A7C02F037
:101600000F020A614FF4C271226801EB05115358B1
:1016100023F00F03535022685358D4F830C0DCF83D
:1016200010C043EA0C035350216B4FF4C47303EB17
:1016300005130A7DD1F8151042EA01212268D15024
:10164000216B4FF4C67303EB05130A7ED1F8191012
:1016500042EA01212268D15021680A5801E00DE0D8
:1016600046E042F001020A5000F0C6FA81464FF00F
:101670000008DFF888A0DFF888B019E02268135866
:10168000D1F80CC0098843EA0C0343EA41511150D8
:10169000B3E7701C0CD02EB100F0AEFAA0EB09003D
:1016A000B04205D9032084F8380084F8398083E7F4
:1016B00095B12068012D816813D012488843002815
:1016C000E7D194F8380032280ED084F8387000BF83
:1016D00084F8398000206FE7206881682AEA0100D9
:1016E000EDE72BEA0100EAE7222084F83800EFE773
:1016F000042084F8380001205EE7000003000004A5
:101700000003000800000310704790F8351002290C
:1017100003D08021416501207047052180F83510F4
:101720000068016821F0010101600020704700009D
:101730002DE9F84304464FF00008CDF800806448D6
:101740004FF41651A56D0068B0FBF1F72E6894F8C0
:101750005C10082000FA01F131420FD021680A68BC
:1017600052070BD50A6822F004020A6094F85C1054
:101770008840A860606D40F00100606594F85C10DE
:1017800054488840304208D021684969090604D588
:10179000A860606D40F0020060654E4894F85C10EF
:1017A000C01C8840304208D021680968890704D5E8
:1017B000A860606D40F00400606594F85C10102033
:1017C0008840304218D021680968090714D5A860FC
:1017D00020680168490304D50068000308D5A16C9E
:1017E00007E00168C90503D4016821F00801016020
:1017F000216C09B12046884794F85C10202088406D
:1018000030424FF0010631D021680968C9062DD554
:10181000A86094F8350005282068016806D04903BF
:1018200047D5006800031DD4616C1CE021F016014F
:1018300001602068416921F080014161206C08B994
:10184000A06C20B12068016821F00801016094F8C3
:101850005C103F208840A86084F8348084F83560AC
:10186000216D1FE0E16B09B120468847606D0028BB
:101870002BD0606DC00714D0052084F83500206897
:10188000016821F0010101600098401C0090B842FD
:1018900003D820680068C007F6D184F8348084F843
:1018A0003560E16C002910D001B02046BDE8F0435E
:1018B00008470168C905D5D4016821F0100101600D
:1018C00084F8348084F83560CCE7BDE8F883000004
:1018D00004000020010080002DE9F041044600F0E2
:1018E0008BF906465CB1002584F83450022084F858
:1018F00035002068016821F0010101600DE0012040
:10190000BDE8F08100F078F9801B052805D920207A
:101910006065032084F83500F2E720680068C0079E
:10192000F0D1226811681F480140D4E9010318432F
:10193000D4E903363343184363691843A369184352
:10194000E3691843236A18430843616A042903D1F1
:10195000D4E90B1319430843106020684069666A94
:1019600020F0070130460E43012704280AD1A06A5F
:1019700006432046FFF7F6FA20B14020606584F860
:101980003570BCE7206846612046FFF7D7FA94F827
:101990005C203F2191408160656584F835700020AE
:1019A000AEE700003F8010F02DE9F0410446866D5F
:1019B00090F83400002501280DD0012084F834006F
:1019C00094F835700020012F07D084F834000225E8
:1019D0002846BDE8F0810220FBE7022784F8357035
:1019E00060652046FFF7E8FA94F85C103F208840D5
:1019F000B0602068016841F016010160206841690B
:101A000041F080014161206C20B12068016841F003
:101A1000080101602068016841F001010160D7E719
:101A20002DE9F84FDFF890B100224FF001084FF098
:101A3000030A4FF00F090BF1040E00BF0B6808FA00
:101A400002F42340A3426ED14D68022D01D0122D25
:101A50000ED1D50800EB850CDCF820505607F70EA8
:101A600009FA07F6B5430E69BE402E43CCF8206054
:101A7000066855000F790AFA05FC07F0030726EA05
:101A80000C06AF40374307604E68012E05D0022E8A
:101A900003D0112E01D0122E0ED18768CE6827EA0E
:101AA0000C07AE403E4386604668A6430C79C4F3FB
:101AB0000014944034434460C4688E6824EA0C04E3
:101AC000AE402643C6604C68E4006FD53B4C2568A9
:101AD00045F480452560246822F0030504F4804421
:101AE0000094374C2E19D6F8084895072F0F09FA9D
:101AF00007F5AC43334DA84201D100252EE0324D0D
:101B0000A84201D1012529E0304DA84201D102258A
:101B100024E02F4DA84201D103251FE02D4DA842FE
:101B200002D104251AE041E02B4DA84201D1052540
:101B300014E02A4DA84201D106250FE0284DA84205
:101B400001D107250AE0274DA84201D1082505E06B
:101B5000254DA84201D1092500E00A25BD402543B5
:101B6000C6F80858DBF800405D464E689C43F60313
:101B700000D51C432C60DEF8004075464E689C433F
:101B8000B60300D51C432C600B4D08352C684E68FD
:101B90009C43F60200D51C432C60074D0C352C6885
:101BA0004E689C43B60200D51C432C60521C102A80
:101BB000FFF444AFBDE8F88F003C014044380240D8
:101BC00000300140000002400004024000080240D2
:101BD000000C0240001002400014024000180240B5
:101BE000001C024000200240002402400AB1816132
:101BF00070470904FBE700000148006870470000D7
:101C00000000002002480168491C01607047000084
:101C1000000000200B4810B5016841F4007101601C
:101C2000016841F480610160016841F480710160E4
:101C3000032000F09BF8002000F006F800F03EF8CA
:101C4000002010BD003C024010B5014688B00022C3
:101C5000362000F06BF8362000F05CF813480024C2
:101C6000016841F010010160006805A900F0100052
:101C70000690684600F090F900F0B4F90C49400075
:101C8000B0FBF1F10C480B4A491E026040F2E7320A
:101C9000C0E90324C0E9011400F008FC10B10120E0
:101CA00008B010BD044800F03BFCF9E740380240A2
:101CB00040420F0000100040FC8E002010B50320B1
:101CC00000F054F8002211466FF00B0000F02EF8DF
:101CD000002211466FF00A0000F028F80022114699
:101CE0006FF0090000F022F800221146501F00F0AA
:101CF0001DF800221146101F00F018F800220F21D5
:101D0000901E00F013F800220F21BDE81040501E75
:101D100000F00CB800F01F02012191404009800042
:101D200000F1E020C0F8001170470000F0B40E4B45
:101D30001B680C46C3F30223C3F10705042D00D929
:101D40000425191D072901D2002300E0DB1E01260E
:101D500006FA05F1491E214099409E40761E164024
:101D60003143F0BC01F0F1BA0CED00E0064900F09F
:101D7000070208684FF6FF03184040EA0220034AB2
:101D800010430860704700000CED00E00000FA0509
:101D90002DE9F8431E48016841F080510160006858
:101DA000012600F080500090300490FAA0F0194F06
:101DB000B0FA80F047F82060FFF71EFF05464FF4A9
:101DC0007A78154C05E000BFFFF716FF401B404531
:101DD00015D86068C003F7D54FF4003090FAA0F032
:101DE000B0FA80F047F82060FFF706FF0546464648
:101DF00008E000BFFFF700FF401BB04202D90320FC
:101E0000BDE8F88360688003F4D50020F8E700009F
:101E10004038024000000E42007000402DE9F047BB
:101E2000DFF8649105460F46D9F8000000F00F0175
:101E3000F8B28046B94208D2014689F80010D9F8B4
:101E4000000000F00F00B84274D128784F4C800792
:101E500005D52068A96820F0F000084320602878A4
:101E6000C00759D049496868083901281AD00228A2
:101E70001BD0032819D00968890700295ADA21687C
:101E800021F0030101432160FFF7B6FE69680646B1
:101E900041F28830012911D002291DD00329824640
:101EA00027D035E009688903E7E709688901E4E795
:101EB000FFF7A2FE811B514501D926E0824620682A
:101EC000C0F381000128F3D126E000BFFFF794FEA4
:101ED000811B514501D918E082462068C0F381007A
:101EE0000228F3D118E000BFFFF786FE811B5145A1
:101EF0000BD82068C0F381000328F5D10CE000BFA7
:101F0000FFF77AFE811B514502D90320BDE8F08717
:101F1000206810F00C0FF3D1D9F80010484601F0FA
:101F20000F01B94208D980F80080006800F00F0066
:101F3000B84201D00120E9E72878400705D520689C
:101F4000E96820F4E050084320602878000706D5AF
:101F50002068296920F4604040EAC100206000F058
:101F600071F82168F02292FAA2F201F0F001B2FABF
:101F700082F2D140064A515CC84006490860002000
:101F8000FFF762FE0020C1E7003C02400838024033
:101F900048780008040000200F2202600C4A1368F1
:101FA00003F003034360136803F0F00383601368D6
:101FB00003F4E053C36012684FF4E05303EAD20223
:101FC00002610448006800F00F00086070470000DC
:101FD00008380240003C0240014800687047000099
:101FE0000400002008480949006809684FF4E052DD
:101FF00092FAA2F201F4E051B2FA82F2D140044A1C
:10200000515CC840704700000400002008380240BE
:102010004878000808480949006809684FF4604298
:1020200092FAA2F201F46041B2FA82F2D140044A7B
:10203000515CC8407047000004000020083802408E
:102040004878000830B51948006810F00C011848AD
:1020500012D0184C04290ED008290DD11349091F9C
:102060000A6802F03F030A68550247F6C07204D5B9
:10207000B4FBF3F003E0204630BDB0FBF3F00B6897
:102080000968134092FAA2F2B2FA82F2D34058439E
:102090004FF4403292FAA2F201F44031B2FA82F2E5
:1020A000D140491C4900B0FBF1F030BD0838024076
:1020B0000024F400001BB7002DE9F84F0446DFF8B8
:1020C000CC820078A8F1040BC007ABF1040537D02F
:1020D000D8F800104046C1F38101012908D00068FA
:1020E000C0F3810002280AD1DBF80000400206D5C7
:1020F0002868800324D56068002878D020E0A349B0
:102100002079891F0870606868B1FFF775FD064681
:1021100005E000BFFFF770FD801B642868D82868C1
:102120008003F7D50CE0FFF767FD064605E000BF2A
:10213000FFF762FD801B6428F0D828688003F7D47D
:102140002078934E80074FF0010A4FF0000742D5E8
:10215000D8F80010404611F00C0F08D00068C0F30A
:10216000810002280AD1DBF80000400206D428686A
:10217000800714D5E068012839D110E0E068D8B1B3
:10218000C6F800A0FFF738FD814605E0FFF734FDF3
:10219000A0EB09000228C1D828688007F6D5286876
:1021A000F82292FAA2F22169B2FA82F220F0F80043
:1021B0009140084328600EE03760FFF71DFD81461F
:1021C00006E000BFFFF718FDA0EB090002280FD8BA
:1021D00028688007F6D42078000728D56D48616903
:1021E000A1B1C0F800A0FFF707FD814608E0CAE0F2
:1021F00079E000BFFFF700FDA0EB0900022872D8CC
:1022000062486C3000688007F4D510E00760FFF783
:10221000F3FC814606E000BFFFF7EEFCA0EB0900EF
:10222000022860D859486C3000688007F4D42078C0
:10223000400749D555483830016841F08051016068
:10224000006800F0805000905348016841F48071AC
:102250000160FFF7D1FC814606E000BFFFF7CCFC30
:10226000A0EB090002283ED84B480068C005F5D510
:10227000DFF81891207A09F1680989F80000A06850
:1022800088B1FFF7B9FC009008E000BFFFF7B4FC8D
:102290000099411A41F2883081426CD8D9F8000087
:1022A0008007F3D510E0FFF7A7FC009008E000BF1F
:1022B000FFF7A2FC0099411A41F2883081425AD8B6
:1022C000D9F800008007F3D4A069E0B3D8F8001073
:1022D000C1F38101022956D00228376604D0FFF7E6
:1022E0008BFC04464AE046E0FFF786FC074604E024
:1022F000FFF782FCC01B02283DD828688001F7D474
:10230000D4E90701084347F6C07292FAA2F2616A63
:10231000B2FA82F29140A26A4FF0FF3303EB52020D
:102320004FF4403393FAA3F3B3FA83F39A40114383
:1023300008434FF0706292FAA2F2E16AB2FA82F2B6
:102340009140084300E01CE0CBF80000C6F860A014
:10235000FFF752FC044604E0FFF74EFC001B022886
:1023600009D828688001F7D50BE000BFFFF744FCCF
:10237000001B022802D90320BDE8F88F28688001DD
:10238000F4D40020F8E70120F6E700000838024006
:1023900000004742800E47420070004070B50400C4
:1023A00005D00025A56294F8510010B106E0012087
:1023B00070BD84F85050204600F030F8022084F8B8
:1023C00051002068016821F040010160D4E9010159
:1023D0000843D4E903121143084361690843218B80
:1023E00001F400710843E1690843216A0843A16AC6
:1023F000084321680860A069042101EA1040616A6D
:102400000843216848602068C16921F40061C16106
:102410006565012084F85100002070BD00B500689A
:102420000E4987B0884217D10D480021026842F456
:1024300080120260006800F4801005904FF4607014
:1024400000900220CDE901010320039005200490B3
:1024500069460448FFF7E4FA07B000BD00500140A8
:1024600044380240001402404FF0E021042808697B
:1024700003D020F004000861704740F00400FAE740
:1024800010B5401EB0F1807F01D3012010BD4FF088
:10249000E02460610F21601700F057FF0020A06169
:1024A00007202061002010BD7047704710B5040060
:1024B00003D094F8390010B107E0012010BD0020CE
:1024C00084F83800204600F00DF8022084F8390026
:1024D000211D206801F0CEFA012084F83900002087
:1024E00010BD000008B500680B49884212D10B48A6
:1024F000016841F0020101600068032200F002005F
:10250000009001211D20FFF711FCBDE808401D20AF
:10251000FFF700BC08BD0000000400404038024046
:102520000168CA6842F00102CA600068016841F0AF
:102530000101016000207047704770B504460068D3
:1025400001694FF00005C943890715D4C168C94323
:10255000890711D4E91E0161012020762068806975
:102560008007204602D0FFF7E7FF04E000F098F86C
:10257000204600F065F9257620680169C9434907BE
:1025800017D4C168C943490713D46FF0040101612E
:10259000022020762068806910F4407F204602D017
:1025A000FFF7CAFF04E000F07BF8204600F048F98E
:1025B000257620680169C943090716D4C168C94353
:1025C000090712D46FF00801016104202076206809
:1025D000C0698007204602D0FFF7AEFF04E000F09C
:1025E0005FF8204600F02CF9257620680169C94380
:1025F000C90617D4C168C943C90613D46FF01001C6
:102600000161082020762068C06910F4407F2046D0
:1026100002D0FFF791FF04E000F042F8204600F0FE
:102620000FF9257620680169C943C90708D1C16837
:10263000C943C90704D1891E0161204600F01EF973
:1026400020680169C943090609D4C168C94309065C
:1026500005D46FF0800101612046FFF725FF206857
:102660000169C943490609D4C168C943490605D46B
:102670006FF040010161204600F018F920680169FF
:10268000C94389060BD4C168C943890607D46FF0D2
:10269000200101612046BDE87040FFF706BF70BD14
:1026A000704770B5044690F838000D4601280DD0EB
:1026B000012684F83860022084F8390042B1042AE7
:1026C00018D0082A2AD00C2A4DD139E0022070BD3A
:1026D000206801F03BFA2068816941F008018161BE
:1026E0002068816921F004018161206881692A697B
:1026F000114311E0206801F055FA2068816941F426
:10270000006181612068816921F4806181612068B4
:1027100081692A6941EA0221816124E0206801F08F
:1027200073FA2068C16941F00801C1612068C1697C
:1027300021F00401C1612068C1692A69114311E0D7
:10274000206801F091FA2068C16941F40061C1611B
:102750002068C16921F48061C1612068C1692A696A
:1027600041EA0221C16184F83960002084F8380010
:1027700070BD10B5040003D094F8390010B107E023
:10278000012010BD002084F83800204600F00CF82D
:10279000022084F83900211D206801F06BF9012026
:1027A00084F83900002010BD70B5056820481F4E20
:1027B0001F49103802220123032486B0B54217D1E5
:1027C0000D6845F040050D60096801F04001059174
:1027D000016841F0800101600068694600F08000F6
:1027E000059040208DE81D0009200490114819E053
:1027F000114EB54218D10D6845F004050D60096809
:1028000001F004010591016841F0080101600068D0
:10281000694600F0080005904FF470408DE81D00F7
:1028200006480492FFF7FCF806B070BD001800409F
:1028300040380240001C024000080040000C0240EA
:102840007047000010B504460068012201F072F9DB
:1028500008492068884202D00749884203D1416C68
:1028600041F4004141642068016841F001010160C8
:10287000002010BD000001400004014008498842CA
:1028800007D10849D1E90023521C43F10003C1E9F3
:10289000002300680449884201D1FFF7B3B97047AB
:1028A000407C002068000020001000407047704706
:1028B00010F8391F407808437047000070B502686F
:1028C00004461068D168536910F00F0F50D003F020
:1028D000010501F4907635435DD0C20705D0CA05E5
:1028E00003D5E26B42F00102E263420705D5DA0745
:1028F00003D0E26B42F00202E263820705D5DA07F9
:1029000003D0E26B42F00402E263020705D5DA0766
:1029100003D0E26B42F00802E263E26B002A33D09C
:10292000800604D5880602D5204601F039FA2068D1
:102930004069E16BC0F38010090700D428B320463A
:1029400001F017FA2068416949061AD5416921F05A
:1029500040014161606BA0B11B490165606BFEF7EE
:10296000D4FE002810D0606B016DBDE870400847B0
:10297000830610D58B060ED52046BDE8704001F0C9
:102980000FBA2046FFF793FF70BD2046FFF78FFF79
:102990000020E06370BD030606D50B0604D5204673
:1029A000BDE8704001F098BB4006F3D54806F1D56C
:1029B000D168204621F04001D160202184F83910EF
:1029C00000F000FA70BD0000E13C000870B50400A2
:1029D00004D094F83900002510B106E0012070BD44
:1029E00084F83850204600F023F8242084F8390079
:1029F0002068C16821F40051C160204601F016FA38
:102A00002068016921F4904101612068416921F049
:102A10002A0141612068C16841F40051C160E56349
:102A2000202084F8390084F83A00002070BD0000AE
:102A30002DE9F047054607685F480024DFF87CC1B0
:102A4000022101220323061586B087422FD1DCF82C
:102A5000000040F40030CCF80000DCF8000000F486
:102A60000030059060208DE80F0007200490694633
:102A70005348FEF7D5FF544F524838607004C7E9F9
:102A80000104C7E903467C61BC61FC613C623846D5
:102A90007C62FEF721FF08B1FEF7A6FA6F63002201
:102AA00011462620BD63FFF741F9262041E0434847
:102AB000DFF8188110384FF008094FF0206A4745B9
:102AC0003CD13E4F3F1DD7F800C04CF0200CC7F85A
:102AD00000C03F6807F020070597076847F04007E8
:102AE0000760006800F0400005904FF484408DE8D6
:102AF0000F0269463648FEF793FF334F354860377B
:102B00003860C7E901A4C7E9034680157C61C7E9BD
:102B100006403C6238467C62FEF7DEFE08B1FEF7F6
:102B200063FA6F63002205214720BD63FFF7FEF8BB
:102B30004720FFF7EFF806B0BDE8F087DFF8988090
:102B40004745F8D1DCF8007047F08047CCF80070BA
:102B5000DCF8007007F080470597076847F010071A
:102B60000760006800F0100005904FF4C0708DE819
:102B70000F0269461948FEF753FF134F1148603F93
:102B80006038E7E8020A402051C70F4847F8144967
:102B90006038BC61FC613C627C62FEF79DFE08B15E
:102BA000FEF722FA2F63002205215220BD63FFF7B2
:102BB000BDF85220BDE7000000440040403802400C
:102BC000000C0240886002403C8D0020001401404F
:102BD00000180240286402400078004000100240C3
:102BE00090F83A30202B1DD1D1B1CAB190F83830CD
:102BF000012B17D081628285C2850021C163222208
:102C000080F83A2080F8381001684A6942F00102E1
:102C10004A610068C16841F49071C160002070474A
:102C2000012070470220704730B500681349884280
:102C30000DD1134841880A0409D400F104024C0460
:102C400012884FF0000306D50A2A01D0438030BD18
:102C500041F400410FE00D2A0BD0C1F30D04094DE2
:102C6000491C89B225F814204180B1F5FA6FEDD2E4
:102C700030BD41F48041418030BD0000004400403F
:102C8000700000207C7C00202DE9F843044690F879
:102C900039001E4617460D46202850D135B32FB3B4
:102CA00094F8380001284AD0012084F838004FF009
:102CB0000008C4F83C80212084F83900FEF79CFF0E
:102CC000A784E78481464FF48057E08C4B46401E32
:102CD000E084A0684FF00002B8424FF08001204627
:102CE000009611D101F029FA00BB02E00120BDE8F5
:102CF000F8832888C0F3080120684160206908B182
:102D00006D1C08E0AD1C06E001F017FA70B92168EF
:102D100015F8010B4860E08C0028D6D14B46002204
:102D200040212046009601F008FA08B10320DEE7B2
:102D3000202084F8390084F838800020D7E702206A
:102D4000D5E7000070B5044690F83900202830D14E
:102D500069B362B394F8380001282AD0012084F8BE
:102D600038002162A284E2840025E563212084F8F2
:102D70003900236B1048D863236B10481864236B09
:102D80000F48D864206B134605652668206B321DFA
:102D9000FEF70AFE21686FF04000086084F83850A2
:102DA0002068416941F080014161002070BD01202F
:102DB00070BD022070BD00003B3D0008693D000869
:102DC000F13C000870477047FEE700002DE9F04134
:102DD000584F594C3888010470D5584E20705848C7
:102DE0003188002563295ED018DC452952D008DCE3
:102DF000A1F1300105292DD2DFE801F03D3F424429
:102E00004600572942D004DC522941D0532921D110
:102E10002FE0612943D062291CD142E0494B1A1DA1
:102E20006D2948D00ADCA1F16401092912D2DFE83A
:102E300001F03C3E40111111114A4D0078294CD04F
:102E400004DC6E293BD0762904D14FE0792950D09B
:102E50007A293FD03CA001F0FBF9424800680168A4
:102E6000C9434906FBD440A001F0F2F900202178C3
:102E700047E00570F1E7012100E002210170ECE775
:102E80000321FBE70421F9E70521F7E70621F5E730
:102E90000721F3E73F48006804F008FADDE708215E
:102EA000ECE70921EAE70A21E8E70B21E6E70C2134
:102EB000E4E70D21E2E74FF47F7002E026E04FF4F3
:102EC000FF601860C9E74FF4A56001E040F63810D4
:102ED0001060C2E71868143001E0186814381860F0
:102EE000126819682CA001F0B3F9B6E71068143025
:102EF00001E0106814381060F2E700BF26F81050A7
:102F0000401C8842FADB3D80BDE8F08160884FF4C8
:102F10007A61401C80B2B0FBF1F2608001FB1200CC
:102F200010B923A001F094F9BDE8F0410A2004F0A3
:102F300003B9000072000020140300207C7C0020F4
:102F400098000020340800400D0A2020556E6B6E5A
:102F50006F776E20636F6D6D616E642020200D0AA7
:102F6000000000005C8C00200D0A2F2A2A2A2A2A41
:102F70002A2A2A2A2A2A2A2ACAD5B5BDC3FCC1EE82
:102F80002A2A2A2A2A2A2A2A2A2A2A2A2A2A2A2AA1
:102F90002F0D0A00800000200D0A204343523120EB
:102FA0002564202043435232202564200D0A00006E
:102FB0000D0A2F2A2A2A2A2A2A2A2A2A2A2A2A2AA9
:102FC0004842555420524F424F434F4E20323031E9
:102FD0003920B5F7CAD4C4A3CABD2A2A2A2A2A2A64
:102FE0002A2A2A2A2A2A2A2A2A2A2F200D0A0000D7
:102FF0000F4810B50D4901600521416000214FF4D3
:1030000000328160C0E903125201C0E905210122AA
:10301000C0E9072141628162C162FEF71BF9002805
:1030200003D0BDE81040FDF7DFBF10BD00640040D5
:10303000908F0020104810B50E49016005214160B5
:1030400000214FF04072C0E902124FF400320261D9
:103050005201C0E905210122C0E9072141628162D4
:10306000C162FEF7F7F8002803D0BDE81040FDF775
:10307000BBBF10BD00680040D08F00201D4808B5C0
:10308000016841F480010160016801F48001009150
:10309000016841F4001101600068002200F4001092
:1030A000009005210C20FEF741FE0C20FEF732FEB9
:1030B000002205211020FEF739FE1020FEF72AFE1F
:1030C000002205211120FEF731FE1120FEF722FE1D
:1030D000002205213920FEF729FE3920FEF71AFECD
:1030E000002205213A20FEF721FEBDE808403A20E3
:1030F000FEF710BE303802402DE9F0474C4886B04C
:103100000024016841F010010160016801F0100124
:103110000591016841F002010160016801F00201BE
:103120000591016841F040010160016801F0400132
:103130000591016841F008010160016801F0080192
:103140000591016841F001010160016801F0010190
:103150000591016841F480710160016801F480719A
:103160000591016841F080010160016801F0800172
:103170000591016841F0200101600068DFF8B4802A
:1031800000F020000590002288214046FEF72EFD29
:10319000012204214046FEF729FDDFF89C904FF400
:1031A0000056002231464846FEF720FDDFF88CA08D
:1031B00044F24007002239465046FEF717FD8C20A6
:1031C00000900125CDE90154694640460394FEF77D
:1031D00027FC022000901A48CDE9010569464046C7
:1031E000FEF71EFC0096CDE901546946484603945B
:1031F000FEF716FC4FF49060CDE9000469461148D3
:103200000294FEF70DFC0097CDE901546946504643
:103210000394FEF705FC0D2000900B48CDE9010456
:1032200069460A48FEF7FCFB06B0BDE8F0870000DF
:1032300030380240001002400018024000140240E2
:1032400000002110000C024000001110000002409C
:10325000104810B50E4901604FF4827141600021A1
:103260008160C1604FF400720161C0E90512302233
:10327000C0E90721416281620A21C162FFF78EF82D
:10328000002803D0BDE81040FDF7AEBE10BD000021
:1032900000500140388F00200C4810B50A490160E9
:1032A0004FF4E1314160002181600C22C160C0E92E
:1032B00004128161C161FFF789FB002803D0BDE8DA
:1032C0001040FDF791BE10BD007800401C8C00201E
:1032D000104810B50E4901604FF4E1314160002102
:1032E00081600C22C160C0E904128161C161FFF7F5
:1032F0006DFB012208490748FFF772FC0548FFF7FC
:1033000065FB002803D0BDE81040FDF76DBE10BD81
:10331000004400405C8C002074000020FEE70000A8
:10332000074803F0AFFA00210548FEF7A7F800218F
:103330000448FEF7A3F800BF03F0BCF9FCE7000067
:10334000908F0020D08F002070470907090E0028B9
:1033500006DA00F00F0000F1E02080F8141D70473D
:1033600000F1E02080F800147047000030B4034CF6
:103370004466034C846630BC03F0A0BBBD6A000801
:10338000CB6A0008844E2DED028BA6F1FC048EB0B2
:10339000A6F1E00704F500789FED808A25781822D1
:1033A00005EB450006EBC00108A8FCF779FF07EB29
:1033B00005100E2D90EC040AF0D2DFE805F007149A
:1033C000252E41546573657384A4C7D284ED038AA6
:1033D0009FED730A84ED040AB7EE000AFDF760FC66
:1033E000FDF764FDDAE7B0EE482ADDE90C01F7EEFF
:1033F000005AB7EE005AF7EE004AB7EE004AF0EE78
:10340000423AB0EE423A2BE0DDE90C01F7EE005A09
:10341000B7EE005AF7EE004AABE0DDE90C01F0EE42
:10342000482AF7EE005AB7EE005AF7EE004AB7EE18
:10343000004AF0EE623AB6EE003AB6EE002AA2E09A
:10344000DDE90C01F7EE005AB7EE005AF7EE004A3C
:10345000B7EE004AF6EE003AB6EE003AB0EE482A71
:10346000F0EE422A8FE0DDE90C01F7EE005AB7EEEC
:10347000005AF7EE004AB7EE004ADFED4A3AB6EEE0
:10348000003ADFED492A0AE0DDE90C01F7EE005AC7
:10349000B7EE005AF7EE004AB7EE004A0CE0B0EE85
:1034A000482A70E0DDE90C01FFEE005ABFEE005A39
:1034B000FFEE004ABFEE004AF5EE003AB6EE083ADB
:1034C000F6EE002AEBE71822384902A8FCF7E8FEDE
:1034D0004046F7EE003AD0E91712CDE9001250301D
:1034E000B7EE003A90E80E00F7EE002AB7EE002A99
:1034F000F5EE001AB6EE081AF6EE000AB0EE480A2B
:10350000D8F84C001FE029491822183902A8FCF706
:10351000C7FE4046F7EE003AD0E91D12CDE9001291
:103520006830B7EE003A90E80E00F7EE002AB7EEEA
:10353000002AF5EE001AB6EE081AF6EE000AB0EE12
:10354000480AD8F8640002F045FF27E7DDE90C01DE
:10355000F7EE005ABFEE005AF7EE004ABFEE004AFF
:1035600009E0DDE90C01FFEE005AB7EE005AFFEE6C
:10357000004AB7EE004AB0EE482AB6EE003AF0EE46
:10358000423AF6EE002A0DF1200CCDE900019CE84C
:103590000F0002F0A9FE01E79401002000000000E6
:1035A00067908A419A99193FCDCCCC3DFC0200200E
:1035B00070B50546154A1448002482E833001046C9
:1035C0001461FFF7D6F8114860263C306D0806609C
:1035D000C0E90154014600223C38FFF762F800219F
:1035E0000A48FFF72FF909480422583001460660BF
:1035F000C0E901545838FFF754F8BDE87040042181
:103600000248FFF71FB9000000080040A099002001
:1036100070B5514C05465149D4ED050A94ED060AA2
:1036200030EE801A11EE100A884216DC11EE100AF4
:103630004B49884211D810EE901A4A4881420CDC5E
:1036400010EE902A48498A4207D810EE102A82428A
:1036500003DC10EE100A884203D94448006803F0E6
:1036600025FE9FED431ADFED431A9FED430ADFED80
:10367000430A434945B19FED432A012D1DD0022D38
:1036800034D0032D4BD062E094ED052A62EE012A7E
:1036900082EEA12A22EE002AC2EE202AC1ED012AE2
:1036A00094ED062A22EE011A81EE212A22EE000A6A
:1036B00080EE201A81ED001A49E0D4ED051A61EE82
:1036C000812AC2EE821A61EE801AC1EEA02AC1EDF3
:1036D000022AD4ED061A21EE811AC1EE021A21EE59
:1036E000800A80EE201A81ED031A30E094ED052A5D
:1036F00062EE012A82EEA12A22EE002AC2EE202AE0
:10370000C1ED042A94ED062A22EE011A81EE212A47
:1037100022EE000A80EE201A81ED051A17E0D4EDA2
:10372000051A61EE812AC2EE821A61EE801AC1EE9C
:10373000A02AC1ED062AD4ED061A21EE811AC1EEA7
:10374000021A21EE800A80EE201A81ED071A0E4936
:103750000120087070BD0000980000200000334375
:10376000000033C300001643000016C38000002091
:103770000070604500003BC300F8FF450000B44303
:103780003090002000003B43180300200FB42DEDC3
:10379000020B70B5614C2DED0A8B94ED021ADDED34
:1037A000151A139E30EE412A94ED011A109D9DEDDD
:1037B00012CA01EE821A9DED148ADDED118A84EDA4
:1037C000011A84ED020A31EE200A10EE100AFCF70D
:1037D0001FFF41EC100B9FED529BB0EE491AF0EE2B
:1037E000691A01F0B9F851EC100BFCF724FF0AEE4E
:1037F000100A9FED4DBBDFED4EAAB4EEC8AAF1EE64
:1038000010FA36D818EE900AFCF702FF53EC1B2B87
:10381000FCF711FE8AEE080A41EC190B20EE280A8B
:1038200010EE100AFCF7F4FE53EC192BFCF7FDFD2B
:10383000FCF701FFE0602846FCF7EAFE6AEE2A0A80
:1038400041EC190B80EE880A10EE100AFCF7E0FE3E
:1038500041EC100B01F02CFFB0EE408AB1EE4C0AA7
:10386000F0EE608A10EE100AFCF7D2FE53EC182B33
:1038700046E018EE100AFCF7CBFE53EC192BFCF7D0
:10388000D7FD3AEE480A41EC190B10EE100AFCF78E
:10389000BFFE53EC192BFCF740FEFCF7CCFE08EE04
:1038A000100A18EE900AFCF7B3FE53EC1B2BFCF742
:1038B000C2FD28EE680A41EC190B10EE100AFCF765
:1038C000A7FE53EC192BFCF70FFDFCF7B4FEE060EC
:1038D0002846FCF79DFE28EE2A0A41EC190B10EE53
:1038E000100AFCF795FE41EC100B01F0E1FEB0EE82
:1038F000408AF0EE608A3046FCF78AFE53EC182BC3
:10390000FCF799FD53EC192BFCF7EEFCFCF793FE4A
:103910002061BDEC0A8B70BC5DF81CFB9800002098
:10392000000000000000F03F000000000000E03F49
:10393000DB0F494002F0D6BF30B5264893B00025D2
:10394000016841F080510160006800F080501190E2
:103950002148016841F4404101600068022400F4FC
:10396000404011900120009001908005CDE9064073
:1039700006200890B420CDE9090404200B90684685
:10398000FEF79AFB00B1FEE7FEF702FA00B1FEE790
:103990000CA90F2081E831004FF4A0500F904FF494
:1039A0008050109005210CA8FEF738FA00B1FEE710
:1039B000FEF712FB4FF47A71B0FBF1F0FEF760FDF9
:1039C0000420FEF751FD00220F21501EFEF7AEF934
:1039D00013B030BD4038024000700040104801680C
:1039E00041F4700101600F48016841F0010101607C
:1039F0000C4A00210832116002680B4B1A40026029
:103A0000031D0A4A1A60026822F4802202600548F7
:103A10000C30016002495806803908607047000088
:103A200088ED00E000380240FFFFF6FE1030002471
:103A30000148FEF782BD0000407C0020094A10B515
:103A4000074BC2E900310021C2E9021010461161A2
:103A5000FEF72CFDBDE810400248FEF761BD0000F6
:103A600000040040407C00200148FEF766BD0000D5
:103A7000FC8E0020F0B50268234B244D244E254FC8
:103A8000254C4FF0804C984209D0604507D0A842A1
:103A900005D0B04203D0B84201D0A04204D122F0F8
:103AA000700E4A6842EA0E0298421BD0604519D057
:103AB000A84217D0B04215D0B84213D0A04211D0BE
:103AC000164DA8420ED0164DA8420BD0154DA84257
:103AD00008D0154DA84205D0144DA84202D0144D6F
:103AE000A84203D122F44075CA682A4302608A685A
:103AF000C2620A688262984201D0A04201D109697B
:103B0000016301214161F0BD00000140000400405B
:103B100000080040000C004000040140004001404B
:103B2000004401400048014000180040001C0040D3
:103B30000020004010B50123046A8B409C430462BE
:103B4000036A8A401343036210BD000030B5026A65
:103B500022F001020262026A436884690D6824F05F
:103B60007304254322F002048A6822430B4CA042CE
:103B700002D00B4CA0420BD122F00804CA6823F4F7
:103B8000407322434C6922F004021C438B69234397
:103B90004360856149684163026230BD00000140B5
:103BA0000004014030B5026A22F010020262026A8B
:103BB000436884690D6824F4E64444EA05248D686A
:103BC00022F0200242EA05120D4DA84202D00D4D0E
:103BD000A8420ED1CD6822F0800242EA05124D695A
:103BE00023F4406343EA85038D6922F0400243EAEF
:103BF00085034360846149688163026230BD0000CF
:103C0000000001400004014030B5026A22F48072D5
:103C10000262036A4268C46923F4007324F07305E6
:103C20000C682C438D6843EA05230D4DA84202D051
:103C30000C4DA8420ED1CD6823F4006343EA05235E
:103C40004D6922F4405242EA05128D6923F48063E3
:103C500042EA05124260C4614968C163036230BD33
:103C6000000001400004014030B5026A22F4805295
:103C70000262046A4268C3690D6823F4E64343EABA
:103C800005238D6824F4005444EA0534084DA84205
:103C900002D0084DA84204D14D6922F4804242EA84
:103CA00085124260C36149680164046230BD00004E
:103CB0000000014000040140054D00244FF4FA7655
:103CC0002C806C80AC8030460A3403F035FAF7E77C
:103CD0001A0300200148FEF7F1BD00001C8C0020F3
:103CE00010B5806B0021C185C184FEF7E0FD10BDD9
:103CF00070B5846B2068406994F83910C0F3C01027
:103D00000025212904D118B1E584204600F03FF8B0
:103D10002068406994F83A10C0F38010222904D139
:103D200018B1E585204600F024F8E06B40F0100063
:103D3000E0632046FEF7BBFD70BD10B50146806B09
:103D400009680968C9050CD40021C18401684A6961
:103D500022F080024A610068C16841F04001C16000
:103D600010BDFFF72FF810BD10B5806BFFF72BF8D3
:103D700010BD0168CA6822F49072CA6001684A697D
:103D800022F001024A61202180F83A107047016850
:103D9000CA6822F0C002CA60202180F8391070473A
:103DA00010B590F83A10222901D0022010BD816888
:103DB000B1F5805F11D00169002901681FD0496801
:103DC00001F07F03816A4A1C82620B70C18D491E1B
:103DD0000904090CC18518D026E00269816A002A0D
:103DE0000268526805D0D2B20A80816A491C816299
:103DF000ECE7C2F308020A80816A891CF7E74A6887
:103E0000816A4B1C83620A70E0E70168CA6822F489
:103E10009072CA6001684A6922F001024A61202159
:103E200080F83A10FEF700FF002010BD2DE9F041A8
:103E300004460068016921F44052E16811430161C0
:103E40002168C86849F20C6290432369A268E56959
:103E50001A4363692B431A430243CA6021684869C5
:103E600020F44072A06910434861E1696425B1F50E
:103E7000004F9748974A21684FF032083FD091424F
:103E800001D081427CD1FEF7C5F800EBC00101EB07
:103E9000001061688900B0FBF1F6FEF7BBF800EB9B
:103EA000C00101EB001061688900B0FBF1F0B0FBCC
:103EB000F5F06FF01801484306EB800108EB0110A4
:103EC000B0FBF5F000F0F006FEF7A4F800EBC0013F
:103ED00001EB001061688900B0FBF1F0B0FBF5F078
:103EE00006EB0016FEF796F800EBC00101EB0010A0
:103EF00061688900B0FBF1F7FEF78CF8D2E09142DF
:103F000001D081423DD1FEF785F800EBC00101EB05
:103F1000001061684900B0FBF1F0B0FBF5F006015C
:103F2000FEF778F800EBC00101EB00106168490072
:103F3000B0FBF1F7FEF76EF800EBC00101EB0010EB
:103F400061684900B0FBF1F0B0FBF5F06FF01801CB
:103F5000484307EB800108EBC100B0FBF5F000F02F
:103F6000F80006EB4006FEF755F800EBC00101EB48
:103F7000001061684900B0FBF1F7FEF74BF83CE038
:103F800055E0FEF72FF800EBC00101EB001061686F
:103F90004900B0FBF1F0B0FBF5F00601FEF722F8A6
:103FA00000EBC00101EB001061684900B0FBF1F7C4
:103FB000FEF718F800EBC00101EB00106168490042
:103FC000B0FBF1F0B0FBF5F06FF01801484307EBE0
:103FD000800108EBC100B0FBF5F000F0F80006EB43
:103FE0004006FDF7FFFF00EBC00101EB0010616828
:103FF0004900B0FBF1F7FDF7F5FF00EBC00101EB65
:10400000001061684900B0FBF1F0B0FBF5F06FF013
:104010001801484307EB800108EBC100B0FBF5F045
:1040200000F00700216830448860BDE8F081FDF7AA
:10403000D9FF00EBC00101EB001061688900B0FB03
:10404000F1F6FDF7CFFF00EBC00101EB0010616856
:104050008900B0FBF1F0B0FBF5F06FF018014843B8
:1040600006EB800108EB0110B0FBF5F000F0F00664
:10407000FDF7B8FF00EBC00101EB0010616889009B
:10408000B0FBF1F0B0FBF5F006EB0016FDF7AAFF70
:1040900000EBC00101EB001061688900B0FBF1F793
:1040A000FDF7A0FF00EBC00101EB00106168890083
:1040B000B0FBF1F0B0FBF5F06FF01801484307EBEF
:1040C000800108EB0110B0FBF5F000F00F00A9E74C
:1040D000001401400010014090F83910212901D04E
:1040E000022070478168B1F5805F016A0BD04A1CDD
:1040F0000262026809785160C18C491E0904090CEA
:10410000C1840ED017E009880268C1F3080151602C
:1041100001690029016A02D0491C0162ECE7891C8F
:10412000FBE70168CA6822F08002CA600068C168C3
:1041300041F04001C160002070472DE9F0419846F0
:1041400017460E460446069D1DE0681C1BD02DB187
:10415000FDF752FDA0EB0800A84214D92068C16801
:1041600021F4D071C1602068416921F001014161F1
:10417000202084F8390084F83A00002084F83800C0
:104180000320BDE8F0812068006836EA000004D012
:104190000020B842D9D00020F3E70120F9E7000061
:1041A00070B500240C4D0D48FEF788FB02E0641C3E
:1041B000AC4204D80948FEF77BFB2028F7D1002445
:1041C00002E0641CAC4206D8012205490348FEF710
:1041D00007FD0028F5D170BDFFFF01005C8C0020B9
:1041E000740000200148FEF769BB0000FC8D002030
:1041F0000148FEF763BB00009C8C0020FEE700F046
:1042000005F8322002F098FFF9E7000030B40D48BD
:1042100003230D490370FC2444700A888270120A3B
:10422000C2704A880271120A427189888171090A32
:10423000C17104724372014630BC0A220348FEF782
:1042400081BD00003C9900201A0300201C8C002036
:104250000FB4054B10B503A9044A029801F026FFDC
:1042600010BC5DF814FB0000C562000820030020AC
:1042700003B401984100009850EAC12018BF0420FF
:104280004A0D18BF40F0010040F2FF72B2EB515FDF
:1042900008BF40F00200012808BF052002B07047A7
:1042A00010B5B94A2DED020B2DED0C8B82B00F9994
:1042B00021F000409FEDB6CB90422CDBA0F14053A3
:1042C0000E9AA3F17F631A430FD0B349884202DCF0
:1042D00016D10E98A0B19DED0E0B02B0BDEC0C8B6B
:1042E00002B0BDE8104001F087BE0029C1BF9FEDBC
:1042F000AC0B02B0BDEC0C8B02B0C8BF10BD16E019
:10430000012001F0CDFE02B0BDEC0C8B02B0BDE887
:10431000104001F085BEA44A9FEDA59B9FEDA6AB82
:1043200090425EDAA6499FEDA8CB814208DBB0EE51
:104330004C0AF0EE6C0A02B0BDEC0C8B02B010BD62
:104340009DED0E0B53EC102B51EC100BFCF773F89A
:1043500041EC180B9E480621B0EE480AF0EE680AC0
:10436000784401F01DFD53EC182B51EC100BFCF7B9
:1043700062F841EC1B0B9748B0EE480AF0EE680A71
:104380000421784401F00CFD53EC182B51EC100B78
:10439000FCF751F853EC192BFBF7A6FF41EC100B7F
:1043A00051EC1B0B53EC102BFCF7B7F841EC100B46
:1043B00053EC102B9DED0E0B51EC100BFCF73BF862
:1043C00053EC1A2BFCF734F89DED0E1B53EC112B1C
:1043D000FCF72EF853EC1C2BFCF72AF841EC100BE1
:1043E000A9E79FED7D8B9FED7EBB9DED0E0B002918
:1043F00053EC192B51EC100B52DAFBF775FF53EC11
:10440000182BFCF718F841EC180B77480621B0EE92
:10441000480AF0EE680A784401F0C2FC53EC182B0D
:1044200051EC100BFCF707F841EC1D0B6F48B0EE98
:10443000480AF0EE680A0421784401F0B1FC53EC1C
:10444000182B51EC100BFBF7F6FF53EC192BFBF775
:104450004BFF41EC190B51EC180B02F0D5FC41EC71
:10446000180B53EC192B51EC1D0BFCF756F853ECC1
:10447000182BFBF7E0FF53EC1A2BFBF7D6FF41ECB0
:10448000100B51EC180B53EC102BFBF72DFF53ECDA
:104490001B2BFBF7D0FF53EC1C2BFBF7C9FF6DE088
:1044A000FBF7C6FF53EC182BFBF7C5FF41EC180BCD
:1044B00002F0AAFC41EC1A0B00208DED00AB00903D
:1044C0009DED000B51EC1A0B53EC102BFBF70CFF7E
:1044D0009DED000B41EC1C0B53EC102B51EC100B21
:1044E000FBF7A9FF53EC182BFBF7A2FF53EC1C2B97
:1044F000FCF713F841EC1C0B3D48B0EE480AF0EE17
:10450000680A0621784401F04BFC53EC182B51EC5F
:10451000100BFBF790FF41EC1D0B3648B0EE480A3C
:10452000F0EE680A0421784401F03AFC53EC182BB1
:1045300051EC100BFBF77FFF53EC192BFBF7D4FE6C
:1045400041EC100B51EC1D0B53EC102BFBF7E5FF6E
:1045500053EC1A2BFBF76FFF53EC1C2BFBF7C4FE3D
:1045600041EC100B53EC102B9DED000B51EC100B9C
:10457000FBF7BAFE53EC1B2BFBF75DFF41EC100B76
:10458000D9E60000000000000000F03F000000003D
:10459000182D4454FB2109400000F07F000000006A
:1045A00000000000000000000000E03F00000000EC
:1045B000000000000000F03F075C143326A6913C89
:1045C0000000603C00000000182D4454FB21F93F1E
:1045D0007C3700008A370000000000000000E03F48
:1045E0000000000000000040C6360000D436000085
:1045F000D8350000E635000070B5C1482DED020B3E
:104600002DED0E8B82B0119D25F000449FEDBEDB99
:104610009FEDBFEB84423EDBA4F140511098A1F125
:104620007F6108430FD0BC48844202DC28D1109837
:1046300030B39DED100B02B0BDEC0E8B02B0BDE8A7
:10464000704001F0D9BC9DED100B53EC1D2B51ECCB
:10465000100BFBF7F0FE9DED100B41EC180B53EC2B
:104660001E2B51EC100BFBF7E6FE53EC182BFBF75F
:104670003BFE41EC100B02B0BDEC0E8B02B070BDE6
:10468000012001F00DFD02B0BDEC0E8B02B0BDE8C3
:10469000704001F0C5BCA1489FEDA18B844256DA61
:1046A0009DED100BB4F1795F0ADA51EC100BFFF7B6
:1046B000DFFD042808BF01F0D3FC9DED100BDAE705
:1046C00053EC102B51EC100BFBF7B5FE41EC190B22
:1046D00095480621B0EE490AF0EE690A784401F0E7
:1046E0005FFB53EC192B51EC100BFBF7A4FE41ECD4
:1046F0001A0B8E48B0EE490AF0EE690A042178449C
:1047000001F04EFB53EC192B51EC100BFBF793FE11
:1047100053EC182BFBF7E8FD41EC100B51EC1A0B96
:1047200053EC102BFBF7F9FECDE900019DED000BDA
:1047300053EC102B9DED100B51EC100BFBF77BFE97
:104740009DED101B53EC112BFBF7CEFDD2E09DED40
:10475000100B51EC100B01F095FD53EC182BFBF7EF
:1047600067FE9FED730BCDE9000153EC102B9DED1F
:10477000000B51EC100BFBF75EFE41EC190B6E4881
:104780000621B0EE490AF0EE690A784401F008FB10
:1047900053EC192B51EC100BFBF74DFE41EC1B0BAE
:1047A0006648B0EE490AF0EE690A0421784401F047
:1047B000F7FA53EC192B51EC100BFBF73CFE53ECC2
:1047C000182BFBF791FD41EC1C0B51EC190B02F07F
:1047D0001BFB41EC180B5A489FED5BABA04222DC5F
:1047E00053EC1C2B51EC1B0BFBF797FECDE90001A2
:1047F0009DED000B51EC180B53EC102BFBF71BFE3F
:1048000053EC182BFBF770FD53EC1A2BFBF713FE40
:1048100053EC1D2BFBF709FE53EC1E2BFBF708FE98
:1048200041EC100B5FE08DED008B002000909DEDC2
:10483000000B51EC180B53EC102BFBF755FD9DEDC5
:10484000000B41EC1E0B53EC102B51EC100BFBF743
:10485000F2FD53EC192BFBF7EBFD53EC1E2BFBF792
:104860005CFE41EC190B53EC1C2B51EC1B0BFBF7C2
:1048700054FE41EC1B0B53EC1A2B51EC190BFBF7BC
:10488000DAFD53EC1D2BFBF7D3FD41EC190B53EC78
:104890001A2B51EC180BFBF7CEFD53EC1B2BFBF73F
:1048A000CAFD53EC192BFBF7C0FD9DED000B41EC4D
:1048B000180B53EC1A2B51EC100BFBF7BCFD9FEDC2
:1048C000249B53EC192BFBF7B3FD41EC100B51EC7F
:1048D000180B53EC102BFBF7A8FD53EC192BFBF72F
:1048E000A7FD41EC100B002D3FF7C5AE51EC100BAE
:1048F00081F0004141EC100BBDE60000000000001B
:104900000000F03F00000000075C143326A6913C35
:10491000182D4454FB21F93F0000F07F0000E03FD8
:10492000000000000000F03F503400005E34000042
:10493000000000000000E03FA2330000B0330000A0
:104940003333EF3F00000000000000000000004093
:10495000182D4454FB21E93F10B52DED040B86B012
:104960009DED060B10EE100A10EE901A8DED000B67
:10497000002818BF0120084320F00040C0F17F60EC
:1049800000F1E040C00F21D19DED080B10EE101A90
:1049900010EE900A8DED000B002918BF012108438D
:1049A00020F00040C0F17F6000F1E040C00F0DD169
:1049B00029490798B1EB400F04BF0698002842D060
:1049C0000998400004BF089800283CD09DED080BD2
:1049D00053EC102B9DED060B51EC100BFBF77AFFFF
:1049E000CDE902019DED020B40F2FF7110EE900A3D
:1049F0008DED000B31EA105021D00798039900F09B
:104A0000004001F00041884219D09DED080B8DED6A
:104A1000040B9DED020B8DED000B10EE900A059935
:104A200061F31E0005909DED041B9DED020B51EC02
:104A3000110B53EC102BFBF7FBFCCDE902019DEDB4
:104A4000020B0AB010BD012001F02AFB0AB0BDE83C
:104A5000104001F0E5BA00000000E0FF0000000097
:104A60002DE9F04D2DED040B2DED0E8B96B0DDE90B
:104A70002550279CDDF890A025F0004624F0004842
:104A8000BAF1000F14BF0121002101EB4502FC49DE
:104A900053184A1093422AD3002814BF012300233D
:104AA00003EB44030B44F7498B4220D358EA00013F
:104AB0009FEDF59B76D0DFF8D8B35D4503D1BAF111
:104AC000000F05D188E0BAF1000F08BF002100D027
:104AD000012101EB450111F5001F08D8002814BF82
:104AE0000121002101EB440111F5001F0BD99DEDBF
:104AF000261B9DED240B16B0BDEC0E8B04B0BDE85B
:104B0000F04D01F083BA0027002DBCBFE149884574
:104B100021DAE1498845A8BF02271CDAC3451ADC1F
:104B2000DE4901EB2851142908DDC1F1340220FAD5
:104B300002F101FA02F282420DD108E058B9C1F146
:104B4000140228FA02F101FA02F2424503D101F0FF
:104B50000101C1F1020756EA0A0124D1002C22DA30
:104B6000002D18BF022F01D0012F0AD0022001F022
:104B700097FA16B0BDEC0E8B04B0BDE8F04D01F015
:104B800023BA022001F08CFA01F01EFA51EC100B4E
:104B900081F0004141EC100B16B0BDEC0E8B04B05F
:104BA000BDE8F08D18E09FEDBEAB9FEDBF8B0028F8
:104BB00071D1B848804522D105F1804010F58010B0
:104BC00008BFBAF1000F07D0B3450ADC002CA8BF1C
:104BD0009DED260BE0DA0DE0B0EE490AF0EE690A31
:104BE000DAE7002C06DA9DED260B51EC100B81F074
:104BF00000416FE0AE48784490ED000BCCE7D8451B
:104C00004DD1002C48DA2EB186423AD1BAF1000FCC
:104C100042D126E0BAF1000F13D0022001F040FA91
:104C200001F00EFA8DED020B9DED240B8DED000BC6
:104C300010EE900A039961F31E0003909DED020BA4
:104C4000AAE78DED02AB9DED240B1AEE901A10EE43
:104C5000900A8DED000B61F31E0003909DED020B99
:104C60009AE78DED028B9DED240B18EE901A10EE55
:104C7000900A8DED000B61F31E0003909DED020B79
:104C80008AE709DA9DED240B51EC190B53EC102B3C
:104C9000FBF743FC1EE020E09DED240B7CE7864201
:104CA0001BDAB4F1804F0DD0A4F10050B0F1FF50E9
:104CB00013D1002D11DB9DED240B51EC100B02F0F4
:104CC000A3F807E09DED240B53EC102B51EC100BD7
:104CD00000F0C2BC41EC100B5EE79DED240B51ECE3
:104CE000100B01F0CFFABAF1000FCDE90E0142D15D
:104CF0009FED710B46B3A6F1E040B0F17F600CD0A0
:104D00005E4538D1002D00DAA7B3022F0CBF012079
:104D10004FF0FF30FBF721FEDCE7002D01DD002C1A
:104D20000DDA002D01DD002C1FDB002D16DA002C22
:104D300014DB012F08BF9FED620B3FF42DAFB0EEE7
:104D40004A0AF0EE6A0A27E7022F18BF002D0CD09E
:104D5000012F0AD1002DFFF61FAF06E0002DB8BFCE
:104D6000002C08DA012F3FF417AFB0EE480AF0EE3E
:104D7000680A11E71BE0012000EBE57050EA07012B
:104D800015D0791EB0EE498AF0EE698A084308BF53
:104D90009FED4D8B4E480025804570DD4D494E48B6
:104DA000884514DDB0420DDB002C19DB2FE001201B
:104DB00001F076F916B0BDEC0E8B04B0BDE8F04DF5
:104DC00001F02EB9B34502DC002C09DC1FE086425D
:104DD00002DA002C1BDA03E05E452BDD002C16DD29
:104DE000022001F05DF901F02BF98DED020B53EC7F
:104DF0001A2B51EC180BFBF71EFBCDE900010399B0
:104E0000019861F31E0003909DED020BC4E60220A1
:104E100001F046F901F024F910EE901A18EE900A0C
:104E20008DED020B8DED008B61F31E0003909DED67
:104E3000020BB1E69DED0E0B53EC192B51EC100B50
:104E4000FBF7F3FA9FED260BCDE9080153EC102B8D
:104E50009DED080B51EC100BFBF7EDFA9FED221BBB
:104E600053EC112BFBF7E4FA9DED081B53EC112BCF
:104E7000FBF7E1FA9FED1E1B53EC112B3CE08CE09D
:104E8000FFFF1F00FFFF0F00000000000000F03FC9
:104E90000000F03F0000F07F0000404301FCFFFFF6
:104EA000000000000000F07F000000000000000093
:104EB0003E30000000000000000000000000008004
:104EC000000000000000F0FF000000000000F0BF44
:104ED0000000E0410000F043FFFFEF3F0000000052
:104EE000000000000000D03F555555555555D53FA1
:104EF000000000000000E03FFBF79AFA9DED080B70
:104F000041EC1A0B53EC102B51EC100BFBF793FAFE
:104F100053EC1A2BFBF78FFA41EC1A0B9FEDFE0BAB
:104F200053EC102B9DED080B51EC100BFBF783FAA3
:104F300041EC1B0B9FEDFA0B51EC1A0B53EC102BB1
:104F4000FBF779FA41EC1A0B9FEDF70B53EC102BA2
:104F50009DED080B51EC100BFBF76DFA53EC1A2B7F
:104F6000FBF763FA41EC1A0B51EC1B0B53EC1A2BB9
:104F7000FBF7BAF90690CDE906519DED060B53EC0F
:104F80001B2B51EC100BFBF750FA53EC1A2BFBF7D1
:104F90004FFA41EC100B00F0A1B90020B6F5801FCC
:104FA0000EDA9FEDE30B53EC102B9DED0E0B51EC45
:104FB000100BFBF740FACDE90E016FF034000E46FE
:104FC00000EB2650A0F2FF37C6F31300DA4940F099
:104FD0007F6646F040568842D8BF002408DDD74996
:104FE0008142C8BF012403DC0024A6F580167F1C83
:104FF000D348784400EBC4000F9690ED00CB9DEDB4
:105000000E0B53EC1C2B51EC100BFBF70EFA9DED25
:105010000E0B41EC1B0B53EC1C2B51EC100BFBF754
:1050200063F941EC100B51EC190B53EC102BFBF70F
:1050300074FA41EC1D0B51EC1B0B53EC1D2BFBF7D1
:10504000FAF941EC1A0BBF488DED10AB784410957E
:1050500090ED000B4FF0005040EA660000EB8440FA
:105060008DED080B00F5002009909DED080B53EC29
:105070001C2B51EC100BFBF7D8F99DED0E1B53ECDC
:10508000112BFBF7D5F941EC100B53EC102B9DEDD8
:10509000100B51EC100BFBF7CEF99DED080B41EC1A
:1050A0001C0B53EC102B9DED100B51EC100BFBF770
:1050B000C2F953EC1B2BFBF7BBF953EC1C2BFBF792
:1050C000B4F953EC1D2BFBF7B6F941EC1C0B53EC78
:1050D0001A2B51EC1A0BFBF7AEF941EC1B0B9A485B
:1050E0000621B0EE4B0AF0EE6B0A784400F058FE51
:1050F000B0EE401AF0EE601AB0EE41DAF0EE61DA8E
:1051000053EC1B2B51EC1B0BFBF795F953EC1D2BB0
:10511000FBF791F99DED100B41EC1B0B53EC1A2B97
:1051200051EC100BFBF7E0F853EC1C2BFBF783F969
:1051300053EC1B2BFBF7D8F89DED100B41EC1B0B30
:1051400053EC102B51EC100BFBF775F941EC1D0BD8
:105150009FED7FEB53EC1E2BFBF7C6F853EC1B2B9C
:10516000FBF7C2F80890CDE908519DED080B53EC10
:105170001E2B51EC100BFBF758F953EC1D2BFBF7D2
:1051800054F953EC1B2BFBF753F99DED080B41EC45
:105190001D0B53EC102B9DED100B51EC100BFBF77E
:1051A0004AF941EC1B0B53EC1A2B51EC1D0BFBF78E
:1051B00042F99DED080B41EC1A0B53EC102B51EC0E
:1051C0001C0BFBF738F953EC1A2BFBF78DF841EC6D
:1051D0001A0B51EC1B0B53EC1A2BFBF785F80C90B8
:1051E000CDE90C519DED0C0B53EC1B2B51EC100B2E
:1051F000FBF71BF953EC1A2BFBF71AF941EC1B0BCD
:105200009FED550B53EC102B9DED0C0B51EC100B3F
:10521000FBF711F941EC1A0B9FED510B51EC1B0BF5
:1052200053EC102BFBF707F941EC1B0B9FED4E0BDA
:1052300053EC102B9DED0C0B51EC100BFBF7FBF816
:1052400053EC1B2BFBF750F841EC100B484878440B
:1052500000EBC40090ED001B51EC100B53EC112B34
:10526000FBF742F841EC1B0B3846FBF776FBCDE928
:10527000080153EC1B2B51EC1A0BFBF735F841ECF2
:10528000100B3C48784400EBC40090ED00CB51EC8F
:10529000100B53EC1C2BFBF727F89DED081B53EC70
:1052A000112BFBF721F80690CDE906519DED080B77
:1052B00053EC102B9DED060B51EC100BFBF7B5F8E2
:1052C00053EC1C2BFBF7B1F853EC1A2BFBF7ADF8A2
:1052D00053EC1B2BFBF7ACF841EC100B9DED261BA0
:1052E00053EC102B8DED001B00959DED260B51EC22
:1052F000100BFBF7A0F89DED000B41EC1A0B53ECE3
:10530000102B9DED260B51EC100BFBF78EF89DED4D
:10531000061B53EC112B2FE0000000604715F73FF0
:10532000FE822B654715F73F44DF5DF80BAE543E18
:1053300000000000000040438E9803007AB60B0086
:105340008A2B0000E82B0000C22A000000000000A9
:105350000000000000000840000000E009C7EE3F28
:10536000FD033ADC09C7EE3FF5015B14E02F3EBEBA
:105370004E29000008290000FBF75DF853EC1A2BBA
:10538000FAF7B2FF9DED060B41EC1A0B53EC102B14
:105390009DED000B51EC100BFBF74DF8CDE90C0126
:1053A0009DED0C0B51EC1A0B53EC102BFAF79CFFF4
:1053B000CDE902010C46AA498C422FDB611A084351
:1053C00018D19DED0C0B53EC102B9DED020B51EC05
:1053D000100BFBF72AF841EC1B0B9FEDA30B51ECD4
:1053E0001A0B53EC102BFAF77FFF53EC1B2BFBF738
:1053F000C5FA2DD2022000F053FE00F021FE10EE7F
:10540000901A18EE900A8DED020B8DED008B61F372
:105410001E0003909DED020BFFF7BEBB944A24F0E3
:105420000041914214D39349214408437FF4EFACE7
:105430009DED0C0B53EC102B9DED020B51EC100B62
:10544000FAF7F3FF53EC1A2BFBF798FA7FF6DFAC71
:1054500024F000408849894A002601EB205182420D
:105460002BDA481C4FF4801121FA00F02044844AC2
:10547000C0F30A517A44A1F2FF3192ED000B814A48
:105480008DED080BCA4020EA0202C0F3130040F47D
:105490008010C1F1140120FA01F60992002CB8BF66
:1054A00076429DED080B53EC102B9DED0C0B51EC4F
:1054B000100BFAF7BAFFCDE90C019DED0C0B51EC86
:1054C0001A0B53EC102BFAF70FFF9FED6F0B0890A0
:1054D000CDE9085153EC102B9DED080B51EC100B4E
:1054E000FAF7A9FF41EC1B0B9FED690B53EC102B56
:1054F0009DED080B51EC100BFAF79DFF9DED0C0B89
:1055000041EC1C0B53EC102B9DED080B51EC100BD8
:10551000FAF78BFF53EC1A2BFAF78AFF9FED5E1B0D
:1055200053EC112BFAF787FF53EC1C2BFAF7DCFE38
:1055300041EC1A0B51EC1B0B53EC1A2BFAF7D4FE6F
:10554000CDE902019DED020B53EC1B2B51EC100B2E
:10555000FAF76BFF53EC1A2BFAF76AFF9DED020B7B
:1055600041EC1A0B53EC102B51EC100BFAF763FFC4
:10557000CDE908014A489DED080B0521784400F06B
:105580000FFC9DED081B51EC100B53EC112BFAF79F
:1055900052FF9DED021B53EC112BFAF749FFCDE9A9
:1055A00006019DED020B53EC1A2B51EC100BFAF790
:1055B00042FF53EC1A2BFAF797FE9FED3B0B41ECA1
:1055C0001A0B53EC102B9DED060B51EC100BFAF758
:1055D0002CFF9DED060B41EC1B0B53EC102B9DEDAE
:1055E000020B51EC100BFAF726FF53EC1B2BFAF7CA
:1055F00094FF53EC1A2BFAF718FF9DED021B53ECA6
:10560000112BFAF712FF53EC192BFAF711FFCDE922
:10561000020101EB065001150029C8BF039015DCFB
:105620009DED020B324651EC100BFBF7EBF8FEF749
:105630001FFE042808BF00F013FD32469DED020B4B
:1056400051EC100BFBF7DEF8CDE902019DED020BEA
:1056500051EC180B53EC102BFAF7EDFEFFF73ABBA9
:105660000000904000000000FE822B654715973C2B
:1056700000CC904000346F3F01FCFFFF0000E03F92
:10568000C0270000FFFF0F0000000000432EE63F90
:10569000396CA80C615C20BEEF39FAFE422EE63F61
:1056A0006026000000000000000000000000004034
:1056B00010B52F499FED2C1B2DED020B84B00598E2
:1056C00020F000408842DCBF00209DED040B32DD5D
:1056D0002849884209D1049840B94FF0010000F0F0
:1056E000DFFC00F09DFC06B010BD05DB9DED040B5A
:1056F00000F082FC06B010BD68469DED040B00F082
:105700007BF810F0030011D0012818D09DED021B8A
:105710009DED000B02281AD000F08AFA51EC100B14
:1057200081F0004106B041EC100B10BD9DED021B55
:105730009DED000B012000F0AFFB06B010BD9DED0C
:10574000021B9DED000B00F073FA06B010BD0120A6
:1057500000F0A2FB51EC100B81F0004106B041ECCF
:10576000100B10BD00000000000000000000000051
:10577000FB21E93F0000F07F00B52DED048BB0EE7A
:10578000409AF0EE609A83B051EC190BFBF751F898
:1057900041EC180B18EE100A18EE901A8DED008BE4
:1057A000002818BF0120084320F00040C0F17F60AE
:1057B00000F1E040C00F14D019EE101A19EE900A53
:1057C0008DED009B002918BF0121084320F0004007
:1057D000C0F17F6000F1E040C00F04BF012000F085
:1057E0005FFCB0EE480A03B0F0EE680ABDEC048B33
:1057F00000BD0000000000002DE9F14F04462DED32
:10580000020B2DED088B8AB09FEDE70B80ED020BAC
:10581000139EE74826F0004585420ADC9DED120BF9
:10582000002084ED000B0AB0BDEC088B03B0BDE88E
:10583000F08FE0489FEDE0AB9FEDE1BBA84247DD74
:10584000E14F9FEDE39B9FEDE48B9DED120B53EC3D
:105850001A2B51EC100B002E1CDDFAF7E6FD41EC83
:10586000100BBD4208D053EC1B2B51EC100BFAF778
:10587000DCFDC4E900010BE053EC192B51EC100BDB
:10588000FAF7D3FD53EC182BFAF7CFFDC4E900016A
:105890000120C8E7FAF728FD41EC100BBD4208D003
:1058A00053EC1B2B51EC100BFAF71EFDC4E9000161
:1058B0000BE053EC192B51EC100BFAF715FD53ECE0
:1058C000182BFAF711FDC4E900014FF0FF30AAE7E9
:1058D000C348A84279DB9DED120B51EC100B00F090
:1058E000D1FC41EC180B9FEDC00B53EC102BFAF7D9
:1058F000A2FD9FEDBF1B53EC112BFAF7F5FCFBF754
:1059000084F80746FBF729F841EC190B53EC1A2BE6
:10591000FAF791FD53EC182BFAF78AFD41EC180BBE
:1059200053EC1B2B51EC190BFAF785FDDFF8C8A2DD
:1059300041EC100B4FEA15580125FA4453EC102B9B
:1059400051EC180BFAF771FD032DC4E900013DD0AD
:10595000C1F30A5005EB4511A8EB00001139814253
:1059600034DA0AEB051BB0EE48AA9BED000BF0EE13
:1059700068AA53EC102B51EC190BFAF75CFD41ECC3
:105980001B0B51EC1A0B53EC1B2BFAF74EFD41ECA1
:10599000180B51EC1A0B53EC182BFAF746FD53EC8D
:1059A0001B2BFAF742FD9BED020B41EC1A0B53EC5B
:1059B000102B51EC190BFAF73EFD53EC1A2BFAF7AA
:1059C00034FD41EC100B6D1CB8E70EE0002EA8BFB3
:1059D0003846BFF628AF94ED000B51EC100B81F068
:1059E0000041C4E9000178421DE7C6F3130040F40A
:1059F000801EC6F30A50A0F2F530471100F01F05D3
:105A0000C5F12000DDF848B008900020069007900E
:105A10000520EC467949002D07EB0002794408BFC8
:105A200051F8221009D051F8223001EB8201AB402D
:105A30004A68089922FA01F11943A1FB0E26A1FB3D
:105A40000B131A449A4234BF0123002303EB0608C8
:105A50000CEB8003D3E901A60E448E4234BF012132
:105A6000002192448A4411B1924502D903E0924543
:105A700001D2012100E00021C3E901A641444CF814
:105A80002010011EA0F10100C4DC029800F10050BA
:105A9000850F0298DDE903678000DDF81480FAF7CE
:105AA0005CFF41EC1A0B3046FAF7A2FF9FED541B46
:105AB00053EC112BFAF7BFFC41EC1B0B3846FAF7FD
:105AC00097FF9FED511B53EC112BFAF7B4FC41ECFF
:105AD000180B4046FAF78CFF9FED4D1B53EC112B32
