:020000040800F2
:1000000070C300207D0200087F4300084F370008BE
:1000100031420008990B00085959000800000000FF
:10002000000000000000000000000000C101000806
:10003000F513000800000000150200082150000818
:10004000970200089702000897020008970200082C
:10005000970200089702000897020008970200081C
:100060009702000897020008970200080913000889
:1000700015130008970200082113000897020008D2
:100080002D1300083913000897020008A90B000877
:100090009D0B0008970200089702000897020008CD
:1000A00097020008970200089702000897020008CC
:1000B0006551000871510008970200089702000876
:1000C00097020008970200089702000897020008AC
:1000D00097020008970200081159000829590008E2
:1000E000970200089702000897020008970200088C
:1000F000970200089702000897020008970200087C
:10010000970200089702000897020008970200086B
:1001100097020008970200087D5100089702000826
:10012000970200084513000897020008970200088C
:10013000970200089702000897020008C10B000808
:10014000B50B000897020008970200089702000804
:10015000970200089702000897020008415900081A
:10016000970200089702000897020008970200080B
:10017000970200089702000897020008000000009C
:100180009702000897020008C1540008D9540008DB
:1001900097020008354A00089702000897020008F5
:1001A000000000000000000097020008DFF80CD0FB
:1001B00000F08EFC00480047D185000870C3002085
:1001C0002B4B19680868B0E8F04F80F30988BFF33B
:1001D0006F8F4FF0000080F311887047000000001F
:1001E00006480068006880F3088862B661B6BFF30D
:1001F0004F8FBFF36F8F00DF00BF00BF08ED00E03F
:10020000DFF80C00016841F470010160704700BF25
:1002100088ED00E0EFF30980BFF36F8F144B1A688D
:100220001EF0100F08BF20ED108A20E9F04F10607B
:1002300008B44FF0500080F31188BFF34F8FBFF325
:100240006F8F09F0EDF94FF0000080F3118808BCC2
:1002500019680868B0E8F04F1EF0100F08BFB0EC46
:10026000108A80F30988BFF36F8F704700BF00BF0B
:1002700008000020EFF30580704700000648804723
:1002800006480047FEE7FEE7FEE7FEE7FEE7FEE77B
:10029000FEE7FEE7FEE7FEE7C9500008AD010008F3
:1002A00040EA01039B0703D009E008C9121F08C0F8
:1002B000042AFAD203E011F8013B00F8013B521E78
:1002C000F9D27047D2B201E000F8012B491EFBD2EF
:1002D00070470022F6E710B513460A460446194651
:1002E000FFF7F0FF204610BD2DE9FE4F804681EA62
:1002F0000300C00F0C46009021F0004123F00045A0
:10030000B8EB0200A94105D24046214690461C4662
:100310000B46024623F00040104347D0270DC7F399
:100320000A00C3F30A510290401A019040286BDA88
:10033000C3F3130040F4801B0098924620B10023C1
:10034000D2EB030A63EB0B0B01985946C0F1400254
:10035000504600F034FA06460D4650465946019A7A
:1003600000F04CFA10EB08006141002487EA1152BA
:1003700084EAE7731A4340D0009A62B3019A012AD3
:100380004FEA075215DC001B61EB02014FF00042FF
:1003900002EA0752CDE90042001C41F580113246C5
:1003A0002B4600F083FA03B0BDE8F08F40462146AB
:1003B000F9E7001B61EB0201001C41F580130018F6
:1003C0005B412018A2F5001747EB030140EAD57006
:1003D000B6196D4111E06D084FEA360645EAC07561
:1003E0004FEA0752001B61EB0201001C41F580112E
:1003F00049084FEA30000019514132462B4603B0FC
:10040000BDE8F04F00F043BA0098012240000023FD
:10041000D0EB020263EBE073009821464FEAE074F0
:10042000B8EB000061EB0401E9E783F000435BE710
:1004300081F0004158E72DE9FE4F81EA030404F002
:10044000004421F0004100944FF0000B23F00043E2
:1004500050EA01045ED052EA03045BD0C3F30A54AD
:10046000C1F30A552C44A4F2F3340194A0FB0254C6
:10047000C1F3130141F48011C3F3130343F4801358
:1004800001FB024400FB034E840A970A44EA8154AC
:1004900047EA8357A4FB076802958D0A05FB078589
:1004A0004FEA932C04FB0C542705029D4FEA065893
:1004B00047EA1637B5EB08056EEB070C870E920E70
:1004C00047EA811742EA8312A7FB0201B6EB0B0150
:1004D00064EB00042B0D43EA0C335E1844EB1C5014
:1004E000DA465146E7FB0201C5F313044FEA0B332A
:1004F00043EA14534FEA0432019C43EA0603A4F191
:100500000C040294009CCDE900B400F0CFF903B0D4
:10051000BDE8F08F00200146F9E72DE9F04D81EAB2
:10052000030404F0004B21F0004514464FF0000A8C
:1005300023F0004150EA050220D054EA01021DD008
:10054000C5F30A570246C5F31303C1F31300C1F301
:100550000A5640F4801543F48013A7EB0608101BDD
:10056000D64608F2FD3873EB050002D308F1010806
:1005700001E092185B41B8F1000F03DA0020014658
:10058000BDE8F08D00204FF48011064684460EE051
:10059000171B73EB050705D3121B63EB050306431B
:1005A0004CEA010C49084FEA300092185B4150EACE
:1005B0000107EDD152EA030012D082EA040083EA77
:1005C0000501084305D0101BAB4106D201220023D0
:1005D00006E000224FF0004302E06FF001025310EA
:1005E0001AEB06004CEB085110EB0A0041EB0B0133
:1005F000BDE8F04D00F04BB90EB5C10F80EAE070D8
:100600000844CA07002140F233438DE80E000A4631
:100610000B4600F04BF903B000BD0EB540F233417C
:1006200002910021CDE900110A460B4600F03EF987
:1006300003B000BD70B5C1F30A5201F000450024BB
:10064000C1F3130140F2FF3341F480119A4201DA01
:10065000002070BD40F233439A42A2F2334203DCE1
:10066000524200F0BBF800E090402C43F1D04042F1
:1006700070BD00F0004230F000400AD0C10D01F51D
:100680006071C0F3160042EA0151C20840071143ED
:10069000704700200146704730B5041E71F1000418
:1006A00004DB4FF00044404264EB0101141E73F17F
:1006B000000405DB1C464FF00043524263EB040389
:1006C0008B4208BF824230BD30B5041E71F1000478
:1006D00004DB4FF00044404264EB0101141E73F14F
:1006E000000405DB1C464FF00043524263EB040359
:1006F000994208BF904230BD01F0004330B421F070
:10070000004150EA010206D00A0DA2F56072C1F361
:100710001301002A02DC30BC00207047440F44EA79
:10072000C104C100E01830BC00EBC25000F078B842
:1007300030B50B46014600202022012409E021FAB1
:1007400002F59D4205D303FA02F5491B04FA02F5AE
:100750002844151EA2F10102F1DC30BD2DE9F05F45
:100760000546002092469B46884606468146402420
:100770001BE0284641464746224600F02FF85346E4
:100780005A46C01A914110D311461846224600F02D
:1007900016F82D1A67EB01084F462246012000216A
:1007A00000F00DF817EB00094E41201EA4F10104E2
:1007B000DFDC484631462A464346BDE8F09F202A02
:1007C00004DB203A00FA02F1002070479140C2F1A8
:1007D000200320FA03F3194390407047202A04DBDA
:1007E000203A21FA02F00021704721FA02F3D040AA
:1007F000C2F120029140084319467047202A06DBC7
:10080000CB17203A41FA02F043EAE07306E041FADE
:1008100002F3D040C2F120029140084319467047CC
:100820000029A8BF7047401C490008BF20F0010004
:10083000704710B4B0FA80FC00FA0CF050EA0104E2
:1008400004BF10BC704749B1CCF1200421FA04F474
:1008500011FA0CF118BF012121430843A3EB0C014D
:10086000CB1D4FEA00614FEA102042BF002010BCB0
:10087000704700EBC35010440029A4BF10BC704760
:10088000401C490008BF20F0010010BC704710B5A3
:10089000141E73F1000408DA401C41F100019218A3
:1008A0005B411A4301D120F0010010BD2DE9F04D4C
:1008B00092469B4611B1B1FA81F202E0B0FA80F2A1
:1008C00020329046FFF77BFF04460F4640EA0A00BD
:1008D00041EA0B0153465A46084313D0114653EAE6
:1008E000010019D0C8F140025046FFF777FF0546D6
:1008F0000E46504659464246FFF761FF084305D071
:10090000012004E020463946BDE8F08D0020054373
:1009100046EAE0762C4337430A986305E40AA0EBE5
:1009200008000022FD0A44EA47540A3002D500209C
:100930000146E9E7010510196941DDE9084500199B
:100940006941BDE8F04DA2E770B521F000430343D3
:100950000CD0C1F30A550024D5EB040564EB040365
:10096000D617AD1AB34102DB0020014670BD201836
:1009700041EB025170BD2DE9F04D00231A461B1AC0
:100980008A4103DB00200146BDE8F08DC1F30A5225
:10099000C1F3130141F480154FF0000BD10702D1D0
:1009A00000186D41521E0027044640F2FF113846E0
:1009B00001EB620A3E468046024600204FF4801159
:1009C000FFF70CFFC2197141BB1846EB0100B4EBF5
:1009D000030C75EB000C04D3E41A65EB0005174615
:1009E0000E46241908F101006D4180463428E3DDEC
:1009F000F91946EB0600091BA84103D24FF0FF325C
:100A0000134601E0002213461BEB070046EB0A5198
:100A1000BDE8F04DFFF73BBF2DE9FE4FC3F30A578A
:100A200001F000450024C1F30A56C3F31303C1F3D8
:100A3000130143F4801312EB020AA64641F480111D
:100A4000009543EB030CA7F1010B16E0B0EB0A0095
:100A500061EB0C01071E71F1000707DA4FF0000887
:100A6000D0EB080085F0004568EB0101171A73EB25
:100A70000107EBD3761E001849415E45F6DA50EACD
:100A8000010209D0CDE900E5002213460296FFF7E6
:100A90000DFF03B0BDE8F08F20460099F9E7C1F3E0
:100AA0000A52C1F3130140F2FF3341F480119A421C
:100AB00002DA00200146704740F233439A42A2F224
:100AC000334202DC5242FFF789BEFFF778BE0000D6
:100AD000064C074D06E0E06840F0010394E807008B
:100AE00098471034AC42F6D3FFF764FBC0A000086F
:100AF000E0A0000870B58D1810F8014B14F0030247
:100B000001D110F8012B231106D110F8013B03E0AD
:100B100010F8016B01F8016B521EF9D1ABB110F85E
:100B2000012B04F00C048A1A0C2C03D0A2EB8412C3
:100B30009B1C08E010F8014BA2EB0422F8E712F826
:100B4000014B01F8014B5B1EF9D5A942D4D300201B
:100B500070BD000070B588B020220E496846FFF7CE
:100B60009FFB082000246D4600EBD0760DE000BF0F
:100B700035F83400C82180B207F016FB05EBC4003D
:100B80004068800008F08AFC641CB4EB660FEFDB61
:100B900008B070BD849B0008FEE70000014800F02B
:100BA0008BBD00003CB10020014800F085BD000075
:100BB0003CB10020014800F07FBD00007CB1002066
:100BC000014800F079BD00007CB10020002103E065
:100BD0002622521EFDD2491C8142F9D370470000E3
:100BE00010B54FF4D872036802EB01129B5813F052
:100BF0000404436B9C600468436BA45854D0E4081D
:100C00005C6003689A58436B02F00202DA604FF4AA
:100C1000DA72036802EB01129B58446B03F00F0376
:100C2000236103689A58436BC2F30722DA614FF4D9
:100C3000DC72036802EB01129B58446B2375036856
:100C40009B58446B1B0A637503689B58446B1B0CD1
:100C5000A37503689A58436B120EDA754FF4DE726F
:100C6000036802EB01129B58446B237603689B5880
:100C7000446B1B0A637603689B58446B1B0CA3767A
:100C800003689A58436B120EDA7620220029016815
:100C90000DD00A6101684A6922F010024A6190F899
:100CA0003810222909D021E0640D1C60A9E7CA6030
:100CB00001684A6922F00202F0E701684A6922F4F9
:100CC00080724A6101684A6922F400724A610168CF
:100CD0004A6922F480624A6101684A6922F400622A
:100CE0004A6101684A6922F400424A6190F838106A
:100CF000322907D05FF0010180F8381000F0F4FECF
:100D0000002010BD1221F7E72DE9F0411E4C00250F
:100D10000A26276BBD60276BFD60D4F830C008271A
:100D20000728CCF810702CD80F292AD846EA0020C2
:100D300040EA0110216B0860206B0275206B43753F
:100D4000216B55208875216BC875216B0876216B46
:100D50004876216B8876216B0C4CC87625704FF451
:100D60007A71094800F0F6FE656007E00120FFF7A0
:100D70002DFF6068401C6060642802D8207800283D
:100D8000F4D0BDE8F08100003CB100209C0B0020B5
:100D90002DE9F0411D4B002501241E6BB5601E6B33
:100DA000F5601F6B082607283E612CD80F292AD82A
:100DB00044EA002040EA0110196B154C0860186BDA
:100DC0000275196B55204875196B8875196BC875B4
:100DD000196B0876196B4876196B8876196BC8768B
:100DE00025704FF47A71184600F0B4FE656007E094
:100DF0000120FFF7EBFE6068401C6060642802D8A9
:100E000020780028F4D0BDE8F08100003CB100203B
:100E10009C0B00202DE9F041274C00250526276B6F
:100E2000BD60276BFD60D4F830C008270728CCF8D8
:100E300010703FD80F293DD846EA002040EA011043
:100E4000216B086041F28830824201DD024608E0F1
:100E50001A48824201DA024601E0002A01DA5042D1
:100E600002B2216B100A0875206B4275216B552068
:100E70008875216BC875216B180E0876216B180CCC
:100E80004876216B180A8876206B0D4C4FF47A71E6
:100E9000C3762570084800F05DFE656007E001201C
:100EA000FFF794FE6068401C6060642802D82078D8
:100EB0000028F4D0BDE8F0813CB1002078ECFFFFC1
:100EC0009C0B002070B50022072835D80F2933D895
:100ED00042EA002040EA0111184C1948002525700B
:100EE000026B1160016B8D60016BCD60026B08219C
:100EF0001161026B55211175026B5175026B917571
:100F0000026BD175026B1176026B5176026B917692
:100F1000006BC1764FF47A71094800F01BFE6560E2
:100F200007E00120FFF752FE6068401C6060642803
:100F300002D820780028F4D070BD00009C0B00205F
:100F40003CB1002010B501684A6922F001024A61F3
:100F500090F83810122918D101684A6922F4807279
:100F60004A6101684A6922F400724A6101684A696B
:100F700022F480624A6101684A6922F400624A618F
:100F800001684A6922F400424A6190F83810322917
:100F900006D0012180F8381000F0A6FE002010BD18
:100FA0002221F7E770B5754C2DED0E8BF0EE408ADF
:100FB000A069FFF75EFB41EC100B9FED71ABB0EE4B
:100FC0004A1AF0EE6A1A05F037F9B0EE401AF0EE60
:100FD000601AB0EE419AF0EE619A6069FFF749FB42
:100FE00041EC100BB0EE4A1AF0EE6A1A05F024F943
:100FF00053EC192B51EC100BFFF776F941EC100B69
:1010000005F0A6FF51EC100BFFF776FB08EE100A77
:101010005D4918EE100A884202DAB2EE048A06E050
:1010200018EE100A5949884201DDB3EE0E8AD4ED5C
:10103000050A80EE880A10EE100AFFF71AFB41EC51
:10104000100B04F061FE9FED52CB51EC100B53ECF2
:101050001C2BFFF7F0F99FED50DB53EC1D2BFFF736
:101060005CFAFFF749FBB3EE040A054628EE000AD6
:1010700010EE100AFFF7FDFAB0EE4AEAF0EE6AEA67
:1010800041EC190BB0EE4E1AF0EE6E1A9FED440BC8
:1010900005F0D2F8B0EE40AAF0EE60AAB0EE4E1A1B
:1010A000F0EE6E1A9FED400B05F0C6F8B0EE40BAB8
:1010B000F0EE60BA18EE100AFFF7DBFA41EC100B05
:1010C000B0EE4E1AF0EE6E1A05F0B6F8B0EE401A19
:1010D000F0EE601A53EC1B2B51EC110BFFF704F9E7
:1010E00053EC1A2BFFF7A1F953EC192BFFF715FA64
:1010F00041EC100B04F05CFC53EC1C2B51EC100B7E
:10110000FFF799F953EC1D2BFFF707FA41EC190B88
:101110002846FFF7AEFA53EC192BFFF789F9FFF7D2
:10112000EBFA08EE100A2846FFF7A3FA53EC192B46
:10113000FFF7DAF8FFF7E0FA00EE100A18EE900A6F
:10114000DFED1B0AB0F17E5F0FD018EE900A10F1B0
:10115000814F07D138EE601A30EE600A84ED071A2D
:1011600084ED080ABDEC0E8B70BD38EE601A30EECF
:10117000600A84ED081A84ED070AF3E7A000002056
:101180000000000000000040000020410000F0418D
:10119000000000000080664000000060FB21094064
:1011A0000000000000003440000000000000244067
:1011B0000000B4422DE9F041144E154F00242DEDEE
:1011C000048BF0EE418AB0EE618AF0EE409AB0EE08
:1011D000609A00BF04EBC40000EB400506EB8500FD
:1011E000F0EE490AB0EE690A07F00EFD07EB850044
:1011F000F0EE480AB0EE680A07F006FD641C082C01
:10120000E8DBBDEC048BBDE8F081000084B6002073
:10121000E4B90020174D01220421284600F0C3FF45
:101220004FF4FA74144E02E0204608F037F9012119
:10123000304600F0B3FF0028F6D1002204212846F2
:1012400000F0B1FF0D48042101600D480E4990EDFA
:10125000000A0C4880ED000A012008700B48B2EE2D
:101260000E0A0B4980ED000A0D200870204608F098
:1012700015F9FBE70020024000000240480B002067
:10128000B8B20020580B0020A2000020A8000020C7
:10129000A000002010B5FFF78DFF002003F016FC22
:1012A000012003F013FC022003F010FCBDE8104005
:1012B000032003F00BBC10B5002003F007FC012055
:1012C00003F004FC022003F001FCBDE81040032001
:1012D00003F0FCBB70B52DED028B82B00DF1200C3C
:1012E000B0EE418A9CE87000CDE9004503F016FDA0
:1012F000B0EE480AFFF756FE02B03046BDEC028B56
:10130000BDE8704003F0E2BB014800F001BD000001
:1013100024B00020014800F0FBBC000004AF002016
:10132000014800F0F5BC0000C4AF0020014800F007
:10133000EFBC0000A4AE0020014800F0E9BC0000B2
:1013400084B00020014800F0E3BC000064AF00203E
:1013500001681823CAB2103AB2FBF3F2054B6FF3DF
:101360000901032A9B5CC36500D9091D81650846F4
:1013700070470000F09A000810B5014600208B6904
:101380008A6A4FF0C07453B1B3F5005F15D072B1E3
:10139000012A0CD0022A0AD0032A09D104E01AB18A
:1013A000012A06D0022A03D1C96AC90100D5012049
:1013B00010BDC96AA142FAD010BD002AF7D0012A97
:1013C000F2D0022AF3D0032AF3D010BD30B504685E
:1013D000256825F480252560046863608368402BB8
:1013E000036803D099600068C26030BD9A600068ED
:1013F000C16030BD7047FEE72DE9F0412DED048B53
:101400009FED5B8A00F0D4FE00EE100AB8EE401AA1
:101410009FED580A584C5949C1EE000A94ED001A44
:10142000574D584E584FC1EE001A30EEE10A10EEFB
:10143000100A884228DA9FED558BB0EE480AF0EE8C
:10144000680A05F021FD9FED531B51EC100B53EC86
:10145000112BFEF7F0FFFFF74FF9B0EE480AF0EE60
:10146000680A286004F000FE9FED4C1B51EC100B45
:1014700053EC112BFEF7DFFFFFF73EF9B7EE000A42
:101480003060FFF78FFD60E010EE100A3B494942E3
:1014900008444449884246D294ED010ADFED428A6D
:1014A00060EE280A9FED418A80EE880A10EE100A4D
:1014B000FFF7DFF841EC100B05F0E6FCB0EE409AC8
:1014C00094ED020AF0EE609AB1EE400A10EE100AB6
:1014D000FFF7CFF853EC192BFEF7ADFFFFF70CF930
:1014E000286094ED010A60EE280A80EE880A10EE6A
:1014F000100AFFF7BEF841EC100B04F0B5FDB0EE9A
:10150000408AF0EE608AA068FFF7B3F853EC182B1E
:10151000FEF791FFFFF7F0F8B7EE000A3060FFF733
:1015200041FD103711E010EE100A2149A0F17E5064
:10153000884212D29FED1F0A85ED000A86ED008ACF
:10154000B7EE000AFFF72EFD203797EC040ABDEC3A
:10155000048BBDE8F041FFF79DBE174914200870C9
:1015600016A0BDEC048BBDE8F04104F0F7B9000013
:10157000CDCC7C4100007A4490000020CDCC4C3F83
:10158000B4000020B8000020089B0008000000C044
:101590000C75D73F000000A099992FC0000000A053
:1015A00099992F4033333300DB0F49400000344317
:1015B0006666660000000000A00000204A756D709D
:1015C00020436F6D706C6574652E0D0A000000007D
:1015D000F0B50A7D01209040344A136843F00103BE
:1015E0001360136823F47C53136013684C6A43EA56
:1015F000042313602D4B1C331C6884431C602B4D4B
:101600002B4CCE690C35A6B92E6886432E608F8987
:101610004E6867F31F464F6904EBC707C7F840667B
:101620000F890E6867F31F464F6904EBC707C7F8B9
:101630004466CE69012E14D12E6806432E600E88B2
:101640004D6866F31F454E6904EBC606C6F8405662
:101650000E89CD6866F31F454E6904EBC604C4F8D5
:101660004456124C8D69241D002D256806D0054373
:1016700025600E4C0D69143415B104E08543F7E77D
:101680002568854325600D69012D02D12568054334
:101690002560096A012902D119680143196010689F
:1016A00020F0010010600020F0BD00000066004046
:1016B000006000407047000010B5044600684169B2
:1016C000C943C90714D182685849914368D00021A1
:1016D0008368574A9A4365D00022836855489843E7
:1016E00062D000201143014302D02046FFF72AFCBC
:1016F0002068C168406911F0030FC0F3400004D0B6
:1017000018B100212046FFF76BFA21680869496982
:1017100010F0030FC1F3001104D019B101212046CC
:10172000FFF75EFA20688169426911F0010FC2F388
:1017300000234269C2F3C03205D023B11AB1E16B74
:1017400041F00101E1638169C1F3400341694269EC
:10175000C1F34021C2F3C0322BB121B11AB1E16B08
:1017600041F00201E16381694269C1F38001C2F382
:1017700080234269C2F3C03229B123B11AB1E16BAF
:1017800041F00401E163816911F0700F0ED0002176
:1017900042694369C2F3C022C3F3C03341B127E0B9
:1017A000012195E7012298E701209BE70121EFE75E
:1017B000F2B1EBB1816901F07001402929D006DC5A
:1017C000102909D020290BD030290DD11DE0502936
:1017D00023D0602908D124E0E16B41F0080102E048
:1017E000E16B41F01001E163816921F070018161D9
:1017F000E06B002808D0216804204860012084F8AC
:1018000038002046FFF756FF10BDE16B41F0200184
:10181000E9E7E16B41F04001E5E7E16B41F0800170
:10182000E1E7E16B41F48071DDE7000003000004B3
:1018300000030008000003102DE9F041040004D06B
:1018400094F83800002518B107E00120BDE8F081C8
:1018500084F83950204600F093F8022084F83800CC
:101860002068016821F0020101602068016841F0F0
:101870000101016000F09CFC0746032605E000BF63
:1018800000F096FCC01B0A2863D820684068C00797
:10189000F6D020684168C90768D0A16901290168AC
:1018A0003FD021F080010160E069012820680168D3
:1018B0003AD021F040010160206A012820680168C7
:1018C00035D021F020010160606A0128206801689C
:1018D00030D021F010010160A06A01282068016861
:1018E0002BD021F008010160E06A0128206801681E
:1018F00026D021F004010160D4E902010843D4E9B3
:101900000412114308436168491E08432168C861F5
:101910002068016821F00101016000F049FC0746E0
:101920001CE041F08001BEE741F04001C3E741F017
:101930002001C8E741F01001CDE741F00801D2E7EE
:1019400041F00401D7E700BF00F032FCC01B0A28B9
:1019500004D904F8386F0320657077E72068406881
:10196000C007F1D120684068C00703D0042084F884
:1019700038006AE7E563012084F83800002065E755
:10198000F0B5324B0768DFF8C0C0186803220224A4
:1019900009252F490026401C87B0674521D11860D2
:1019A000012807D1086840F000700860086800F05E
:1019B000007005908DE85400CDE90325694625485F
:1019C00000F006FB00220521132000F08BFC132001
:1019D00000F07CFC00220521142000F083FC142080
:1019E0002EE0DFF874C067452CD10F6847F08067A0
:1019F0000F600F68012807F080670597186007D10E
:101A0000086840F000700860086800F000700590F9
:101A10004FF440508DE85100CDE9032569460F4849
:101A200000F0D6FA002211463F2000F05BFC3F2078
:101A300000F04CFC00221146402000F053FC4020F6
:101A400000F044FC07B0F0BD0064004070000020CE
:101A500040380240000C0240006800400004024090
:101A600010B590F83820012A01D0122A39D190F807
:101A70003920012A35D0012280F8392090F8382009
:101A8000122A29D05FF0220280F838200022C26397
:101A900003685C6944F480745C6103685C6944F4C5
:101AA00000745C6103685C6944F480645C61036891
:101AB0005C6944F400645C6103685C6944F400445C
:101AC0005C6180F8392000680029416906D041F046
:101AD00010014161002010BD3222D5E741F0020122
:101AE000F7E7022010BD000010B50446406B006807
:101AF000A0F20120072816D81149C0B2087000EBE7
:101B00004001104800EB0110C16A4A1C3229C26230
:101B1000214602D806F0C8FC01E006F08DFC214603
:101B2000094806F089FC09480068416941F0020152
:101B3000416107480068416941F00201416110BDFF
:101B4000980B002010B3002010B500203CB10020FD
:101B50007CB100202DE9F05F0E46016804468868DC
:101B6000400105D48868000102D48868C00067D5A8
:101B700094F8390001280ED0012784F8397094F8C0
:101B8000380022280AD0122084F8380088684001E2
:101B900006D500250AE00220BDE8F09F3220F3E7D9
:101BA0008868000101D5012500E002254FF4C070CE
:101BB00000EB05100A5802F001020A50216B8A68F6
:101BC000EAB3D4F800C05CF800301343CA6849682F
:101BD00042EAC1010B434CF80030216B0A7C02F051
:101BE0000F020A614FF4C271226801EB05115358CC
:101BF00023F00F03535022685358D4F830C0DCF858
:101C000010C043EA0C035350216B4FF4C47303EB31
:101C100005130A7DD1F8151042EA01212268D1503E
:101C2000216B4FF4C67303EB05130A7ED1F819102C
:101C300042EA01212268D15021680A5801E00DE0F2
:101C400046E042F001020A5000F0B2FA81464FF03D
:101C50000008DFF888A0DFF888B019E02268135880
:101C6000D1F80CC0098843EA0C0343EA41511150F2
:101C7000B3E7701C0CD02EB100F09AFAA0EB09006B
:101C8000B04205D9032084F8380084F8398083E70E
:101C900095B12068012D816813D01248884300282F
:101CA000E7D194F8380032280ED084F8387000BF9D
:101CB00084F8398000206FE7206881682AEA0100F3
:101CC000EDE72BEA0100EAE7222084F83800EFE78D
:101CD000042084F8380001205EE7000003000004BF
:101CE0000003000800000310704790F83510022927
:101CF00003D08021416501207047052180F835100F
:101D00000068016821F001010160002070470000B7
:101D10002DE9F84304464FF00008CDF800806448F0
:101D20004FF41651A56D0068B0FBF1F72E6894F8DA
:101D30005C10082000FA01F131420FD021680A68D6
:101D400052070BD50A6822F004020A6094F85C106E
:101D50008840A860606D40F00100606594F85C10F8
:101D600054488840304208D021684969090604D5A2
:101D7000A860606D40F0020060654E4894F85C1009
:101D8000C01C8840304208D021680968890704D502
:101D9000A860606D40F00400606594F85C1010204D
:101DA0008840304218D021680968090714D5A86016
:101DB00020680168490304D50068000308D5A16CB8
:101DC00007E00168C90503D4016821F0080101603A
:101DD000216C09B12046884794F85C102020884087
:101DE00030424FF0010631D021680968C9062DD56F
:101DF000A86094F8350005282068016806D04903DA
:101E000047D5006800031DD4616C1CE021F0160169
:101E100001602068416921F080014161206C08B9AE
:101E2000A06C20B12068016821F00801016094F8DD
:101E30005C103F208840A86084F8348084F83560C6
:101E4000216D1FE0E16B09B120468847606D0028D5
:101E50002BD0606DC00714D0052084F835002068B1
:101E6000016821F0010101600098401C0090B84217
:101E700003D820680068C007F6D184F8348084F85D
:101E80003560E16C002910D001B02046BDE8F04378
:101E900008470168C905D5D4016821F01001016027
:101EA00084F8348084F83560CCE7BDE8F88300001E
:101EB00004000020010080002DE9F041044600F0FC
:101EC00077F906465CB1002584F83450022084F886
:101ED00035002068016821F0010101600DE001205A
:101EE000BDE8F08100F064F9801B052805D92020A9
:101EF0006065032084F83500F2E720680068C007B9
:101F0000F0D1226811681F480140D4E90103184349
:101F1000D4E903363343184363691843A36918436C
:101F2000E3691843236A18430843616A042903D10B
:101F3000D4E90B1319430843106020684069666AAE
:101F400020F0070130460E43012704280AD1A06A79
:101F500006432046FFF710FA20B14020606584F860
:101F60003570BCE7206846612046FFF7F1F994F828
:101F70005C203F2191408160656584F835700020C8
:101F8000AEE700003F8010F070B5044690F83400D2
:101F9000002501280CD0012084F8340094F8356025
:101FA0000020012E06D084F834000225284670BD9A
:101FB000022070BD022684F8356060652046FFF778
:101FC00005FA2068016841F001010160EEE70000B8
:101FD0002DE9F84FDFF890B100224FF001084FF0E3
:101FE000030A4FF00F090BF1040E00BF0B6808FA4B
:101FF00002F42340A3426ED14D68022D01D0122D70
:102000000ED1D50800EB850CDCF820505607F70EF2
:1020100009FA07F6B5430E69BE402E43CCF820609E
:10202000066855000F790AFA05FC07F0030726EA4F
:102030000C06AF40374307604E68012E05D0022ED4
:1020400003D0112E01D0122E0ED18768CE6827EA58
:102050000C07AE403E4386604668A6430C79C4F345
:102060000014944034434460C4688E6824EA0C042D
:10207000AE402643C6604C68E4006FD53B4C2568F3
:1020800045F480452560246822F0030504F480446B
:102090000094374C2E19D6F8084895072F0F09FAE7
:1020A00007F5AC43334DA84201D100252EE0324D57
:1020B000A84201D1012529E0304DA84201D10225D5
:1020C00024E02F4DA84201D103251FE02D4DA84249
:1020D00002D104251AE041E02B4DA84201D105258B
:1020E00014E02A4DA84201D106250FE0284DA84250
:1020F00001D107250AE0274DA84201D1082505E0B6
:10210000254DA84201D1092500E00A25BD402543FF
:10211000C6F80858DBF800405D464E689C43F6035D
:1021200000D51C432C60DEF8004075464E689C4389
:10213000B60300D51C432C600B4D08352C684E6847
:102140009C43F60200D51C432C60074D0C352C68CF
:102150004E689C43B60200D51C432C60521C102ACA
:10216000FFF444AFBDE8F88F003C01404438024022
:10217000003001400000024000040240000802401C
:10218000000C0240001002400014024000180240FF
:10219000001C024000200240002402400069084068
:1021A00000D0012070470AB1816170470904FBE744
:1021B00001480068704700000000002002480168E4
:1021C000491C016070470000000000200B4810B55A
:1021D000016841F400710160016841F480610160AF
:1021E000016841F480710160032000F09BF8002039
:1021F00000F006F800F03EF8002010BD003C024060
:1022000010B5014688B00022362000F06BF8362069
:1022100000F05CF813480024016841F010010160EF
:10222000006805A900F010000690684600F090F9DB
:1022300000F0B4F90C494000B0FBF1F10C480B4A36
:10224000491E026040F2E732C0E90324C0E90114EC
:1022500000F074FC10B1012008B010BD044800F07B
:10226000A7FCF9E74038024040420F000010004050
:102270009CAC002010B5032000F054F80022114659
:102280006FF00B0000F02EF8002211466FF00A00EC
:1022900000F028F8002211466FF0090000F022F843
:1022A00000221146501F00F01DF800221146101F99
:1022B00000F018F800220F21901E00F013F8002201
:1022C0000F21BDE81040501E00F00CB800F01F02B6
:1022D000012191404009800000F1E020C0F8001188
:1022E00070470000F0B40E4B1B680C46C3F302238A
:1022F000C3F10705042D00D90425191D072901D2B2
:10230000002300E0DB1E012606FA05F1491E2140EC
:1023100099409E40761E16403143F0BC02F030B822
:102320000CED00E0064900F0070208684FF6FF03D5
:10233000184040EA0220034A10430860704700003A
:102340000CED00E00000FA052DE9F8431E48016895
:1023500041F0805101600068012600F0805000903B
:10236000300490FAA0F0194FB0FA80F047F82060DE
:10237000FFF71EFF05464FF47A78154C05E000BFC5
:10238000FFF716FF401B404515D86068C003F7D51E
:102390004FF4003090FAA0F0B0FA80F047F82060D7
:1023A000FFF706FF0546464608E000BFFFF700FFBF
:1023B000401BB04202D90320BDE8F8836068800367
:1023C000F4D50020F8E700004038024000000E423B
:1023D000007000402DE9F047DFF8649105460F4694
:1023E000D9F8000000F00F01F8B28046B94208D2D7
:1023F000014689F80010D9F8000000F00F00B8423B
:1024000074D128784F4C800705D52068A96820F042
:10241000F000084320602878C00759D0494968680F
:10242000083901281AD002281BD0032819D00968BE
:10243000890700295ADA216821F00301014321604C
:10244000FFF7B6FE6968064641F28830012911D0CF
:1024500002291DD00329824627D035E00968890367
:10246000E7E709688901E4E7FFF7A2FE811B514510
:1024700001D926E082462068C0F381000128F3D10B
:1024800026E000BFFFF794FE811B514501D918E0FB
:1024900082462068C0F381000228F3D118E000BF13
:1024A000FFF786FE811B51450BD82068C0F38100E1
:1024B0000328F5D10CE000BFFFF77AFE811B5145E0
:1024C00002D90320BDE8F087206810F00C0FF3D18B
:1024D000D9F80010484601F00F01B94208D980F838
:1024E0000080006800F00F00B84201D00120E9E749
:1024F0002878400705D52068E96820F4E0500843B3
:1025000020602878000706D52068296920F46040FB
:1025100040EAC100206000F071F82168F02292FAD0
:10252000A2F201F0F001B2FA82F2D140064A515C07
:10253000C840064908600020FFF762FE0020C1E79E
:10254000003C024008380240F89A000804000020CD
:102550000F2202600C4A136803F003034360136800
:1025600003F0F0038360136803F4E053C360126860
:102570004FF4E05303EAD20202610448006800F01D
:102580000F0008607047000008380240003C02401D
:10259000014800687047000004000020084809490D
:1025A000006809684FF4E05292FAA2F201F4E05197
:1025B000B2FA82F2D140044A515CC8407047000030
:1025C0000400002008380240F89A00080848094929
:1025D000006809684FF4604292FAA2F201F4604187
:1025E000B2FA82F2D140044A515CC8407047000000
:1025F0000400002008380240F89A000830B5194855
:10260000006810F00C01184812D0184C04290ED0A4
:1026100008290DD11349091F0A6802F03F030A680F
:10262000550247F6C07204D5B4FBF3F003E0204630
:1026300030BDB0FBF3F00B680968134092FAA2F2C8
:10264000B2FA82F2D34058434FF4403292FAA2F2E7
:1026500001F44031B2FA82F2D140491C4900B0FB8A
:10266000F1F030BD083802400024F400001BB70030
:102670002DE9F84F0446DFF8CC820078A8F1040B6E
:10268000C007ABF1040537D0D8F800104046C1F3BD
:102690008101012908D00068C0F3810002280AD115
:1026A000DBF80000400206D52868800324D5606866
:1026B000002878D020E0A3492079891F087060683D
:1026C00068B1FFF775FD064605E000BFFFF770FD36
:1026D000801B642868D828688003F7D50CE0FFF7D2
:1026E00067FD064605E000BFFFF762FD801B64281A
:1026F000F0D828688003F7D42078934E80074FF0F5
:10270000010A4FF0000742D5D8F80010404611F0FA
:102710000C0F08D00068C0F3810002280AD1DBF852
:102720000000400206D42868800714D5E06801281C
:1027300039D110E0E068D8B1C6F800A0FFF738FD45
:10274000814605E0FFF734FDA0EB09000228C1D85F
:1027500028688007F6D52868F82292FAA2F2216943
:10276000B2FA82F220F0F8009140084328600EE0AF
:102770003760FFF71DFD814606E000BFFFF718FD3B
:10278000A0EB090002280FD828688007F6D420782B
:10279000000728D56D486169A1B1C0F800A0FFF716
:1027A00007FD814608E0CAE079E000BFFFF700FDC1
:1027B000A0EB0900022872D862486C3000688007DC
:1027C000F4D510E00760FFF7F3FC814606E000BF98
:1027D000FFF7EEFCA0EB0900022860D859486C30E6
:1027E00000688007F4D42078400749D55548383030
:1027F000016841F080510160006800F08050009055
:102800005348016841F480710160FFF7D1FC8146B3
:1028100006E000BFFFF7CCFCA0EB090002283ED881
:102820004B480068C005F5D5DFF81891207A09F10A
:10283000680989F80000A06888B1FFF7B9FC00902A
:1028400008E000BFFFF7B4FC0099411A41F288305C
:1028500081426CD8D9F800008007F3D510E0FFF76B
:10286000A7FC009008E000BFFFF7A2FC0099411A06
:1028700041F2883081425AD8D9F800008007F3D459
:10288000A069E0B3D8F80010C1F38101022956D045
:102890000228376604D0FFF78BFC04464AE046E086
:1028A000FFF786FC074604E0FFF782FCC01B022806
:1028B0003DD828688001F7D4D4E90701084347F6DA
:1028C000C07292FAA2F2616AB2FA82F29140A26AEE
:1028D0004FF0FF3303EB52024FF4403393FAA3F36C
:1028E000B3FA83F39A40114308434FF0706292FAAF
:1028F000A2F2E16AB2FA82F29140084300E01CE0E1
:10290000CBF80000C6F860A0FFF752FC044604E0D4
:10291000FFF74EFC001B022809D828688001F7D574
:102920000BE000BFFFF744FC001B022802D9032084
:10293000BDE8F88F28688001F4D40020F8E7012072
:10294000F6E700000838024000004742800E474288
:10295000007000407047000038B5044600684268C7
:1029600081684B0605D4CB0703D0530601D5216CF3
:1029700004E08B0707D5130605D5616C01B020462E
:10298000BDE83040084711F4B07F48D0930646D5E3
:102990004B060AD594F85130032B3DD0636D43F0BC
:1029A00004036365C368836800938B0609D5636D70
:1029B00043F00103636583680093036823F04003D9
:1029C0000360C80506D5606D40F0080060652068AA
:1029D00080680090606D002821D02068416821F057
:1029E000E0014160012084F85100900718D0206870
:1029F000416821F0030141600B4DE06C18B10565A1
:102A0000E06CFFF772F9A06C002808D00565A06C97
:102A1000BDE83840FFF769B9C1688068009038BDEB
:102A20002046FFF797FF38BD414A000870B5040003
:102A300005D00025A56294F8510010B106E00120F0
:102A400070BD84F85050204600F030F8022084F821
:102A500051002068016821F040010160D4E90101C2
:102A60000843D4E903121143084361690843218BE9
:102A700001F400710843E1690843216A0843A16A2F
:102A8000084321680860A069042101EA1040616AD6
:102A90000843216848602068C16921F40061C16170
:102AA0006565012084F85100002070BD00B5006804
:102AB0000E4987B0884217D10D480021026842F4C0
:102AC00080120260006800F4801005904FF460707E
:102AD00000900220CDE9010103200390052004901D
:102AE00069460448FFF774FA07B000BD0050014082
:102AF00044380240001402404FF0E02104280869E5
:102B000003D020F004000861704740F00400FAE7A9
:102B100010B5401EB0F1807F01D3012010BD4FF0F1
:102B2000E02460610F21601701F02AFC0020A06101
:102B300007202061002010BD7047704710B50400C9
:102B400003D094F8390010B107E0012010BD002037
:102B500084F83800204600F00DF8022084F839008F
:102B6000211D206802F010FB012084F839000020AC
:102B700010BD000008B500680B49884212D10B480F
:102B8000016841F0020101600068032200F00200C8
:102B9000009001211D20FFF7A5FBBDE808401D2086
:102BA000FFF794BB08BD000000040040403802401D
:102BB0000168CA6842F00102CA600068016841F019
:102BC00001010160002070472DE9F0412F4C4FF0CA
:102BD00000062078010638D42D4D41064FF2FF57EC
:102BE0000FD540F0800020700821284600F00AFB35
:102BF00060602868016A394001622868016A0162E0
:102C000020E04020666020702868016A41F21112BD
:102C1000114207D1016A9210114203D1016821F0DB
:102C200001010160286846622868016A3940016232
:102C30002868016A41F4007101622868016841F066
:102C400001010160207800061DD5114A60787832B4
:102C5000012806D1A178A38802EB4105491C6B80AD
:102C6000A1702178042904D3616840F6B8339942F1
:102C700001D9401C60706078022803D16670012081
:102C80001080A6702670BDE8F0810000640000206E
:102C9000D8AC00202DE9F041044690F838000D46EC
:102CA00001283DD0012684F83860022084F83900DC
:102CB000AAB3042A46D02068082A55D0D5E90027AF
:102CC000E968036A23F480530362D0F81CC0036AE6
:102CD0002CF4407C4CEA07274FF6FF7C27F4704722
:102CE0000CEA013139434FF4204723F4204307EA2B
:102CF00002321A43C16102622068C16921F4406155
:102D0000C1612068C169AA6841EA0221C0F81C10AB
:102D100084F83960002084F83800BDE8F08101E0D3
:102D20000220FAE7D5E90012EB68206802F04EFBBA
:102D30002068816921F00C01816120688169AA689D
:102D400011430FE0D5E90012EB68206802F080FB28
:102D50002068816921F44061816120688169AA68E5
:102D600041EA02218161D3E7D5E9002C2F7B016A7A
:102D700021F480710162C169036A21F0030141EA13
:102D80000C0121F0F00C39074FF420674CEA116177
:102D900023F4206307EA02221A43C1610262206819
:102DA000C16921F00C01C1612068C169AA681143A1
:102DB000ACE710B5040003D094F8390010B107E077
:102DC000012010BD002084F83800204600F00CF8E7
:102DD000022084F83900211D206802F0D5F9012075
:102DE00084F83900002010BD154800B5016887B08F
:102DF00041F001010160006800F0010005901048F9
:102E00001038016841F0010101600068694600F076
:102E1000010005900C2000900220019002900320F8
:102E20000390012004900748FFF7D2F80022052103
:102E30001C20FFF757FA1C20FFF748FA07B000BD27
:102E4000403802400000024010B50268044631B12B
:102E5000042908D0082915D00C2908D116E0D0681B
:102E600040F0020002E0D06840F00400D06001228F
:102E7000206802F0E9F92068016841F00101016071
:102E8000002010BDD06840F00800EFE7D06840F0A7
:102E90001000EBE770B50446006801694FF00005CB
:102EA000C943890715D4C168C943890711D4E91EEC
:102EB000016101202076206880698007204602D0C9
:102EC000FFF782FE04E000F098F8204600F072F967
:102ED000257620680169C943490717D4C168C943E9
:102EE000490713D46FF004010161022020762068A5
:102EF000806910F4407F204602D0FFF765FE04E0B1
:102F000000F07BF8204600F055F92576206801692D
:102F1000C943090716D4C168C943090712D46FF021
:102F200008010161042020762068C06980072046DE
:102F300002D0FFF749FE04E000F05FF8204600F001
:102F400039F9257620680169C943C90617D4C168D3
:102F5000C943C90613D46FF010010161082020761F
:102F60002068C06910F4407F204602D0FFF72CFE95
:102F700004E000F042F8204600F01CF925762068B5
:102F80000169C943C90708D1C168C943C90704D148
:102F9000891E0161204600F02BF920680169C943B0
:102FA000090609D4C168C943090605D46FF0800138
:102FB00001612046FFF7C0FD20680169C943490649
:102FC00009D4C168C943490605D46FF040010161C5
:102FD000204600F039F920680169C94389060BD4FD
:102FE000C168C943890607D46FF0200101612046FA
:102FF000BDE87040FFF7A1BD70BD704770B50446D5
:1030000090F838000D4601280DD0012684F838606C
:10301000022084F8390042B1042A18D0082A2AD0A4
:103020000C2A4DD139E0022070BD206802F018F959
:103030002068816941F0080181612068816921F07F
:1030400004018161206881692A69114311E02068C7
:1030500002F032F92068816941F4006181612068E1
:10306000816921F480618161206881692A6941EA6E
:103070000221816124E0206802F050F92068C169D2
:1030800041F00801C1612068C16921F00401C161FA
:103090002068C1692A69114311E0206802F06EF9C5
:1030A0002068C16941F40061C1612068C16921F4EF
:1030B0008061C1612068C1692A6941EA0221C16158
:1030C00084F83960002084F8380070BD10B5040021
:1030D00003D094F8390010B107E0012010BD0020A2
:1030E00084F83800204600F00DF8022084F83900FA
:1030F000211D206802F048F8012084F839000020E2
:1031000010BD000070B52749254E036825481039C9
:1031100002220124032586B0B34217D1036843F08D
:1031200040030360006800F040000590086840F02C
:10313000800008600868694600F080000590402023
:103140008DE8350009200490174819E0174EB34266
:103150001AD1036843F004030360006800F0040020
:103160000590086840F0080008600868694600F0AB
:10317000080005904FF470408DE835000C4804922B
:10318000FEF726FF06B070BDB3F1804FFAD101689B
:1031900041F001010160006800F001000590F1E7D5
:1031A0000018004040380240001C02400008004067
:1031B000000C02407047000010B504460068012270
:1031C00002F042F808492068884202D00749884244
:1031D00003D1416C41F4004141642068016841F031
:1031E00001010160002010BD000001400004014009
:1031F00000680349884201D1FEF7E0BF7047000034
:103200000010004090F838300022012B0AD0012332
:1032100080F8383041B1042909D008290AD00C2996
:103220000DD10AE00220704701684A6B07E001688F
:103230008A6B04E00168CA6B01E001680A6C002136
:1032400080F83810104670477047704770B50268B4
:1032500004461068D168536910F00F0F50D003F086
:10326000010501F4907635435DD0C20705D0CA054B
:1032700003D5E26B42F00102E263420705D5DA07AB
:1032800003D0E26B42F00202E263820705D5DA075F
:1032900003D0E26B42F00402E263020705D5DA07CD
:1032A00003D0E26B42F00802E263E26B002A33D003
:1032B000800604D5880602D5204602F029F9206848
:1032C0004069E16BC0F38010090700D428B32046A1
:1032D00002F010F92068416949061AD5416921F0C8
:1032E00040014161606BA0B11B490165606BFEF755
:1032F000FCFC002810D0606B016DBDE870400847F1
:10330000830610D58B060ED52046BDE8704002F02E
:10331000FFB82046FFF799FF70BD2046FFF795FFE5
:103320000020E06370BD030606D50B0604D52046D9
:10333000BDE8704002F088BA4006F3D54806F1D5E2
:10334000D168204621F04001D160202184F8391055
:1033500000F0FCF970BD0000E554000870B50400F1
:1033600004D094F83900002510B106E0012070BDAA
:1033700084F83850204600F023F8242084F83900DF
:103380002068C16821F40051C160204602F006F9AE
:103390002068016921F4904101612068416921F0B0
:1033A0002A0141612068C16841F40051C160E563B0
:1033B000202084F8390084F83A00002070BD000015
:1033C0002DE9F04FA6490546DFF890821039D0F874
:1033D00000C00024A24F022201230320DFF884E270
:1033E0000E1587B04FF0070A4FF0006B4FF480794D
:1033F000C44535D1D7F800C04CF4003CC7F800C034
:103400003F6807F4003705970F6847F008070F601B
:10341000096801F00801059160218DE80E00CDE9F1
:10342000030A69467046FEF7D3FD904F8E48386018
:10343000C7E901B4C7E903467C61C7E906493C62B4
:1034400038467C62FEF738FD08B1FDF7D4FF6F63A4
:10345000002211462620BD63FEF744FF26203BE0F4
:10346000DFF80C82C4453CD1D7F800C04CF4802C66
:10347000C7F800C03F6807F4802705970F6847F03A
:1034800008070F60096801F0080105914FF44071C9
:103490008DE80E00CDE9030A69467046FEF798FDF7
:1034A000724F7148603760383860C7E901B4C7E9C6
:1034B00003467C61C7E906493C6238467C62FEF7F8
:1034C000FBFC08B1FDF797FF6F6300220521272061
:1034D000BD63FEF707FF2720FEF7F8FE07B0BDE843
:1034E000F08FDFF890814FF0080A4FF0206BC44551
:1034F00039D15B4F3F1DD7F800C04CF0200CC7F806
:1035000000C03F6807F0200705970F6847F04007A5
:103510000F60096801F0400105914FF484418DE886
:103520000E00CDE9030A69465348FEF751FD4F4F9F
:103530005248C0373860C7E901B4C7E903467C6127
:10354000C7E906493C6238467C62FEF7B5FC08B123
:10355000FDF751FF6F63002205214720BD63FEF791
:10356000C1FE4720B8E7DFF81881DFF818E1C4454D
:1035700037D1D7F800C04CF0804CC7F800C03F6886
:1035800007F0804705970F6847F010070F6009683C
:1035900001F0100105914FF4C0718DE80E00CDE9E6
:1035A000030A69467046FEF713FD2F48364F303840
:1035B0003860C7E901B4C7E903467C61C7E9064939
:1035C0003C6238467C62FEF777FC08B1FDF713FFDA
:1035D0006F63002205215220BD63FEF783FE522057
:1035E0007AE7DFF8A880C4457FF478AFD7F800C049
:1035F0004CF0004CC7F800C03F6807F00047059743
:103600000F6847F010070F6009688DE80D0001F0A2
:103610001001CDE904A1039069467046FEF7D8FC7D
:10362000194F114860377838E7E8020B402051C73E
:10363000154847F814496030BC61FC613C627C620B
:10364000FEF73AFC08B1FDF7D6FE2F6300220521F4
:103650005320BD63FEF746FE53203DE70044004083
:1036600040380240000C024088600240A4AE0020B6
:103670000048004000140140001802402864024045
:103680000078004000100240C4AF0020007C0040E1
:1036900070472DE9F843044690F839001E46174656
:1036A0000D46202850D135B32FB394F838000128A7
:1036B0004AD0012084F838004FF00008C4F83C805C
:1036C000212084F83900FEF773FDA784E784814642
:1036D0004FF48057E08C4B46401EE084A0684FF0CA
:1036E0000002B8424FF080012046009611D102F04E
:1036F000DCF800BB02E00120BDE8F8832888C0F3B5
:10370000080120684160206908B16D1C08E0AD1C0B
:1037100006E002F0CAF870B9216815F8010B48609C
:10372000E08C0028D6D14B4600224021204600964E
:1037300002F0BBF808B10320DEE7202084F839004E
:1037400084F838800020D7E70220D5E77047FEE7ED
:1037500010B5002204210848FEF725FD074C002281
:1037600010212046FEF71FFD20460022BDE8104034
:103770002021FEF718BD000000200240000002409A
:1037800050B1094B01280BD002280CD10122202175
:103790004FEA0300FEF707BD012204210348F9E7C1
:1037A00001221021F4E7704700000240002002408F
:1037B0002DED048BB2EE048AFAEE048ADFF8F4B33E
:1037C000DFF8F493FD4DFE4CFE4E41F2707A142763
:1037D000642005F063FEDFF8F08340214046FEF7E9
:1037E000DDFCD0B101214046FEF7D8FC50B34FF4C8
:1037F00000684146F548FEF7D1FCA8B3F448F54906
:10380000007849788843E3D0642005F059F8DFF860
:10381000C88347E0142005F041FE40214046FEF7F2
:10382000BDFC0028F6D0002204214046FEF7BBFC78
:103830000120FFF7A5FF0020FFF7A2FF99E0142069
:1038400005F02CFE01214046FEF7A8FC0028F6D02A
:10385000002204214046FEF7A6FC0120FFF790FF5E
:103860000220FFF78DFFE4E103E0142005F016FECF
:1038700001E0D64D444621462846FEF78FFC00283D
:10388000F3D000220421D048FEF78DFC0020FFF782
:1038900077FF0220FFF774FF377071E24FF4FA7080
:1038A00005F0FCFD02214046FEF778FC0028F5D12A
:1038B000FFF74EFF0020FFF763FF40F2DC5005F0FA
:1038C000EDFDC64940F6741008604FF4FA68A9F897
:1038D000008037704FF4487005F0E0FDFFF738FFC7
:1038E000A9F800A09FEDBE0A022085ED000ACBF8E2
:1038F000000000203070404605F0D0FD022000F0AE
:103900004FFD0020FFF73CFFB248B1EE009A00786F
:1039100030B1C5ED008AC4ED008ADFF8C88218E036
:1039200085ED008A84ED008ADFF8B88202E032205B
:1039300004F0C6FFD4ED000A98ED000A70EEC90A43
:10394000B4EEE00AF1EE10FAF1D90DE0322004F005
:10395000B7FFD4ED000A98ED000A70EE890AB4EEC4
:10396000E00AF1EE10FAF1DAFFF7F2FE012000F0C2
:1039700017FDA9F800A00220CBF80000002030704D
:10398000C8464FF47A7005F089FD9248007830B14E
:10399000C5ED008AC4ED008A1120307017E085ED76
:1039A000008A84ED008A1020307002E0142004F0B8
:1039B00087FF8C48D4ED000A90ED000AB4EEE00ACF
:1039C000F1EE10FAF2D90CE0142004F079FF8548EA
:1039D000D4ED000A90ED000AB4EEE00AF1EE10FA20
:1039E000F2DA0020FFF7CCFE3770C82005F056FD54
:1039F000152030704FF4967005F050FD41F62C20E4
:103A0000A8F80000FEF7D4FB00EE100AB8EE400A5A
:103A100001F058FA40F6FC0005F040FD152030702A
:103A2000FEF7C6FB00EE100AB8EE400A01F04AFAB3
:103A300040F6FC0005F032FDA8F800A0FFF788FE74
:103A4000A8F800A0DFF88C810020307098F8000002
:103A50009FED658B48B1BAEE0D0A85ED000A84ED45
:103A6000000A0220CBF8000024E0B2EE0D0A85ED3A
:103A7000000A84ED000A0220CBF8000002E03220A8
:103A800004F01EFF2068FCF7F4FD53EC182BFCF744
:103A9000CCFC41EC190B53480068FCF7EAFD53ECF1
:103AA000192BFCF7F9FDEAD99FED510A16E03220F7
:103AB00004F006FF2068FCF7DCFD53EC182BFCF744
:103AC00013FC41EC190B47480068FCF7D2FD53EC9E
:103AD000192BFCF7F9FDEAD99FED460A012085ED87
:103AE000000A00F05DFC0020FFF74AFE98F8000095
:103AF0009FED418B9FED3A0A85ED000A84ED000AA7
:103B000018B118E0142004F0DBFE2068FCF7B1FDCA
:103B100053EC182BFCF7E8FB41EC190B314800681B
:103B2000FCF7A7FD53EC192BFCF7CEFD15D8E9E700
:103B3000142004F0C5FE2068FCF79BFD53EC182B05
:103B4000FCF773FC41EC190B26480068FCF791FD6B
:103B500053EC192BFCF7A0FDEAD9FFF7F9FD9FED17
:103B6000200A98F800009FED268B85ED000A84ED71
:103B7000000A20B110203070DFF8688047E0112083
:103B80003070DFF8608002E0142004F099FE2068B5
:103B9000FCF76FFD53EC182BFCF7A6FB41EC190B5F
:103BA000D8F80000FCF765FD53EC192BFCF78CFDF1
:103BB0003FD8E9E7480B00208E0B0020580B00206F
:103BC000400B0020A000002000200240001C02400A
:103BD000740B00209C0000200000024034080040CC
:103BE00000000000B8B200209A9999999999F13F84
:103BF0009A9959419A9959C1000000000000164055
:103C0000000000000000E03F142004F059FE20688E
:103C1000FCF72FFD53EC182BFCF707FC41EC190BBC
:103C2000D8F80000FCF725FD53EC192BFCF734FD08
:103C3000EAD9DFF8608100201FED178AA8F800A0FC
:103C4000307085ED008A0220CBF80000012000F0E2
:103C5000A7FB37704FF4FA7005F020FC41F62C2AD0
:103C6000A8F800A09FED4C0A4C4880ED000A9FED9B
:103C70004C0A4C484FF0150980ED000A86F8009078
:103C8000FEF796FA00EE100AB8EE400A01F01AF9B3
:103C900040F6980005F002FCDFF80C8198ED000A70
:103CA0009FED429BB5EEC00AF1EE10FA1CDB85EDEC
:103CB000008A84ED008A1120307002E00A2004F0AE
:103CC000FFFD2068FCF7D5FC53EC192BFCF70CFB2F
:103CD00041EC180BD8F80000FCF7CBFC53EC182B88
:103CE000FCF7F2FC21D8E9E7B5EEC00AF1EE10FAD4
:103CF0001BD885ED008A84ED008A1020307002E028
:103D00000A2004F0DDFD2068FCF7B3FC53EC192B0E
:103D1000FCF78BFB41EC180BD8F80000FCF7A9FC72
:103D200053EC182BFCF7B8FCEAD94C4686F8009007
:103D3000FEF73EFA00EE100AB8EE400A01F0C2F8B3
:103D400040F63405284605F0A9FB3470FEF730FA3A
:103D500000EE100AB8EE400A01F0B4F8284605F06B
:103D60009DFB3470FEF724FA00EE100AB8EE400A0C
:103D700001F0A8F8284605F091FB0649A1F800A03B
:103D80003770FDF747FA4FF4FA74204605F086FBCA
:103D9000FBE700008E0B002000003642940000205C
:103DA0006666E64198000020B8B200203333333312
:103DB0003333F33F0F4810B50D49016005214160D1
:103DC00000214FF400328160C0E903125201C0E9C2
:103DD00005210122C0E9072141628162C162FDF72C
:103DE0002BFD002803D0BDE81040FDF704BB10BD3B
:103DF000006400403CB10020104810B50E4901603D
:103E00000521416000214FF04072C0E902124FF4D9
:103E1000003202615201C0E905210122C0E90721F7
:103E200041628162C162FDF707FD002803D0BDE851
:103E30001040FDF7E0BA10BD006800407CB10020E2
:103E4000194808B5016841F400110160016801F4E6
:103E500000110091016841F48001016000680022B6
:103E600000F48000009005210B20FEF73BFA0B20A8
:103E7000FEF72CFA002205210C20FEF733FA0C2065
:103E8000FEF724FA002205210E20FEF72BFA0E2061
:103E9000FEF71CFA002205213920FEF723FABDE8BF
:103EA00008403920FEF712BA303802402DE9F047B9
:103EB000604886B00024016841F01001016001688B
:103EC00001F010010591016841F0020101600168F3
:103ED00001F002010591016841F0400101600168B3
:103EE00001F040010591016841F00801016001689D
:103EF00001F008010591016841F0010101600168CC
:103F000001F001010591016841F4807101600168CF
:103F100001F480710591016841F080010160016840
:103F200001F080010591016841F020010160006805
:103F3000DFF8048100F0200005900022882140462F
:103F4000FEF731F9012204214046FEF72CF9DFF893
:103F5000EC904FF40056002231464846FEF723F914
:103F6000DFF8DCA044F24007002239465046FEF755
:103F70001AF98C2000900125CDE90154694640468C
:103F80000394FEF725F8022000902E48CDE90105A4
:103F900069464046FEF71CF80096CDE90154694693
:103FA00048460394FEF714F84FF49060CDE90004FE
:103FB000694625480294FEF70BF80097CDE90154B5
:103FC000694650460394FEF703F83C20CDE900050E
:103FD0001E4E694602943046FDF7FAFF61208DE8D7
:103FE00031001B4F69463846FDF7F2FF4FF4E050B1
:103FF0008DE8310069463046FDF7EAFF0F208DE875
:104000003100144E69463046FDF7E2FF0420CDE949
:104010000005694602943846FDF7DAFF3020CDE905
:104020000005694602943046FDF7D2FF06B0BDE8B0
:10403000F0870000303802400010024000180240B3
:104040000014024000002110000C0240001C02403D
:10405000002002400000024010B50022052125206A
:10406000FEF740F92520FEF731F900220521262030
:10407000FEF738F92620FEF729F90022052127202E
:10408000FEF730F92720FEF721F90022052147200D
:10409000FEF728F94720FEF719F9002205215220E2
:1040A000FEF720F95220FEF711F9002205210C201D
:1040B000FEF718F90C20FEF709F900220521392036
:1040C000FEF710F9BDE810403920FEF7FFB80000F8
:1040D000104810B50E4901604FF482714160002113
:1040E0008160C1604FF400720161C0E905123022A5
:1040F000C0E90721416281620A21C162FEF796FC94
:10410000002803D0BDE81040FDF775B910BD0000D0
:1041100000500140E4B000200C4810B50A4901608D
:104120004FF4E1314160002181600C22C160C0E99F
:1041300004128161C161FFF711F9002803D0BDE8C5
:104140001040FDF758B910BD0078004024AE0020A3
:104150000C4810B50A4901604FF4E131416000217B
:1041600081600C22C160C0E904128161C161FFF766
:10417000F5F8002803D0BDE81040FDF73CB910BDAC
:10418000007C004064AE00200C4810B50A49016074
:104190004FF4E1314160002181600C22C160C0E92F
:1041A00004128161C161FFF7D9F8002803D0BDE88E
:1041B0001040FDF720B910BD0044004064AD002060
:1041C0000C4810B50A4901604FF4E131416000210B
:1041D00081600C22C160C0E904128161C161FFF7F6
:1041E000BDF8002803D0BDE81040FDF704B910BDAC
:1041F00000480040A4AD00200C4810B50A490160F9
:104200004FF4E1314160002181600C22C160C0E9BE
:1042100004128161C161FFF7A1F8002803D0BDE855
:104220001040FDF7E8B810BD00140140E4AD0020D7
:10423000FEE700002DE9F041434D40F6C4102DED9E
:10424000028B15262880414F42489FED410A3E705F
:1042500080ED000A9FED400A404880ED000AB7EE6D
:10426000000AFCF79FFEFDF726F84FF4966005F074
:1042700015F94FF4167028803A489FED390A3C4CE6
:1042800080ED000A9FED388B2068FCF7F2F953ECC3
:10429000182BFCF729F8FCF72FFA20606068FCF770
:1042A000E8F953EC182BFCF71FF8FCF725FA6060CF
:1042B000A068FCF7DEF953EC182BFCF7B6F8FCF716
:1042C0001BFAA060E068FCF7D4F953EC182BFCF75C
:1042D000ACF8FCF711FAE0602069FCF7CAF953EC7E
:1042E000182BFCF701F8FCF707FA20616069FCF76E
:1042F000C0F953EC182BFBF7F7FFFCF7FDF96061F1
:10430000A069FCF7B6F953EC182BFCF78EF8FCF714
:10431000F3F9A061E069FCF7ACF953EC182BFCF75A
:1043200084F8FCF7E9F91349E061012008704FF4C3
:10433000FA6005F0B3F84FF4D25028803E70BDEC1F
:10434000028BBDE8F08100008E0B0020A000002051
:1043500000000000B400002067908A41B8000020EF
:10436000000070C28C0000201F115322E599D9C0B3
:104370003CB200208C0B002004F0BEF9FCE7704733
:104380000907090E002806DA00F00F0000F1E0200E
:1043900080F8141D704700F1E02080F80014704789
:1043A0002DE9F041294D04464FF00A08002642F25B
:1043B00010770A36B6B2BE4245D0404605F06EF8D8
:1043C00000EE104AD5ED020AB8EEC00AF4EE400A3B
:1043D000F1EE10FAEDD1404605F060F800EE104A1B
:1043E000D5ED020AB8EEC00AF4EE400AF1EE10FA7A
:1043F000DFD1404605F052F800EE104AD5ED020A32
:10440000B8EEC00AF4EE400AF1EE10FAD1D14046FF
:1044100005F044F800EE104AD5ED020AB8EEC00AE5
:10442000F4EE400AF1EE10FAC3D1404605F036F83A
:1044300000EE104AD5ED020AB8EEC00AF4EE400ACA
:10444000F1EE10FAB5D1BDE8F081000004B3002010
:1044500030B4034C4466034C846630BC04F0CABBE1
:10446000F58B0008038C0008DFF88C82A34C08F55C
:104470001C792DED028B94B0A8F150059FEDA08A18
:1044800004F1100A2E789C4806EB460708EBC7019A
:1044900018221838FBF704FF09EB471160229748F0
:1044A000FBF7FEFE192E1DD2DFE806F0A3C4D9D912
:1044B000C4C4C4F2F0D9D9D9EF222E44718F4D5B18
:1044C0000D1D9A9DA00085ED058AB3EE050A85EDC8
:1044D000060AB7EE000AFCF765FD8A4890EC040A6C
:1044E000FCF7D8FEA2E04FF4FA7004F0D7FF9DE08D
:1044F000502251466846FBF7D3FEFFEE003ABFEE6E
:10450000003AFFEE002ACEE0502251466846FBF703
:10451000C7FEF7EE003AB7EE003AF7EE002AB7EE24
:10452000002AF6EE001AB0EE481AF6EE080AB5EECA
:10453000000ADEE0D5E91201FFEE005ABFEE005A94
:10454000FFEE004A2BE0502251466846FBF7A8FEDA
:10455000F7EE003AB7EE003AF7EE002AB7EE002A7F
:10456000BFE0502251466846FBF79AFEF7EE003A4C
:10457000B7EE003AF7EE002AB7EE002AF0EE481A3E
:104580009FED611ADFED610A9FED610AB1E0D5E9A7
:104590001201F7EE005ABFEE005AF7EE004ABFEEE6
:1045A000004A00BFCDE900012835B0EE482AB5EC3D
:1045B000040AF0EE423AB6EE003A95E80F00F6EE45
:1045C000002A383D03F020FE30E0D5E91201FFEE6D
:1045D000005AB7EE005AFFEE004AB7EE004AE1E794
:1045E000FCF70AFF22E000F079FC1FE0FFF722FE53
:1045F0001CE06878F0B1502246496846FBF750FE4F
:104600004448B0EE480A1038F7EE003A90E80F0040
:10461000B7EE003AF7EE002AB7EE002AF0EE401AA5
:10462000B6EE001AF6EE000A03F070FE0A2004F05F
:1046300035FF27E7502251466846FBF731FEF7EE7B
:10464000003AB7EE003AF7EE002A3AE0B0EE480A38
:10465000B6EE001AF0EE401AF6EE000A49E05022DB
:1046600051466846FBF71CFEF7EE003AB7EE003AFB
:10467000F7EE002AB7EE002AF6EE081AB5EE001A99
:10468000F6EE000AB0EE480A33E01DE00EE0FFE768
:10469000502251466846FBF703FEF7EE003ABFEEA4
:1046A000003AF7EE002ABFEE002ACFE7502251462B
:1046B0006846FBF7F5FDFFEE003AB7EE003AFFEE75
:1046C000002AB7EE002AC1E7502251466846FBF7A0
:1046D000E7FDFFEE003ABFEE003AFFEE002ABFEE24
:1046E000002AB0EE480AF6EE001AB6EE001AF0EE16
:1046F000400A94E80F0097E7F0000020BCB10020CA
:1047000000000000389B0008CDCC4C3E3333333FD3
:104710006666663FF00A00202DED048B4FF480564C
:1047200040F2DC57DFF81082DFF810A2DFF81092B9
:10473000F1EE008A4FF0150B9FED828A9FED829A71
:10474000824C314645464046FDF728FD08B92078A1
:1047500040B131462846FDF721FDB0B12CE01420D0
:1047600004F09CFE31462846FDF718FD0028F6D0DF
:1047700000F0B4FB01202070002204217448FDF7F2
:1047800012FD0220FEF7FCFF16E0207818B913E0B6
:10479000142004F083FE31462846FDF7FFFC002874
:1047A000F6D000234FF4FA6201211846FCF732FBE1
:1047B000FFF740FD00202070B9F80A004D46B842CE
:1047C00003D816E0C82004F069FE6889B842F9D819
:1047D0008AF800B0FDF7ECFC00EE100AB8EE400AD3
:1047E00000F070FB4FF4FA6004F058FE59A001F09D
:1047F000B5F8E888A0F24F21452936D228894FF430
:104800009572A0F25921914213D8A0F561704042EF
:1048100000EE100A51481021B8EEC00AC0EE080A96
:1048200020EEA80A84ED050A8AF8001080ED610ADE
:1048300014E0A0F21551914212D8481C00EE100A63
:1048400046481121F8EEC00A80EE880A20EE280AB8
:1048500084ED050A8AF8001080ED670A322018E01E
:1048600004F028FB8AF800B012E0A0F525718C292D
:1048700005D204F01FFB14218AF8001008E0A0F50F
:104880004871642908D204F015FB00208AF8000062
:10489000052004F003FE4AE0A0F56170B0F52F7F1B
:1048A00045D2052004F0FAFDE888DFED2D0A00EE80
:1048B000100ADFED2C1AB8EE400A30EE600AC0EEA6
:1048C000080AB0EE080A60EE800AC4ED010A6888A2
:1048D00001EE100AB8EE411A31EE611AC1EE081A63
:1048E00021EE800A84ED020A30EE801A30EEC00A12
:1048F00084ED031AB5EEC01A84ED040AF1EE10FA45
:1049000001D284ED039AB5EEC00AF1EE10FA01D29D
:1049100084ED049A144894ED030A80ED010A80EDB9
:104920000D0A94ED040A80ED070A80ED130A642055
:1049300004F0B4FD05E70000001C0240A0000020C8
:1049400050AD00200000C84200000000740B0020A1
:10495000002002404A554D500D0A0000F000002092
:104960000000614400608944E00A00201FB5274C24
:1049700020212046FDF712FC18B11FBDC82004F00D
:104980008DFD20212046FDF709FC0028F6D00023EC
:104990004FF4FA6201211846FCF73CFA1C49012049
:1049A0000022087004212046FDF7FDFB0020FEF7E1
:1049B000E7FE0120FEF7E4FE1649142008704FF4CC
:1049C000967004F06BFD1448406904F09BFDC8200C
:1049D00004F064FD04F0F0FC0F4906220020009270
:1049E0001431CDE90110034603904FF480720BA1FE
:1049F0000F4804F0C9FE04F0FFFC04B0204600227A
:104A0000BDE810400421FDF7CEBB000000200240AD
:104A10009D000020A0000020740000204C6F6769FA
:104A200063616C466C6F775F7461736B00000000AC
:104A3000B13700080148FDF78FBF0000E4B0002047
:104A400010B5806B0021C187C186FDF783FF10BDC3
:104A500070B506461C4A1B48002482E853001046E5
:104A60001461FEF733FB184860253C30760805607A
:104A7000C0E90164014600223C38FEF7BFFA00217C
:104A80001148FEF799FB1048042258300146056092
:104A9000C0E901645838FEF7B1FA04210A48FEF76C
:104AA0008BFB09480822743001460560C0E90164A7
:104AB0007438FEF7A3FABDE8704008210248FEF7FB
:104AC0007BBB000000080040E0BE002070B58E49AE
:104AD0002DED068B8A789FED8D8BD1ED07AA91ED98
:104AE00008AA8C4CF1EE6A9AB1EE4A9A002A7AD062
:104AF0008D6830B101282AD002284ED0032874D006
:104B0000FCE02846FBF7B5FD41EC1A0B19EE900AC4
:104B1000FBF7AFFD53EC182BFBF78DFC53EC1A2B76
:104B2000FBF7E2FBFBF7E8FD60602846FBF7A1FD21
:104B300041EC1A0B19EE100AFBF79BFD53EC182BF6
:104B4000FBF779FC53EC1A2BFBF76FFC8EE0284641
:104B5000FBF78FFD41EC190B1AEE900AFBF789FD6C
:104B600053EC182BFBF767FC53EC192BFBF75DFCA0
:104B7000FBF7C2FDA0602846FBF77BFD41EC190B5B
:104B80001AEE100AFBF775FD53EC182BFBF753FCDC
:104B900053EC192BFBF7A8FB7FE02846FBF769FDD8
:104BA00041EC1A0B19EE900AFBF763FD53EC182B3E
:104BB000FBF741FC53EC1A2BFBF796FBFBF79CFD34
:104BC00060612846FBF755FD41EC1A0B19EE100AFF
:104BD000FBF74FFD53EC182BFBF72DFC53EC1A2B76
:104BE000FBF723FC70E026E0FFE72846FBF741FDDA
:104BF00041EC190B1AEE900AFBF73BFD53EC182B16
:104C0000FBF719FC53EC192BFBF70FFCFBF774FDBA
:104C1000A0612846FBF72DFD41EC190B1AEE100A96
:104C2000FBF727FD53EC182BFBF705FC53EC192B76
:104C3000FBF75AFB5FE030B101281BD0022830D0CF
:104C4000032845D05AE019EE900AFBF712FD53EC09
:104C5000182BFBF7F0FBFBF74FFD606019EE100A15
:104C6000FBF707FD53EC182BFBF7E5FBFBF744FDC7
:104C7000206043E01AEE900AFBF7FBFC53EC182B84
:104C8000FBF7D9FBFBF738FDA0601AEE100AFBF723
:104C9000F0FC53EC182BFBF7CEFBFBF72DFDE0608F
:104CA0002CE019EE900AFBF7E4FC53EC182BFBF711
:104CB000C2FBFBF721FD606119EE100AFBF7D9FC7E
:104CC00053EC182BFBF7B7FBFBF716FD206115E043
:104CD0001AEE900AFBF7CDFC53EC182BFBF7ABFB5D
:104CE000FBF70AFDA0611AEE100AFBF7C2FC53ECB9
:104CF000182BFBF7A0FBFBF7FFFCE0610649012046
:104D00000870BDEC068B70BDA00000203201BF46CC
:104D1000D24E7B403CB200208C0B00200FB42DED16
:104D2000020B70B5614C2DED0A8B94ED041ADDED8C
:104D3000151A139E30EE412A94ED031A109D9DED35
:104D400012CA01EE821A9DED148ADDED118A84EDFE
:104D5000031A84ED040A31EE200A10EE100AFBF764
:104D600088FC41EC100B9FED529BB0EE491AF0EE1F
:104D7000691A01F0DDF951EC100BFBF7BDFC0AEEEE
:104D8000100A9FED4DBBDFED4EAAB4EEC8AAF1EEBE
:104D900010FA36D818EE900AFBF76BFC53EC1B2B7D
:104DA000FBF749FB8AEE080A41EC190B20EE280AB2
:104DB00010EE100AFBF75DFC53EC192BFBF735FBEB
:104DC000FBF79AFC60612846FBF753FC6AEE2A0A5F
:104DD00041EC190B80EE880A10EE100AFBF749FC33
:104DE00041EC100B02F050F8B0EE408AB1EE4C0AE4
:104DF000F0EE608A10EE100AFBF73BFC53EC182B28
:104E000046E018EE100AFBF734FC53EC192BFBF7C5
:104E10000FFB3AEE480A41EC190B10EE100AFBF7B3
:104E200028FC53EC192BFBF778FBFBF765FC08EE2D
:104E3000100A18EE900AFBF71CFC53EC1B2BFBF737
:104E4000FAFA28EE680A41EC190B10EE100AFBF78B
:104E500010FC53EC192BFBF747FAFBF74DFC606194
:104E60002846FBF706FC28EE2A0A41EC190B10EE47
:104E7000100AFBF7FEFB41EC100B02F005F8B0EE58
:104E8000408AF0EE608A3046FBF7F3FB53EC182BB8
:104E9000FBF7D1FA53EC192BFBF726FAFBF72CFCA6
:104EA000A061BDEC0A8B70BC5DF81CFBA00000206B
:104EB000000000000000F03F000000000000E03FA4
:104EC000DB0F49400348044980ED000A16200870B2
:104ED0007047000090000020A00000202DE9F04164
:104EE000444E454F15252DED028B4FF4167035704D
:104EF00038809FED420A424880ED000A9FED418BC9
:104F0000424C2068FBF7B5FB53EC182BFBF7ECF990
:104F1000FBF7F2FB20606068FBF7ABFB53EC182B50
:104F2000FBF7E2F9FBF7E8FB6060A068FBF7A1FB89
:104F300053EC182BFBF779FAFBF7DEFBA060E06877
:104F4000FBF797FB53EC182BFBF76FFAFBF7D4FB3F
:104F5000E0602069FBF78DFB53EC182BFBF7C4F9DD
:104F6000FBF7CAFB20616069FBF783FB53EC182B4E
:104F7000FBF7BAF9FBF7C0FB6061A069FBF779FBAF
:104F800053EC182BFBF751FAFBF7B6FBA061E06975
:104F9000FBF76FFB53EC182BFBF747FAFBF7ACFB67
:104FA0001B49E0610120087040F2DC5004F076FA01
:104FB0004FF4C0711748FBF78CF99FED170A17499A
:104FC000002000BF01EB800282ED000A04EB8002AA
:104FD000401C82ED000A0828F4DB35704FF4FA70AB
:104FE00004F05CFA4FF4D2503880BDEC028BBDE87F
:104FF000F0810000A00000208E0B00200000704215
:105000008C0000201F115322E599D9403CB20020AA
:105010008C0B002010B30020000000001CB2002008
:1050200003F055BC30B5264893B00025016841F027
:1050300080510160006800F08050119021480168A3
:1050400041F4404101600068022400F440401190A6
:105050000120009001908005CDE9064006200890CF
:10506000B420CDE9090404200B906846FDF700FB4D
:1050700000B1FEE7FDF768F900B1FEE70CA90F20CB
:1050800081E831004FF4A0500F904FF48050109001
:1050900005210CA8FDF79EF900B1FEE7FDF778FAAF
:1050A0004FF47A71B0FBF1F0FDF732FD0420FDF70B
:1050B00023FD00220F21501EFDF714F913B030BD5F
:1050C00040380240007000401048016841F470010F
:1050D00001600F48016841F0010101600C4A0021A4
:1050E0000832116002680B4B1A400260031D0A4A25
:1050F0001A60026822F48022026005480C300160C8
:1051000002495806803908607047000088ED00E0C9
:1051100000380240FFFFF6FE103000247FB5104C2F
:1051200000254FF08042C4E902502561C4E9002106
:105130002046FDF73EFE0120CDE9005002950822F1
:10514000694620460395FDF7A5FD08212046FDF799
:105150007BFE2068C16841F00101C1607FBD000095
:10516000D8AC00200148FDF795BE0000D8AC002067
:105170000148FDF78FBE000014AD00200148FDF787
:1051800089BE00009CAC0020F0B50268234B244D82
:10519000244E254F254C4FF0804C984209D0604555
:1051A00007D0A84205D0B04203D0B84201D0A042F7
:1051B00004D122F0700E4A6842EA0E0298421BD0D7
:1051C000604519D0A84217D0B04215D0B84213D0CC
:1051D000A04211D0164DA8420ED0164DA8420BD0B9
:1051E000154DA84208D0154DA84205D0144DA8422F
:1051F00002D0144DA84203D122F44075CA682A4354
:1052000002608A68C2620A688262984201D0A04243
:1052100001D10969016301214161F0BD0000014034
:105220000004004000080040000C00400004014061
:105230000040014000440140004801400018004087
:10524000001C00400020004010B50123046A8B4080
:105250009C430462036A8A401343036210BD00004A
:1052600030B5026A22F001020262026A4368846970
:105270000D6824F07304254322F002048A68224357
:105280000B4CA04202D00B4CA0420BD122F00804E0
:10529000CA6823F4407322434C6922F004021C4381
:1052A0008B6923434360856149684163026230BD75
:1052B000000001400004014030B5026A22F01002F3
:1052C0000262026A436884690D6824F4E64444EA91
:1052D00005248D6822F0200242EA05120D4DA842F5
:1052E00002D00D4DA8420ED1CD6822F0800242EAD4
:1052F00005124D6923F4406343EA85038D6922F06A
:10530000400243EA85034360846149688163026225
:1053100030BD0000000001400004014030B5026AC9
:1053200022F480720262036A4268C46923F4007343
:1053300024F073050C682C438D6843EA05230D4D5A
:10534000A84202D00C4DA8420ED1CD6823F40063D0
:1053500043EA05234D6922F4405242EA05128D6961
:1053600023F4806342EA05124260C4614968C16364
:10537000036230BD000001400004014030B5026A04
:1053800022F480520262046A4268C3690D6823F401
:10539000E64343EA05238D6824F4005444EA0534C7
:1053A000084DA84202D0084DA84204D14D6922F40C
:1053B000804242EA85124260C36149680164046226
:1053C00030BD0000000001400004014070B5046AD7
:1053D00024F0010404628469056A164EB04214D0B8
:1053E000B0F1804F11D0144EB0420ED0134EB042E7
:1053F0000BD0134EB04208D0124EB04205D0124E20
:10540000B04202D0114EB04203D124F00304144341
:1054100003E024F0030242F001041A0724F0F00430
:1054200044EA126225F00A0301F00A01194382617D
:10543000016270BD0000014000040040000800400F
:10544000000C0040000401400040014000180040F2
:1054500030B5046A24F0100404628469056A24F4F7
:10546000407444EA022222F470444FF6FF7202EACA
:1054700003322243A02425F0A00304EA01111943BA
:105480008261016230BD000086B00B4CC82004F080
:1054900005F8FFF76BFA60890DF1040C238AE289A5
:1054A000A1898CE80F0020890090E388A288618898
:1054B000024800F053FAE9E750AD002060A0000870
:1054C00010B5044803F063FEBDE810400148FDF745
:1054D000BDBE000024AE00200148FDF7B7BE0000AD
:1054E00064AE002010B5806B0021C185C184FDF73A
:1054F000ACFE10BD0168CA6822F49072CA600168EF
:105500004A6922F001024A61202180F83A1070476E
:1055100010B590F83A10222901D0022010BD816800
:10552000B1F5805F11D00169002901681FD0496879
:1055300001F07F03816A4A1C82620B70C18D491E93
:105540000904090CC18518D026E00269816A002A85
:105550000268526805D0D2B20A80816A491C816211
:10556000ECE7C2F308020A80816A891CF7E74A68FF
:10557000816A4B1C83620A70E0E70168CA6822F402
:105580009072CA6001684A6922F001024A612021D2
:1055900080F83A10FEF77CF8002010BD2DE9F041AC
:1055A00004460068016921F44052E1681143016139
:1055B0002168C86849F20C6290432369A268E569D2
:1055C0001A4363692B431A430243CA60216848693E
:1055D00020F44072A06910434861E1696425B1F587
:1055E000004F9748974A21684FF032083FD09142C8
:1055F00001D081427CD1FCF7E9FF00EBC00101EB57
:10560000001061688900B0FBF1F6FCF7DFFF00EBEA
:10561000C00101EB001061688900B0FBF1F0B0FB44
:10562000F5F06FF01801484306EB800108EB01101C
:10563000B0FBF5F000F0F006FCF7C8FF00EBC0018E
:1056400001EB001061688900B0FBF1F0B0FBF5F0F0
:1056500006EB0016FCF7BAFF00EBC00101EB0010EF
:1056600061688900B0FBF1F7FCF7B0FFD2E091422E
:1056700001D081423DD1FCF7A9FF00EBC00101EB55
:10568000001061684900B0FBF1F0B0FBF5F00601D5
:10569000FCF79CFF00EBC00101EB001061684900C2
:1056A000B0FBF1F7FCF792FF00EBC00101EB00103B
:1056B00061684900B0FBF1F0B0FBF5F06FF0180144
:1056C000484307EB800108EBC100B0FBF5F000F0A8
:1056D000F80006EB4006FCF779FF00EBC00101EB98
:1056E000001061684900B0FBF1F7FCF76FFF3CE088
:1056F00055E0FCF753FF00EBC00101EB00106168BF
:105700004900B0FBF1F0B0FBF5F00601FCF746FFF5
:1057100000EBC00101EB001061684900B0FBF1F73C
:10572000FCF73CFF00EBC00101EB00106168490091
:10573000B0FBF1F0B0FBF5F06FF01801484307EB58
:10574000800108EBC100B0FBF5F000F0F80006EBBB
:105750004006FCF723FF00EBC00101EB001061687D
:105760004900B0FBF1F7FCF719FF00EBC00101EBBA
:10577000001061684900B0FBF1F0B0FBF5F06FF08C
:105780001801484307EB800108EBC100B0FBF5F0BE
:1057900000F00700216830448860BDE8F081FCF724
:1057A000FDFE00EBC00101EB001061688900B0FB59
:1057B000F1F6FCF7F3FE00EBC00101EB00106168AD
:1057C0008900B0FBF1F0B0FBF5F06FF01801484331
:1057D00006EB800108EB0110B0FBF5F000F0F006DD
:1057E000FCF7DCFE00EBC00101EB001061688900F2
:1057F000B0FBF1F0B0FBF5F006EB0016FCF7CEFEC7
:1058000000EBC00101EB001061688900B0FBF1F70B
:10581000FCF7C4FE00EBC00101EB001061688900D9
:10582000B0FBF1F0B0FBF5F06FF01801484307EB67
:10583000800108EB0110B0FBF5F000F00F00A9E7C4
:10584000001401400010014090F83910212901D0C6
:10585000022070478168B1F5805F016A0BD04A1C55
:105860000262026809785160C18C491E0904090C62
:10587000C1840ED017E009880268C1F308015160A5
:1058800001690029016A02D0491C0162ECE7891C08
:10589000FBE70168CA6822F08002CA600068C1683C
:1058A00041F04001C160002070472DE9F041984669
:1058B00017460E460446069D1DE0681C1BD02DB100
:1058C000FCF776FCA0EB0800A84214D92068C16858
:1058D00021F4D071C1602068416921F0010141616A
:1058E000202084F8390084F83A00002084F8380039
:1058F0000320BDE8F0812068006836EA000004D08B
:105900000020B842D9D00020F3E70120F9E70000D9
:1059100010B5044803F03BFCBDE810400148FDF71A
:1059200095BC000064AD002010B5044803F02FFCC6
:10593000BDE810400148FDF789BC0000A4AD00207F
:1059400010B5044803F023FCBDE810400148FDF702
:105950007DBC0000E4AD0020FEE700000FB4054B65
:1059600010B503A9044A029802F04EF810BC5DF885
:1059700014FB0000E5810008A40B002003B401988B
:105980004100009850EAC12018BF04204A0D18BFFA
:1059900040F0010040F2FF72B2EB515F08BF40F0EF
:1059A0000200012808BF052002B070470000000077
:1059B00010B5B94A2DED020B2DED0C8B82B00F996D
:1059C00021F000409FEDB6CB90422CDBA0F140537C
:1059D0000E9AA3F17F631A430FD0B349884202DCC9
:1059E00016D10E98A0B19DED0E0B02B0BDEC0C8B44
:1059F00002B0BDE8104001F0EBBE0029C1BF9FED31
:105A0000AC0B02B0BDEC0C8B02B0C8BF10BD16E0F1
:105A1000012001F031FF02B0BDEC0C8B02B0BDE8FB
:105A2000104001F0E9BEA44A9FEDA59B9FEDA6ABF7
:105A300090425EDAA6499FEDA8CB814208DBB0EE2A
:105A40004C0AF0EE6C0A02B0BDEC0C8B02B010BD3B
:105A50009DED0E0B53EC102B51EC100BFAF7EBFCF9
:105A600041EC180B9E480621B0EE480AF0EE680A99
:105A7000784401F081FD53EC182B51EC100BFAF730
:105A8000DAFC41EC1B0B9748B0EE480AF0EE680ACE
:105A90000421784401F070FD53EC182B51EC100BED
:105AA000FAF7C9FC53EC192BFAF71EFC41EC100B6A
:105AB00051EC1B0B53EC102BFAF72FFD41EC100BA4
:105AC00053EC102B9DED0E0B51EC100BFAF7B3FCC1
:105AD00053EC1A2BFAF7ACFC9DED0E1B53EC112B7B
:105AE000FAF7A6FC53EC1C2BFAF7A2FC41EC100BC6
:105AF000A9E79FED7D8B9FED7EBB9DED0E0B0029F1
:105B000053EC192B51EC100B52DAFAF7EDFB53EC76
:105B1000182BFAF790FC41EC180B77480621B0EEF1
:105B2000480AF0EE680A784401F026FD53EC182B81
:105B300051EC100BFAF77FFC41EC1D0B6F48B0EEF7
:105B4000480AF0EE680A0421784401F015FD53EC90
:105B5000182B51EC100BFAF76EFC53EC192BFAF7DB
:105B6000C3FB41EC190B51EC180B03F04DFA41EC5F
:105B7000180B53EC192B51EC1D0BFAF7CEFC53EC20
:105B8000182BFAF758FC53EC1A2BFAF74EFC41ECA1
:105B9000100B51EC180B53EC102BFAF7A5FB53EC40
:105BA0001B2BFAF748FC53EC1C2BFAF741FC6DE079
:105BB000FAF73EFC53EC182BFAF73DFC41EC180BBE
:105BC00003F022FA41EC1A0B00208DED00AB00909F
:105BD0009DED000B51EC1A0B53EC102BFAF784FBE4
:105BE0009DED000B41EC1C0B53EC102B51EC100BFA
:105BF000FAF721FC53EC182BFAF71AFC53EC1C2B88
:105C0000FAF78BFC41EC1C0B3D48B0EE480AF0EE75
:105C1000680A0621784401F0AFFC53EC182B51ECD4
:105C2000100BFAF708FC41EC1D0B3648B0EE480AA1
:105C3000F0EE680A0421784401F09EFC53EC182B26
:105C400051EC100BFAF7F7FB53EC192BFAF74CFB5E
:105C500041EC100B51EC1D0B53EC102BFAF75DFCD3
:105C600053EC1A2BFAF7E7FB53EC1C2BFAF73CFB2F
:105C700041EC100B53EC102B9DED000B51EC100B75
:105C8000FAF732FB53EC1B2BFAF7D5FB41EC100B68
:105C9000D9E60000000000000000F03F0000000016
:105CA000182D4454FB2109400000F07F0000000043
:105CB00000000000000000000000E03F00000000C5
:105CC000000000000000F03F075C143326A6913C62
:105CD0000000603C00000000182D4454FB21F93FF7
:105CE0009C430000AA430000000000000000E03FC9
:105CF0000000000000000040E6420000F442000006
:105D0000F84100000642000070B5C1482DED020BBD
:105D10002DED0E8B82B0119D25F000449FEDBEDB72
:105D20009FEDBFEB84423EDBA4F140511098A1F1FE
:105D30007F6108430FD0BC48844202DC28D1109810
:105D400030B39DED100B02B0BDEC0E8B02B0BDE880
:105D5000704001F03DBD9DED100B53EC1D2B51EC3F
:105D6000100BFAF768FB9DED100B41EC180B53EC90
:105D70001E2B51EC100BFAF75EFB53EC182BFAF7C5
:105D8000B3FA41EC100B02B0BDEC0E8B02B070BD4B
:105D9000012001F071FD02B0BDEC0E8B02B0BDE838
:105DA000704001F029BDA1489FEDA18B844256DAD5
:105DB0009DED100BB4F1795F0ADA51EC100BFFF78F
:105DC000DDFD042808BF01F037FD9DED100BDAE77B
:105DD00053EC102B51EC100BFAF72DFB41EC190B87
:105DE00095480621B0EE490AF0EE690A784401F0C0
:105DF000C3FB53EC192B51EC100BFAF71CFB41ECD5
:105E00001A0B8E48B0EE490AF0EE690A0421784474
:105E100001F0B2FB53EC192B51EC100BFAF70BFB12
:105E200053EC182BFAF760FA41EC100B51EC1A0BFB
:105E300053EC102BFAF771FBCDE900019DED000B3F
:105E400053EC102B9DED100B51EC100BFAF7F3FAFD
:105E50009DED101B53EC112BFAF746FAD2E09DEDA5
:105E6000100B51EC100B02F0A7F953EC182BFAF7BA
:105E7000DFFA9FED730BCDE9000153EC102B9DED84
:105E8000000B51EC100BFAF7D6FA41EC190B6E48E7
:105E90000621B0EE490AF0EE690A784401F06CFB85
:105EA00053EC192B51EC100BFAF7C5FA41EC1B0B14
:105EB0006648B0EE490AF0EE690A0421784401F020
:105EC0005BFB53EC192B51EC100BFAF7B4FA53ECC3
:105ED000182BFAF709FA41EC1C0B51EC190B03F0E3
:105EE00093F841EC180B5A489FED5BABA04222DCC3
:105EF00053EC1C2B51EC1B0BFAF70FFBCDE9000107
:105F00009DED000B51EC180B53EC102BFAF793FAA4
:105F100053EC182BFAF7E8F953EC1A2BFAF78BFA33
:105F200053EC1D2BFAF781FA53EC1E2BFAF780FA8B
:105F300041EC100B5FE08DED008B002000909DED9B
:105F4000000B51EC180B53EC102BFAF7CDF99DED2B
:105F5000000B41EC1E0B53EC102B51EC100BFAF71D
:105F60006AFA53EC192BFAF763FA53EC1E2BFAF783
:105F7000D4FA41EC190B53EC1C2B51EC1B0BFAF728
:105F8000CCFA41EC1B0B53EC1A2B51EC190BFAF722
:105F900052FA53EC1D2BFAF74BFA41EC190B53EC68
:105FA0001A2B51EC180BFAF746FA53EC1B2BFAF7A5
:105FB00042FA53EC192BFAF738FA9DED000B41EC3D
:105FC000180B53EC1A2B51EC100BFAF734FA9FED27
:105FD000249B53EC192BFAF72BFA41EC100B51ECE4
:105FE000180B53EC102BFAF720FA53EC192BFAF795
:105FF0001FFA41EC100B002D3FF7C5AE51EC100B12
:1060000081F0004141EC100BBDE6000000000000F3
:106010000000F03F00000000075C143326A6913C0E
:10602000182D4454FB21F93F0000F07F0000E03FB1
:10603000000000000000F03F704000007E400000C3
:10604000000000000000E03FC23F0000D03F000021
:106050003333EF3F0000000000000000000000406C
:10606000182D4454FB21E93F10B52F499FED2C1BFF
:106070002DED020B84B0059820F000408842D8BF77
:106080009DED040B2DDD2949884209D1049840B9C2
:106090004FF0010001F0F0FB01F0AEFB06B010BDC7
:1060A00005DB9DED040B01F093FB06B010BD6846C7
:1060B0009DED040B00F08CFF10F0030004BF9DED7C
:1060C000021B9DED000B0CD001280ED09DED021B94
:1060D0009DED000B022817D0012001F0C9FA06B08F
:1060E00010BD01F091F906B010BD9DED021B9DEDB4
:1060F000000B012001F0BCFA51EC100B81F00041C3
:1061000006B041EC100B10BD01F07EF951EC100B04
:1061100081F0004106B041EC100B10BD0000000002
:106120000000000000000000FB21E93F0000F07FBC
:1061300010B52DED040B86B09DED060B10EE100A88
:1061400010EE901A8DED000B002818BF01200843B7
:1061500020F00040C0F17F6000F1E040C00F21D18D
:106160009DED080B10EE101A10EE900A8DED000B4D
:10617000002918BF0121084320F00040C0F17F60D2
:1061800000F1E040C00F0DD129490798B1EB400F55
:1061900004BF0698002842D00998400004BF089820
:1061A00000283CD09DED080B53EC102B9DED060B09
:1061B00051EC100BFAF730FCCDE902019DED020B1A
:1061C00040F2FF7110EE900A8DED000B31EA105095
:1061D00021D00798039900F0004001F00041884267
:1061E00019D09DED080B8DED040B9DED020B8DED8F
:1061F000000B10EE900A059961F31E0005909DEDCD
:10620000041B9DED020B51EC110B53EC102BFAF714
:106210000FF9CDE902019DED020B0AB010BD01207E
:1062200001F02AFB0AB0BDE8104001F0E5BA000019
:106230000000E0FF000000002DE9F04D2DED040B03
:106240002DED0E8B96B0DDE92550279CDDF890A052
:1062500025F0004624F00048BAF1000F14BF0121D8
:10626000002101EB4502FC4953184A1093422AD3FE
:10627000002814BF0123002303EB44030B44F74918
:106280008B4220D358EA00019FEDF59B76D0DFF8D2
:10629000D8B35D4503D1BAF1000F05D188E0BAF15A
:1062A000000F08BF002100D0012101EB450111F5CD
:1062B000001F08D8002814BF0121002101EB440170
:1062C00011F5001F0BD99DED261B9DED240B16B07B
:1062D000BDEC0E8B04B0BDE8F04D01F083BA002791
:1062E000002DBCBFE149884521DAE1498845A8BFB6
:1062F00002271CDAC3451ADCDE4901EB28511429B8
:1063000008DDC1F1340220FA02F101FA02F2824200
:106310000DD108E058B9C1F1140228FA02F101FACE
:1063200002F2424503D101F00101C1F1020756EA30
:106330000A0124D1002C22DA002D18BF022F01D02F
:10634000012F0AD0022001F097FA16B0BDEC0E8B97
:1063500004B0BDE8F04D01F023BA022001F08CFA40
:1063600001F01EFA51EC100B81F0004141EC100BD2
:1063700016B0BDEC0E8B04B0BDE8F08D18E09FEDBB
:10638000BEAB9FEDBF8B002871D1B848804522D1AC
:1063900005F1804010F5801008BFBAF1000F07D05A
:1063A000B3450ADC002CA8BF9DED260BE0DA0DE01A
:1063B000B0EE490AF0EE690ADAE7002C06DA9DED44
:1063C000260B51EC100B81F000416FE0AE48784491
:1063D00090ED000BCCE7D8454DD1002C48DA2EB11A
:1063E00086423AD1BAF1000F42D126E0BAF1000F4D
:1063F00013D0022001F040FA01F00EFA8DED020BED
:106400009DED240B8DED000B10EE900A039961F3C6
:106410001E0003909DED020BAAE78DED02AB9DEDF2
:10642000240B1AEE901A10EE900A8DED000B61F31A
:106430001E0003909DED020B9AE78DED028B9DED02
:10644000240B18EE901A10EE900A8DED000B61F3FC
:106450001E0003909DED020B8AE709DA9DED240BE7
:1064600051EC190B53EC102BFAF757F81EE020E013
:106470009DED240B7CE786421BDAB4F1804F0DD0F2
:10648000A4F10050B0F1FF5013D1002D11DB9DEDB0
:10649000240B51EC100B02F0B7FD07E09DED240B2F
:1064A00053EC102B51EC100B00F0C2BC41EC100B64
:1064B0005EE79DED240B51EC100B01F07DFEBAF16F
:1064C000000FCDE90E0142D19FED710B46B3A6F14D
:1064D000E040B0F17F600CD05E4538D1002D00DA8D
:1064E000A7B3022F0CBF01204FF0FF30FAF784F85A
:1064F000DCE7002D01DD002C0DDA002D01DD002C84
:106500001FDB002D16DA002C14DB012F08BF9FEDD6
:10651000620B3FF42DAFB0EE4A0AF0EE6A0A27E7AD
:10652000022F18BF002D0CD0012F0AD1002DFFF62D
:106530001FAF06E0002DB8BF002C08DA012F3FF492
:1065400017AFB0EE480AF0EE680A11E71BE0012031
:1065500000EBE57050EA070115D0791EB0EE498ACC
:10656000F0EE698A084308BF9FED4D8B4E48002529
:10657000804570DD4D494E48884514DDB0420DDB45
:10658000002C19DB2FE0012001F076F916B0BDECEC
:106590000E8B04B0BDE8F04D01F02EB9B34502DC1E
:1065A000002C09DC1FE0864202DA002C1BDA03E033
:1065B0005E452BDD002C16DD022001F05DF901F0B7
:1065C0002BF98DED020B53EC1A2B51EC180BF9F74C
:1065D00032FFCDE900010399019861F31E00039099
:1065E0009DED020BC4E6022001F046F901F024F90A
:1065F00010EE901A18EE900A8DED020B8DED008BC7
:1066000061F31E0003909DED020BB1E69DED0E0BB4
:1066100053EC192B51EC100BF9F707FF9FED260BEC
:10662000CDE9080153EC102B9DED080B51EC100B3C
:10663000F9F701FF9FED221B53EC112BF9F7F8FE40
:106640009DED081B53EC112BF9F7F5FE9FED1E1B7A
:1066500053EC112B3CE08CE0FFFF1F00FFFF0F000D
:10666000000000000000F03F0000F03F0000F07F5D
:106670000000404301FCFFFF000000000000F07F2D
:106680000000000000000000963B00000000000039
:106690000000000000000080000000000000F0FF8B
:1066A000000000000000F0BF0000E0410000F043E7
:1066B000FFFFEF3F00000000000000000000D03F9F
:1066C000555555555555D53F000000000000E03F99
:1066D000F9F7AEFE9DED080B41EC1A0B53EC102BB5
:1066E00051EC100BF9F7A7FE53EC1A2BF9F7A3FEA8
:1066F00041EC1A0B9FEDFE0B53EC102B9DED080B9C
:1067000051EC100BF9F797FE41EC1B0B9FEDFA0BC8
:1067100051EC1A0B53EC102BF9F78DFE41EC1A0BD0
:106720009FEDF70B53EC102B9DED080B51EC100B6C
:10673000F9F781FE53EC1A2BF9F777FE41EC1A0BAF
:1067400051EC1B0B53EC1A2BF9F7CEFD0690CDE95B
:1067500006519DED060B53EC1B2B51EC100BF9F77A
:1067600064FE53EC1A2BF9F763FE41EC100B00F0BA
:10677000A1B90020B6F5801F0EDA9FEDE30B53ECB4
:10678000102B9DED0E0B51EC100BF9F754FECDE9DB
:106790000E016FF034000E4600EB2650A0F2FF37DA
:1067A000C6F31300DA4940F07F6646F0405688424F
:1067B000D8BF002408DDD7498142C8BF012403DCCB
:1067C0000024A6F580167F1CD348784400EBC40053
:1067D0000F9690ED00CB9DED0E0B53EC1C2B51EC66
:1067E000100BF9F722FE9DED0E0B41EC1B0B53EC49
:1067F0001C2B51EC100BF9F777FD41EC100B51EC11
:10680000190B53EC102BF9F788FE41EC1D0B51ECE2
:106810001B0B53EC1D2BF9F70EFE41EC1A0BBF4876
:106820008DED10AB7844109590ED000B4FF00050BB
:1068300040EA660000EB84408DED080B00F5002077
:1068400009909DED080B53EC1C2B51EC100BF9F744
:10685000ECFD9DED0E1B53EC112BF9F7E9FD41EC1E
:10686000100B53EC102B9DED100B51EC100BF9F7A6
:10687000E2FD9DED080B41EC1C0B53EC102B9DED44
:10688000100B51EC100BF9F7D6FD53EC1B2BF9F75D
:10689000CFFD53EC1C2BF9F7C8FD53EC1D2BF9F77A
:1068A000CAFD41EC1C0B53EC1A2B51EC1A0BF9F7F7
:1068B000C2FD41EC1B0B9A480621B0EE4B0AF0EEEC
:1068C0006B0A784400F058FEB0EE401AF0EE601A01
:1068D000B0EE41DAF0EE61DA53EC1B2B51EC1B0BFE
:1068E000F9F7A9FD53EC1D2BF9F7A5FD9DED100B54
:1068F00041EC1B0B53EC1A2B51EC100BF9F7F4FC89
:1069000053EC1C2BF9F797FD53EC1B2BF9F7ECFC20
:106910009DED100B41EC1B0B53EC102B51EC100BAD
:10692000F9F789FD41EC1D0B9FED7FEB53EC1E2B1E
:10693000F9F7DAFC53EC1B2BF9F7D6FC0890CDE9FC
:1069400008519DED080B53EC1E2B51EC100BF9F781
:106950006CFD53EC1D2BF9F768FD53EC1B2BF9F77D
:1069600067FD9DED080B41EC1D0B53EC102B9DEDCD
:10697000100B51EC100BF9F75EFD41EC1B0B53ECC7
:106980001A2B51EC1D0BF9F756FD9DED080B41EC50
:106990001A0B53EC102B51EC1C0BF9F74CFD53EC7C
:1069A0001A2BF9F7A1FC41EC1A0B51EC1B0B53EC21
:1069B0001A2BF9F799FC0C90CDE90C519DED0C0BBD
:1069C00053EC1B2B51EC100BF9F72FFD53EC1A2B4A
:1069D000F9F72EFD41EC1B0B9FED550B53EC102BE3
:1069E0009DED0C0B51EC100BF9F725FD41EC1A0B4A
:1069F0009FED510B51EC1B0B53EC102BF9F71BFDCA
:106A000041EC1B0B9FED4E0B53EC102B9DED0C0B33
:106A100051EC100BF9F70FFD53EC1B2BF9F764FC4D
:106A200041EC100B4848784400EBC40090ED001B8B
:106A300051EC100B53EC112BF9F756FC41EC1B0BEE
:106A40003846F9F7D9FDCDE9080153EC1B2B51EC81
:106A50001A0BF9F749FC41EC100B3C48784400EB69
:106A6000C40090ED00CB51EC100B53EC1C2BF9F74C
:106A70003BFC9DED081B53EC112BF9F735FC069000
:106A8000CDE906519DED080B53EC102B9DED060B47
:106A900051EC100BF9F7C9FC53EC1C2BF9F7C5FCB2
:106AA00053EC1A2BF9F7C1FC53EC1B2BF9F7C0FC84
:106AB00041EC100B9DED261B53EC102B8DED001BB4
:106AC00000959DED260B51EC100BF9F7B4FC9DEDF4
:106AD000000B41EC1A0B53EC102B9DED260B51ECE7
:106AE000100BF9F7A2FC9DED061B53EC112B2FE0C8
:106AF000000000604715F73FFE822B654715F73F02
:106B000044DF5DF80BAE543E00000000000040433F
:106B10008E9803007AB60B00E23600004037000082
:106B20001A360000000000000000000000000840CD
:106B3000000000E009C7EE3FFD033ADC09C7EE3F65
:106B4000F5015B14E02F3EBEA63400006034000067
:106B5000F9F771FC53EC1A2BF9F7C6FB9DED060B08
:106B600041EC1A0B53EC102B9DED000B51EC100B6C
:106B7000F9F761FCCDE90C019DED0C0B51EC1A0B02
:106B800053EC102BF9F7B0FBCDE902010C46AA49F2
:106B90008C422FDB611A084318D19DED0C0B53EC8E
:106BA000102B9DED020B51EC100BF9F73EFC41EC64
:106BB0001B0B9FEDA30B51EC1A0B53EC102BF9F7A9
:106BC00093FB53EC1B2BF9F77FFD2DD2022000F035
:106BD00053FE00F021FE10EE901A18EE900A8DED93
:106BE000020B8DED008B61F31E0003909DED020BF7
:106BF000FFF7BEBB944A24F00041914214D393495D
:106C0000214408437FF4EFAC9DED0C0B53EC102BAB
:106C10009DED020B51EC100BF9F707FC53EC1A2B0E
:106C2000F9F752FD7FF6DFAC24F000408849894A2D
:106C3000002601EB205182422BDA481C4FF48011D0
:106C400021FA00F02044844AC0F30A517A44A1F2A8
:106C5000FF3192ED000B814A8DED080BCA4020EA0E
:106C60000202C0F3130040F48010C1F1140120FAB5
:106C700001F60992002CB8BF76429DED080B53EC4B
:106C8000102B9DED0C0B51EC100BF9F7CEFBCDE961
:106C90000C019DED0C0B51EC1A0B53EC102BF9F77A
:106CA00023FB9FED6F0B0890CDE9085153EC102B9F
:106CB0009DED080B51EC100BF9F7BDFB41EC1B0BE4
:106CC0009FED690B53EC102B9DED080B51EC100B55
:106CD000F9F7B1FB9DED0C0B41EC1C0B53EC102BA9
:106CE0009DED080B51EC100BF9F79FFB53EC1A2BA1
:106CF000F9F79EFB9FED5E1B53EC112BF9F79BFB05
:106D000053EC1C2BF9F7F0FA41EC1A0B51EC1B0B6E
:106D100053EC1A2BF9F7E8FACDE902019DED020BCD
:106D200053EC1B2B51EC100BF9F77FFB53EC1A2B98
:106D3000F9F77EFB9DED020B41EC1A0B53EC102B87
:106D400051EC100BF9F777FBCDE908014A489DEDAE
:106D5000080B0521784400F00FFC9DED081B51EC59
:106D6000100B53EC112BF9F766FB9DED021B53EC56
:106D7000112BF9F75DFBCDE906019DED020B53ECFC
:106D80001A2B51EC100BF9F756FB53EC1A2BF9F7B1
:106D9000ABFA9FED3B0B41EC1A0B53EC102B9DED26
:106DA000060B51EC100BF9F740FB9DED060B41EC87
:106DB0001B0B53EC102B9DED020B51EC100BF9F754
:106DC0003AFB53EC1B2BF9F7A8FB53EC1A2BF9F702
:106DD0002CFB9DED021B53EC112BF9F726FB53EC1A
:106DE000192BF9F725FBCDE9020101EB065001153E
:106DF0000029C8BF039015DC9DED020B324651EC13
:106E0000100BF9F7A1FDFEF7B9FD042808BF00F04B
:106E100013FD32469DED020B51EC100BF9F794FD7A
:106E2000CDE902019DED020B51EC180B53EC102B38
:106E3000F9F701FBFFF73ABB0000904000000000AB
:106E4000FE822B654715973C00CC904000346F3F85
:106E500001FCFFFF0000E03F18330000FFFF0F00C0
:106E600000000000432EE63F396CA80C615C20BE98
:106E7000EF39FAFE422EE63FB83100000000000074
:106E8000000000000000004010B52F499FED2C1BB2
:106E90002DED020B84B0059820F000408842DCBF45
:106EA00000209DED040B32DD2849884209D1049869
:106EB00040B94FF0010000F0DFFC00F09DFC06B08F
:106EC00010BD05DB9DED040B00F082FC06B010BD8B
:106ED00068469DED040B00F07BF810F0030011D024
:106EE000012818D09DED021B9DED000B02281AD041
:106EF00000F08AFA51EC100B81F0004106B041EC31
:106F0000100B10BD9DED021B9DED000B012000F04C
:106F1000AFFB06B010BD9DED021B9DED000B00F018
:106F200073FA06B010BD012000F0A2FB51EC100B6B
:106F300081F0004106B041EC100B10BD00000000D4
:106F40000000000000000000FB21E93F0000F07F8E
:106F500000B52DED048BB0EE409AF0EE609A83B050
:106F600051EC190BF9F707FD41EC180B18EE100A5C
:106F700018EE901A8DED008B002818BF01200843F1
:106F800020F00040C0F17F6000F1E040C00F14D05D
:106F900019EE101A19EE900A8DED009B002918BF0A
:106FA0000121084320F00040C0F17F6000F1E04083
:106FB000C00F04BF012000F05FFCB0EE480A03B030
:106FC000F0EE680ABDEC048B00BD0000000000007C
:106FD0002DE9F14F04462DED020B2DED088B8AB003
:106FE0009FEDE70B80ED020B139EE74826F000456E
:106FF00085420ADC9DED120B002084ED000B0AB0E7
:10700000BDEC088B03B0BDE8F08FE0489FEDE0AB2E
:107010009FEDE1BBA84247DDE14F9FEDE39B9FED74
:10702000E48B9DED120B53EC1A2B51EC100B002E40
:107030001CDDF9F7FAF941EC100BBD4208D053EC16
:107040001B2B51EC100BF9F7F0F9C4E900010BE030
:1070500053EC192B51EC100BF9F7E7F953EC182B03
:10706000F9F7E3F9C4E900010120C8E7F9F73CF9B1
:1070700041EC100BBD4208D053EC1B2B51EC100B14
:10708000F9F732F9C4E900010BE053EC192B51EC8C
:10709000100BF9F729F953EC182BF9F725F9C4E986
:1070A00000014FF0FF30AAE7C348A84279DB9DED0D
:1070B000120B51EC100B01F07FF841EC180B9FED17
:1070C000C00B53EC102BF9F7B6F99FEDBF1B53EC37
:1070D000112BF9F709F9F9F7ADFA0746F9F78CFA28
:1070E00041EC190B53EC1A2BF9F7A5F953EC182BBB
:1070F000F9F79EF941EC180B53EC1B2B51EC190BD3
:10710000F9F799F9DFF8C8A241EC100B4FEA1558CE
:107110000125FA4453EC102B51EC180BF9F785F9C3
:10712000032DC4E900013DD0C1F30A5005EB451120
:10713000A8EB00001139814234DA0AEB051BB0EEEE
:1071400048AA9BED000BF0EE68AA53EC102B51EC13
:10715000190BF9F770F941EC1B0B51EC1A0B53ECBE
:107160001B2BF9F762F941EC180B51EC1A0B53EC9D
:10717000182BF9F75AF953EC1B2BF9F756F99BED3D
:10718000020B41EC1A0B53EC102B51EC190BF9F7D5
:1071900052F953EC1A2BF9F748F941EC100B6D1C1E
:1071A000B8E70EE0002EA8BF3846BFF628AF94ED32
:1071B000000B51EC100B81F00041C4E90001784252
:1071C0001DE7C6F3130040F4801EC6F30A50A0F278
:1071D000F530471100F01F05C5F12000DDF848B07B
:1071E00008900020069007900520EC467949002D74
:1071F00007EB0002794408BF51F8221009D051F87A
:10720000223001EB8201AB404A68089922FA01F171
:107210001943A1FB0E26A1FB0B131A449A4234BF5B
:107220000123002303EB06080CEB8003D3E901A63E
:107230000E448E4234BF0121002192448A4411B190
:10724000924502D903E0924501D2012100E00021DC
:10725000C3E901A641444CF82010011EA0F1010031
:10726000C4DC029800F10050850F0298DDE9036745
:107270008000DDF81480F9F7BFF941EC1A0B3046B5
:10728000F9F7CBF99FED541B53EC112BF9F7D3F819
:1072900041EC1B0B3846F9F7C0F99FED511B53EC3D
:1072A000112BF9F7C8F841EC180B4046F9F7B5F97E
:1072B0009FED4D1B53EC112BF9F7BDF841EC190B69
:1072C00051EC180B53EC192BF9F70EF853EC1B2B60
:1072D000F9F70AF853EC1A2BF9F706F8CDE908018B
:1072E000002008909DED080B53EC1A2B51EC100B6D
:1072F000F9F79BF853EC1B2BF9F797F853EC182B85
:10730000F9F793F853EC192BF9F792F89FED381B26
:1073100053EC112BF9F78FF89FED370B41EC180B5D
:1073200053EC102B9DED080B51EC100BF9F783F883
:1073300053EC182BF8F7D8FF9FED310B41EC180BED
:1073400053EC102B9DED080B51EC100BF9F773F873
:1073500053EC182BF8F7C8FF41EC100B139810F002
:10736000004F06D06D4251EC100B81F0004141EC12
:10737000100B284684ED000B41E6000000000000E1
:107380000000000000000000FB21E93F7CD9024022
:1073900000004054FB21F93F3163621A61B4D03DD3
:1073A000FB21F93F000000000000601A61B4D03DED
:1073B0007370032E8A19A33BFB21394100000000A2
:1073C00083C8C96D305FE43F000000000000E03F6B
:1073D0005A2E0000A82D0000000000000000103E02
:1073E000000000000000103C000000000000103A07
:1073F000182D4454FB21F93D3326A611460B113CB0
:1074000000000054FB21F93D10B52DED040B2DEDCE
:10741000088B82B0B0EE419AF0EE619A0B9820F0A2
:1074200000449FED4BABB4F1795F11DA9DED0A0B8F
:1074300051EC100BF9F7FEF8002801BFB0EE4A0A34
:10744000F0EE6A0A02B0BDEC088B04BF04B010BDB8
:107450009DED0A0B53EC102B51EC100BF8F7EBFFE2
:1074600041EC180B3C480621B0EE480AF0EE680AE1
:10747000784400F081F853EC182B51EC100BF8F71E
:10748000DAFF9DED0A0B41EC1B0B53EC192B51EC71
:10749000100BF8F7D0FF41EC190B53EC1B2B51EC00
:1074A000180BF8F7C8FF53EC192BF8F7BEFF9FED48
:1074B0002C0B41EC190B53EC102B51EC180BF8F77B
:1074C000BAFF41EC100B2848844210DA53EC192B18
:1074D00051EC100BF8F7A9FF53EC1A2BF8F7A8FFA3
:1074E00041EC100B02B0BDEC088B04B010BD1F487E
:1074F000A042BCBF9FED1E1B8DED001B06DBA4F55B
:1075000000100190002000909DED001B51EC100B2D
:1075100053EC112BF8F789FF9DED000B41EC180B94
:1075200053EC102B51EC1A0BF8F77FFF41EC1A0BC0
:1075300053EC192B51EC180BF8F777FF53EC1A2B7F
:10754000F8F776FF41EC100BCCE7000000000000DC
:10755000000000000000F03FC42A0000000000000E
:10756000000000000000E03F3333D33F0000E93F5C
:10757000000000000000D23F70B504462DED028BE4
:107580004D1E00EBC500B0EE408AF0EE608A90ED33
:10759000000B35F0060017D053EC182B51EC100BF4
:1075A000F8F749FF41EC100B6D1E04EBC50090EDA0
:1075B000001B51EC100B53EC112BF8F795FE41EC2E
:1075C000100B35F00600E7D1022D36D0042D1CD06B
:1075D000062D1CBFBDEC028B70BD53EC182B51EC7B
:1075E000100BF8F728FF94ED0A1B53EC112BF8F75A
:1075F0007BFE53EC182BF8F71EFF94ED081B53ECA1
:10760000112BF8F771FE41EC100B53EC182B51ECD9
:10761000100BF8F710FF94ED061B53EC112BF8F745
:1076200063FE53EC182BF8F706FF94ED040B53ECB4
:10763000102BF8F759FE41EC100B53EC182B51ECC2
:10764000100BF8F7F8FE94ED021B53EC112BF8F732
:107650004BFE53EC182BF8F7EEFE94ED001B53ECA9
:10766000112BF8F741FEBDEC028B41EC100B70BD05
:1076700031B504462DED040B2DED0A8BB0EE41BA69
:10768000F0EE61BA0B989DED0A0B20F00040B0F1CE
:10769000795F0DDA51EC100BFEF770F9042808BF82
:1076A00000F0CAF89DED0A0BBDEC0A8B05B030BDA9
:1076B00053EC102B51EC100BF8F7BDFE41EC180BFE
:1076C0009DED0A0B53EC182B51EC100BF8F7B3FEA1
:1076D00041EC190B2C48B0EE480AF0EE680A05217F
:1076E0007844FFF749FF9FED2ACBB0EE40AAF0EEB9
:1076F00060AA9CB353EC1C2B51EC190BF8F79BFEC2
:1077000041EC1C0B53EC1A2B51EC190BF8F793FEC0
:107710009FED210B41EC190B53EC102B51EC1B0B83
:10772000F8F789FE53EC192BF8F77FFE53EC182B72
:10773000F8F781FE53EC1B2BF8F777FE53EC1C2B6C
:10774000F8F773FE9DED0A1B53EC112BF8F770FE52
:10775000BDEC0A8B05B041EC100B30BDFFE753ECDC
:107760001A2B51EC180BF8F766FE53EC1C2BF8F7AC
:10777000BBFD53EC192BF8F75EFE9DED0A1B53EC95
:10778000112BF8F7B1FDE3E75429000000000000D9
:10779000495555555555C5BF000000000000E03F54
:1077A0009FED070B10B553EC102B9FED070B51EC21
:1077B000100BF8F7B2FE41EC100B10BD00000000FA
:1077C0000000000000000000000000000000F03F8A
:1077D00010B553EC102B51EC100BF8F785FD41EC74
:1077E000100B10BD10B553EC112B51EC100BF8F72A
:1077F0007BFD41EC100B10BD9FED050B10B553EC5C
:10780000102B51EC100BF8F788FE41EC100B10BD5B
:1078100000000000000000009FED050B10B553ECC8
:10782000102B51EC100BF8F706FE41EC100B10BDBD
:1078300000000000000000709FED050B10B553EC38
:10784000102B51EC100BF8F7F6FD41EC100B10BDAE
:10785000000000000000001002E008C8121F08C16C
:10786000002AFAD170477047002001E001C1121FC1
:10787000002AFBD1704700000149086070470000F2
:10788000A80B00202DE9FF5F82B00021DDE9043064
:10789000020DDDF840B0034318D044F61050A2F2B8
:1078A000FF3242431514119801281FD0A5EB0B009D
:1078B000401C5FEA000A4FF000064E4FDFF8389197
:1078C000B046504615D5CAF1000413E011980124C2
:1078D0004AA3012801D16FEA0B010298119AC0E96D
:1078E0000031C0E9024206B0BDE8F09FCBF10000D4
:1078F000DFE704460021404A491842EB0450CDE935
:10790000001012E0E00707D032463B4640464946A9
:10791000F8F791FD8046894632463B4610461946A7
:10792000F8F789FD06460F466410002CEAD1DDE920
:107930000401DDE90023BAF1000F06DAF8F77BFD58
:1079400042464B46F8F777FD05E0F8F7E6FD42467C
:107950004B46F8F7E2FD04460E460022284BF8F7A6
:10796000B3FE03D84FF0FF30014607E00022254B5D
:1079700020463146F8F7B8FCF9F791F8102409E0F1
:10798000002C0ADB0A220023F8F7E8FE039B3032C2
:107990001A55641E50EA0102F2D1641C039AC4F124
:1079A00011031444119A012A03D0012208430DD176
:1079B0000AE0084304D000204FF0110B119072E749
:1079C000A3EB0B056D1E0DE05B4504DD4FF00002DF
:1079D00005F1010504E003DA4FF00002A5F101050D
:1079E000002AECD002981199C0E90231C0E90045A3
:1079F00079E70000000014400000F03F3000000074
:107A00000000F0430000E03F2DE9FF4F95B09B469A
:107A10008946064600250FE2252877D1002427460F
:107A2000F84A0121059400E0044316F8013F203B89
:107A300001FA03F01042F7D130782A2811D06FF004
:107A40002F033078A0F13002092A16D8059A44F0A5
:107A5000020402EB820203EB42021044761C059002
:107A6000EFE759F8042B0592002A03DA504244F458
:107A70000054059044F00204761C30782E2816D16C
:107A800016F8010F44F004042A280DD06FF02F02DD
:107A90003078A0F13003092B09D807EB870302EBFC
:107AA0004303C718761CF3E759F8047B761C30783B
:107AB0006C280FD006DC4C2817D068280DD06A2817
:107AC00014D104E0742810D07A280FD10DE044F4CA
:107AD00000140AE044F4801401E044F44014727885
:107AE000824202D104F58014761C761C3078662818
:107AF0000BD013DC582877D009DC002875D0452836
:107B0000F6D04628F4D047281AD19DE118E0632822
:107B100035D0642879D0652812D195E1702873D0CA
:107B200008DC6728F1D069286FD06E280DD06F2847
:107B300006D1B5E073282CD0752875D0782874D07C
:107B40005A46179990476D1C75E1C4F302500228FC
:107B500009D003280DD0D9F8001004280DD00D60ED
:107B600009F1040967E1D9F80010EA17C1E90052E8
:107B7000F6E7D9F800100D80F2E70D70F0E719F87C
:107B8000041B8DF8001000208DF80100EA4601204A
:107B900003E059F804AB4FF0FF3061074FF00001EC
:107BA00002D40DE008F101018846B9420FDA8045A0
:107BB000F8DB1AF808100029F4D108E008F10101F7
:107BC00088468142FADB1AF808100029F6D1059898
:107BD0005B46A0EB080721463846179A00F094FA56
:107BE000284400EB080507E04DE029E10DE01AF814
:107BF000010B5A4617999047B8F10108F7D25B4636
:107C000021463846179A13E142E00A220092C4F353
:107C100002524FF0000A022A08D059F804CB032A76
:107C20004FEAEC710AD00DE029E02AE009F10701E2
:107C300021F00702F2E802C1914609E00FFA8CFC3C
:107C40004FEAEC71042A03D14FFA8CFC4FEAEC7135
:107C5000002907DA0A460021DCF1000C61EB020181
:107C60002D2202E0220504D52B228DF804200122CA
:107C700003E0E20701D02022F7E7904659E00A210D
:107C800002E010220DE010214FF0000A00910BE0FD
:107C900010224FF0000A44F004040827009203E089
:107CA00008224FF0000A0092C4F30252022A05D0C3
:107CB00059F804CB0021032A08D009E009F1070193
:107CC00021F00702F2E802C1914605E01FFA8CFCA0
:107CD000042A01D10CF0FF0C4FF00008220728D530
:107CE000702806D0009B83F0100353EA0A0305D0E6
:107CF0000EE040228DF80420012208E05CEA010237
:107D000006D030228DF804208DF80500022290461E
:107D1000009B83F0080353EA0A030AD15CEA0102DC
:107D200001D1620705D530228DF804204FF00108FB
:107D30007F1E582804D034A003900EA802900DE0B6
:107D400036A0F9E753466046009AF8F707FD8446E7
:107D50000398825C0298401E029002705CEA010067
:107D6000F0D1029806A9081A00F1200A600702D58E
:107D700024F4803400E00127574502DDA7EB0A0018
:107D800000E0002000EB0A01009005984144401AF1
:107D90000590E00306D45B462146179A059800F04B
:107DA000B3F90544002706E001A85A46C05D1799BB
:107DB00090476D1C7F1C4745F6DBE0030CD55B4606
:107DC0002146179A059800F09FF9054404E03020F9
:107DD0005A46179990476D1C0099481E009000293B
:107DE000F5DC08E0029802995A460078491C029195
:107DF000179990476D1CBAF10001AAF1010AF1DC54
:107E000065E100000928010030313233343536375E
:107E100038396162636465660000000030313233D6
:107E20003435363738394142434445460000000076
:107E300000F058F90544761C307800287FF4ECAD4A
:107E400019B02846BDE8F08F620700D4062709F173
:107E5000070222F0070CFCE80223E14603F0004889
:107E60005FEA080C02D00FF2702C0DE05FEA045CB0
:107E700002D50FF2682C07E05FEAC47C02D00FF253
:107E8000602C01E0AFF2700C4FF0FF3823F000439C
:107E9000CDF850C065280CD006DC452809D046280E
:107EA0001DD047283DD13DE0662818D067287ED1F7
:107EB00038E00021112F01DB112000E0781CCDE912
:107EC000000106A90EA8FFF7DDFCDDE90F010E9AFF
:107ED00003910021009207F1010A04914DE04FF057
:107EE00000400097CDE9011006A90EA8FFF7CAFCD3
:107EF000DDE90F0203920E9B11990022DDF80CA020
:107F00000093049211B9791C00EB010AB7EB0A0047
:107F100004D4C0F1FF3007F1010A0490AAEB070076
:107F2000019044E0012F00DA01270021112F01DD2B
:107F3000112000E03846CDE9000106A90EA8FFF7A0
:107F4000A1FCDDE90F010E9A03910021049100923A
:107F5000BA4621070CD40399514500DA8A46BAF192
:107F6000010F05DD009AAAF10101515C302908D00A
:107F7000B84202DA10F1040F06DA0121CDE901104E
:107F800015E0AAF10101E9E7002805DC04990144A4
:107F90000491AAEB000102E0411C514500DD8A4634
:107FA0000499401A401C01904FF0004002902007B5
:107FB00004D40198504501DBCDF8048000208DF8F1
:107FC0004F0002980DF14F07B0F1004F25D02B2044
:107FD0000E9002984FF0020800280CDA40420290FE
:107FE0002D200E9007E00A210298F8F7A1FB30310E
:107FF000029007F8011DB8F10001A8F10108F2DCB8
:1080000002980028EFD1791E0E980870307800F0A1
:10801000200040F0450007F8020D12A8C01B00F137
:1080200007081498007800B1012000EB0A010198BC
:1080300001EBE07105984144401A401E0590E003B1
:1080400006D45B462146179A059800F05DF8054472
:108050001498007818B15A46179990476D1CE003A0
:1080600024D55B462146179A059800F04DF8054443
:108070001CE00498002807DBDDE90301884203DDEA
:108080000098405C179901E0179930205A469047B4
:10809000049805F10105401C04900198401E0190D0
:1080A00004D12E205A46179990476D1CBAF1000151
:1080B000AAF1010ADDDC05E017F8010B5A46179911
:1080C00090476D1CB8F10001A8F10108F4DC5B4693
:1080D0002146179A0598ABE62D0000002B00000002
:1080E000200000002DE9F041044600251E461746F9
:1080F000880404D405E039462020B0476D1C641E76
:10810000F9D52846BDE8F0812DE9F0410446002567
:108110001E469046C80301D5302700E0202788047A
:1081200004D505E041463846B0476D1C641EF9D5BC
:108130002846BDE8F081D0ED000AF4EEC00AF1EE69
:1081400010FA01DD80ED000AD0ED000AB1EE400A20
:10815000F4EEC00AF1EE10FA01D280ED000A704789
:1081600070B505460F4A0E48002482E833001046D9
:108170001461FAF7ABFF0B4860213C30002201602C
:10818000690841600221816001463C38FAF736FFF8
:1081900000210448FBF710F801483430046070BD3A
:1081A0000018004088BE0020024A106001480C30D0
:1081B000016070472818004082B0CDE9000121F02D
:1081C000004001909DED000B02B051EC100B704788
:1081D0004FF48071C14001220148F9F7E4BF00006B
:1081E0000018024010B5044605484FF47A73014662
:1081F000047001220348FBF74CFA204610BD000032
:108200006C00002064AD00202DE9F04306462DED02
:108210000C8B83B0B0EE659AF0EE459AB0EE64AA8E
:10822000F0EE44AAB0EE63BADDE916453448F0EE4C
:1082300043BAB0EE62DAF0EE42DA0F469046994663
:10824000406AF8F716FA9FED2FCB53EC1C2BF8F78A
:1082500064F941EC180BF9F7ABFFF8F7DEF953ECD2
:108260001C2BF8F75AF953EC182BF8F7DEF8F8F74F
:1082700043FA08EE100A00200094CDE90150B0EE58
:108280006A1AF0EE6D0A4B46424639463046B0EE69
:10829000480AF9F71FF801200094CDE90150B0EE2B
:1082A0004A1AF0EE4D0A4B46424639463046B0EE89
:1082B000480AF9F70FF802200094CDE90150B0EE1A
:1082C000691AF0EE6B0A4B46424639463046B0EE2C
:1082D000480AF8F7FFFF03200094CDE90150B0EE03
:1082E000491AF0EE4B0A4B46424639463046B0EE4C
:1082F000480AF8F7EFFF03B0BDEC0C8BBDE8F08344
:10830000A00000200000000000408F400FB447484C
:108310002DED080B2DE9F04F2DED0C8B83B0B0EE59
:1083200063AAF0EE43AAB0EE62BAF0EE42BAB0EE43
:1083300061CADDE92A58DDE92467DDE9309AF0EE0B
:1083400041CAF0EE60DAB0EE40DADDF8D8B0406A4B
:10835000F8F78FF99FED369B53EC192BF8F7DDF802
:1083600041EC180BF9F724FFF8F757F953EC192BE8
:10837000F8F7D3F853EC182BF8F757F8F8F7BCF9DF
:108380002A4C08EE100AE41C207801280FD10020A6
:108390000096CDE901700DF1800CB0EE6B1A9CE8EF
:1083A0000F00F0EE4D0AB0EE480AF8F793FF607840
:1083B00001280DD10095CDE9018026AEB0EE4B1A13
:1083C00096E80F00F0EE6D0AB0EE480AF8F782FF6B
:1083D000A07801280FD10220CDF80090CDE901A0AE
:1083E0002CADB0EE6A1A95E80F00F0EE6C0AB0EE14
:1083F000480AF8F76FFFE07801280FD1379903207A
:10840000CDE900B132AC029094E80F00B0EE4A1A08
:10841000F0EE4C0AB0EE480AF8F75CFF03B0BDEC92
:108420000C8BBDE8F00F5DF834FB0000A0000020CD
:108430000000000000408F402DE9F041878904468C
:10844000C781486B0E46808A45BAA581486BC08AB1
:1084500040BA2080486B008B40BA00B2F8F7CCF8E5
:108460009FED0F1B53EC112BF8F757F8F8F744F971
:108470006060706BE91BB1F5805F807EA0726069FF
:1084800001DD401E03E011F5805F01DA401C6061F0
:10849000218A05EB4030401AA061BDE8F081000060
:1084A0009A99999999998940496B898A49BA8181A0
:1084B0000182704710B50B78184A0D2B0BD14B7801
:1084C0000A2B08D1012353700023CC18A478C4547C
:1084D0005B1C0C2BF9DB1178114B491CC9B21170D4
:1084E00090ED000A03EB8100092980ED000A14D108
:1084F0000020107003EB8001D2ED010A91ED000A1B
:10850000401C0A2830EE200A82ED010AF2DBF2EE6E
:10851000040A80EE201A82ED011A10BD900B002093
:10852000D0B200201E4810B5016886B041F020018D
:108530000160016801F020010591016841F010011E
:108540000160016801F010010591016841F04001EE
:1085500001600068694600F0400005904FF48040DB
:108560000090012001900290032003900D48F9F73C
:108570002FFD4FF40060009069460B48F9F728FD85
:1085800000F016F800F01CF84FF4FF746946074835
:108590000094F9F71DFD2046FFF71AFE06B010BD46
:1085A000303802400014024000100240001802401F
:1085B000012291030148F9F7F6BD000000140240C2
:1085C0000122D1020148F9F7EEBD0000001002407F
:1085D0001FB5F9F7FBFDFCF725FDFBF767FCFBF783
:1085E0002FFCFBF7E7FBFBF707FCFBF771FDFBF745
:1085F000CBFD274800F0D6FDFBF7E2FD254800F053
:10860000D1FDFBF7F9FD244800F0CCFDFBF784FD1C
:10861000224800F0C7FDFBF79BFDFBF71DFD20483E
:1086200000F010F900211E48F9F71AFA00211D4840
:10863000F9F716FA00F038FA592140F2F310FFF773
:108640008FFDFFF76FFF592144F61F60FCF700FA1A
:1086500059214FF0FF30FCF761FD134940F28C5077
:10866000086000F0D7FA11A0FDF778F900201D4945
:108670000290CDE900010346039080221AA11D4813
:1086800001F082F800F090FF04B0002010BD00005F
:1086900064AD0020A4AD0020E4AD002024AE002095
:1086A0003CB100207CB10020340800400D0A2F2A84
:1086B0002A2A2A2A2A2A2A2A2A2A2A2A535953546F
:1086C000454D20494E495420535543434553532A61
:1086D0002A2A2A2A2A2A2A2A2A2A2A2A2A2A2A2FF5
:1086E000200D0A007400002073746172745F74615D
:1086F000736B0000799000082DE9F05F4A494B4AFE
:108700002DED028B087880B1002002F1200300BF1C
:1087100003EB800494ED000A02EB8004401C84ED1E
:10872000000A0828F4DB00200870002592469FED1F
:10873000408ADFED408ADFF80081DFF800B189462A
:108740000AEB850005EB450190ED000A08EB0116E8
:108750004FF4B47020EE080AB1694143C0EE280A14
:1087600041F6FF7091FBF0F000EE100A05EBC5003A
:1087700000EB40070BEB8704B8EEC00A204600F080
:10878000B1F8B9F8020094ED0F0A00EE900AF8EE85
:10879000600AB4EEE00AF1EE10FA04DD00EE100A11
:1087A000B8EE400A0DE0404200EE900AF8EEE00A12
:1087B000B4EEE00AF1EE10FA05D200EE100AB8EEBF
:1087C000C00A84ED0F0AB6F90000F0EE400A00EE90
:1087D000100A1B48B8EEC00A00EB870000F082F8D0
:1087E000BDEEC00A6D1C082D10EE100A3081A7DB0B
:1087F0004446B8F95831B8F92821B8F9F810B8F951
:10880000C80000F0D7FBB4F99830B4F96820B4F987
:108810003810B4F9080000F0A3FBBDEC028B032074
:10882000BDE8F05F00F04CB88C0B00201CB20020BB
:108830000000B44300F8FF4510B3002084B60020C8
:10884000E4B9002030B58BB004460020012103902C
:108850000490CDE906010E25CDE90815059000909C
:108860000190029069462046F8F7B2FE694620461C
:108870000595F8F7ADFE0848844203D10748206308
:108880001C3060630648844204D1044840302063B1
:108890001C3060630BB030BD3CB1002090B40020B0
:1088A0007CB100200A78FF2A09D14A78FA2A06D139
:1088B00000228B189B788354521C0C2AF9DB7047DA
:1088C00010B500B9012000F0E9FD002010BD10B581
:1088D00001F038F8012803D0BDE8104000F03EBF99
:1088E00010BD000000B530EEC01A80ED080AC0EDE2
:1088F000050A80ED0B1AD0ED141A01469FED692A86
:1089000030EEC00AF5EEC01AB1EE400AF1EE10FAF0
:108910000ED0B5EEC01AF1EE10FA02DDF0EE410A0B
:1089200001E0F0EE400AF4EEE10AF1EE10FA12DC9A
:10893000D1ED150AF5EEC00AF1EE10FA0ED0B5EE43
:10894000C01AF1EE10FA01DDB0EE410AB4EEE00A11
:10895000F1EE10FA02D2B0EE420A00BD886D01F1CC
:108960003402032802D0042838D07AE091ED000ABE
:10897000104620EE010A81ED0C0A91ED0D0AD1EDB1
:10898000010A00EE810A81ED0D0A91ED0A0AD1ED8E
:10899000020A31EE400A20EE200A81ED0E0A91ED26
:1089A000180AB8EE400AFFF7C6FB91ED0C0AD1EDAC
:1089B0000D0A01F13C0030EE200AD1ED0E0A30EE36
:1089C000200A81ED0F0A91ED170AB8EE400AFFF771
:1089D000B2FB91ED0F0A81ED100A42E091ED0A0A17
:1089E000D1ED001A104671EE400A60EEA10AC1ED09
:1089F0000C0AD1ED010A60EE810AC1ED0D0AF0EE1C
:108A0000000A00EE601A91ED090AD1ED020A31EE7A
:108A1000000A20EE200A81ED0E0A91ED180AB8EE48
:108A2000400AFFF788FB91ED0C0AD1ED0D0A01F128
:108A3000480030EE200AD1ED0E0A30EE200A81ED1A
:108A4000110AD1ED130A30EE800A81ED120A91ED80
:108A5000170AB8EE400AFFF76EFB91ED120A81ED9E
:108A6000130A91ED0A0A81ED090A91ED0B0A81EDD5
:108A70000A0A91ED070A81ED060A91ED080A81EDD7
:108A8000070A91ED040A81ED030A91ED050A81EDD3
:108A9000040A886D032802D091ED120A00BD91ED01
:108AA0000F0A00BD000000002DE9F041454E0024F2
:108AB0002DED028BDFED448A444F9FED458A4FF444
:108AC000FA6500BF04EBC40000EB400006EB800039
:108AD000B0EE481AF0EE680AB2EE000A2B463A46AB
:108AE0000321FBF7B5FC641C082CEBDB394EDFEDF2
:108AF0003A8A00244FF47A5704EBC40000EB40009C
:108B000006EB8000B0EE481AF0EE680AB2EE0F0AEB
:108B10002B463A460321FBF79BFC641C082CEBDB3D
:108B200042F21074DFED2D8AB0EE481AB7EE080A53
:108B3000F0EE680A0023224603212948FBF788FC4F
:108B40002748B0EE481AF0EE680AB7EE080A00238C
:108B5000224603216C30FBF77BFC2148B0EE481A1B
:108B6000F0EE480A9FED1F0A002322460321D83069
:108B7000FBF76EFC2346B0EE481AF0EE480AB0EE62
:108B80000C0A1A4603211848FBF762FCB0EE481A9B
:108B9000F0EE480AB7EE080A0023224603211348E4
:108BA000FBF756FCB0EE481AF0EE480ABDEC028B1B
:108BB0002246BDE8F0410023B7EE080A03210C4825
:108BC000FBF746BC84B6002017B7513AA0860100D7
:108BD00000000000E4B9002017B7D1380AD7233CC1
:108BE00040B500206666A63F44BD0020B0BD002011
:108BF0001CBE002000F1580C8CE80E0080EC030A2B
:108C0000704780EC030A704780ED000AC0ED020A4D
:108C10007047000001223C210148F9F7C4BA000066
:108C2000001C024070B50B4C054620684560E068AA
:108C30002168854205D2606BBDE87040091D00F0D7
:108C400097BB206B091D00F093FBA06A854200D200
:108C5000A56270BD0800002070B5124E124C1AE0DB
:108C600000F0D6FC3068D0B100F0E0FE00F0A4FBCC
:108C7000F068C568281D00F05BFBA068401EA0607E
:108C80006068401E606000F0B7FB286B00F0C8FB16
:108C9000284600F0C5FB60680028E1D170BD00F0F7
:108CA000C5FEF8E7740C00200800002010484FF4BF
:108CB0002041420706D0C01D0D4920F00700411A8F
:108CC000C1F520410B4A00230144C2E900030839E1
:108CD000103A21F0070111604B600B600B1AC0E9DC
:108CE000001393604FF000405360D0607047000065
:108CF0009C0C00205C000020074C4FF08056074D74
:108D0000FFF7AAFF20680128FAD92E60BFF34F8F22
:108D1000BFF36F8FF4E70000AC0B002004ED00E020
:108D200030B5114900E011460A688242FBD34B6816
:108D30005C18844203D14068184448600846436880
:108D40001C18944209D1084C103C2468A24209D056
:108D500052681A4442600A6812680260814200D078
:108D6000086030BD0460F9E75C0000200648016B34
:108D7000096829B1016BC968C9684968816270478F
:108D80004FF0FF31FAE70000080000200848406873
:108D9000401C4FF0500080F3118804D0BFF34F8F78
:108DA000BFF36F8FFEE7BFF34F8FBFF36F8FFEE709
:108DB000400000202DE9F0410546002700F028FC86
:108DC000314E306808B9FFF771FFF06805424BD1AA
:108DD000C5B3083568070ED005F00700C0F10800DC
:108DE0000544680707D0502080F31188BFF34F8FE8
:108DF000BFF36F8FFEE72DB37068854234D82248E9
:108E0000103001460C6801E020460C466168A9421A
:108E100002D221680029F7D131688C4224D007683A
:108E20002168016060680837411B10290FD960195B
:108E3000420708D0502080F31188BFF34F8FBFF353
:108E40006F8FFEE710E041606560FFF769FF6168C2
:108E50007068401A7060B268904200D2B060F068EA
:108E600001430020C4E9000100F0E0FD780707D0CD
:108E7000502080F31188BFF34F8FBFF36F8FFEE751
:108E80003846BDE8F08100004C00002010B5031FFB
:108E90004FF080741C601B1F1960191F044B0B607E
:108EA00014390A60091F6FF0020244380A6010BDCD
:108EB0008D8D00080B489FED0A0A80ED010A80EDB8
:108EC000020A80ED050A084880ED610A074880ED36
:108ED000010A80ED0D0A80ED070A80ED130A704744
:108EE00000000000740B0020F0000020E00A0020C9
:108EF00010B50120FAF744FC01210020F7F7E2FF4A
:108F0000642000F0CBFAFAF723FC0023642201214D
:108F10001846F7F7F9FE642000F0C0FA0120FAF7CE
:108F20002FFC042201210020F7F732FF642000F01B
:108F3000B5FAFAF70DFC00234FF4FA720121184636
:108F4000F7F768FF642000F0A9FA0120FAF718FC8F
:108F5000C82000F0A3FABDE81040FAF7F9BB000002
:108F6000F0B4134C4FF40075266B3560266B00256A
:108F7000B560266BF560266B08253561266B050A02
:108F80003575256B6875256B080AA875206BC1754A
:108F9000216B100A0876206B4276216B180A8876BE
:108FA000206B0A21C3762046F0BCF8F7D3BD000041
:108FB0003CB10020F0B4134C40F2FF15266B356035
:108FC000266B0025B560266BF560266B082535619C
:108FD000266B050A3575256B6875256B080AA8751B
:108FE000206BC175216B100A0876206B4276216BCD
:108FF000180A8876206B0A21C3762046F0BCF8F761
:10900000A9BD00003CB1002000B52DED048B83B05C
:1090100041EC190BF7F7AFFC41EC180B18EE100AF6
:1090200018EE901A8DED008B002818BF0120084320
:1090300020F00040C0F17F6000F1E040C00F14D08C
:1090400019EE101A19EE900A8DED009B002918BF39
:109050000121084320F00040C0F17F6000F1E040B2
:10906000C00F04BF0120FEF707FC51EC180B03B042
:10907000BDEC048B00BD00007FB5F7F76BFDFFF77B
:1090800037FF00F099F90421002400911C48CDE934
:1090900001048E01234632461AA11F48039400F0B2
:1090A00073FB174805210091001DCDE90104002341
:1090B00032461AA11E48039400F066FB10480625AC
:1090C00008300095CDE901040023324619A11B4860
:1090D000039400F059FB0A4800950C30CDE90104D7
:1090E0000023324616A11948039400F04DFB0448B2
:1090F000001F006800F006FABDE87F4000F07CB970
:10910000780000204D6F746F72436F6E74726F6CD5
:109110005F7461736B00000079430008506F7374D3
:10912000757265436F6E74726F6C5F7461736B0000
:109130006944000852635F7461736B00194700084B
:10914000546573745F7461736B0000008954000888
:1091500070B5044690F83A00202801D0022070BD76
:1091600099B192B1A162A2850020E0631346206804
:109170000A46656B011D2846F8F706FF206841691D
:1091800041F040014161002070BD012070BD0168C7
:109190000A68D20604D5C968C90601D500F052B8DC
:1091A00070470000214982B088420BD108680168ED
:1091B00041680091C16841F01001C16032221C4930
:1091C0001A482DE01B4988420BD1086801684168A4
:1091D0000091C16841F01001C16032221649154862
:1091E0001EE0164988420CD1086801684168009168
:1091F000C16841F01001C1600F4932222C390F487B
:109200000EE00F4988420ED108680168416800915C
:10921000C16841F01001C160074932220848103985
:1092200002B0FFF795BF02B07047000064AD0020A8
:10923000920B0020A4AD0020A8B20020E4AD0020D5
:1092400024AE002038B504460068016840680090EC
:109250002B483225844209D1606B0068016821F0F7
:1092600001010160606B0068416815E02548844297
:109270001AD1606B0068016821F001010160606B28
:109280000068406880B2222804D11F4901F15C00C7
:1092900000F040F8606B00684560606B0068016832
:1092A00041F00101016038BD1848844212D1606B61
:1092B0000068016821F001010160606B006840688E
:1092C00080B21628E6D110492C3901F13C00FFF795
:1092D000F1F8DFE70E488442E5D1606B0068016871
:1092E00021F001010160606B0068406880B22228B3
:1092F000D0D10549103901F16000FFF7D3FAC9E771
:1093000064AD0020A4AD0020A8B20020E4AD002090
:1093100024AE00200A78FF2A09D14A78FA2A06D119
:1093200000228B189B788354521C0C2AF9DB70475F
:10933000D0E9013201699A60D0E901235A604A6894
:10934000824201D182684A60002202610868401EA0
:109350000860704700F108014FF0FF32C0E90112C8
:10936000C160016100210160704700210161704707
:1093700030B50B685A1C02D000F1080202E0026905
:1093800004E02246546825689D42FAD953684B6030
:1093900099608A60516008610168491C016030BDB4
:1093A00042684A6093688B60936859609160086175
:1093B0000168491C01607047502080F31188BFF399
:1093C0004F8FBFF36F8F0A494868401C48600128DF
:1093D0000CD10848006810F0FF0F07D0502080F330
:1093E0001188BFF34F8FBFF36F8FFEE77047000008
:1093F0004000002004ED00E00849486828B1401E04
:10940000486001D180F311887047502080F31188A3
:10941000BFF34F8FBFF36F8FFEE7000040000020C7
:1094200070B5002827D0144DA0F108046168E868E1
:10943000014207D1502080F31188BFF34F8FBFF353
:109440006F8FFEE722683AB1502080F31188BFF396
:109450004F8FBFF36F8FFEE78143616000F0D8F854
:1094600060686968084468602046FFF759FCBDE8F9
:10947000704000F0DBBA70BD4C00002006484FF48D
:109480007A710068B0FBF1F14FF0E020491E4161B4
:1094900007210161704700000400002070B5020040
:1094A00022D0164CE06A38B1502080F31188BFF307
:1094B0004F8FBFF36F8FFEE700F0AAF8E0688518C2
:1094C0002068001DFFF734FF38B9206890F82C1091
:1094D000012088402169814321612846FFF7A2FBD2
:1094E00000F0A4FA002807D105494FF08050086029
:1094F000BFF34F8FBFF36F8F70BD000008000020D7
:1095000004ED00E070B50446FFF756FF234D04B9A3
:109510002C68201DFFF70CFF58B9E06A204A00EBC9
:10952000800152F8211021B9012181402869884326
:109530002861A06A18B104F11800FFF7F9FE184875
:10954000211DC830FFF72CFF6868401C6860686AFE
:10955000401C6862FFF750FF6869002814D0286833
:10956000844212D1E86A38B1502080F31188BFF3E9
:109570004F8FBFF36F8FFEE70A494FF080500860AE
:10958000BFF34F8FBFF36F8F70BDFFF715FFFFF76E
:10959000EDFBBDE87040FFF72FBF00000800002082
:1095A000AC0B002004ED00E01FB5002400940194F2
:1095B00002942346802212A11348039400F0E4F899
:1095C000012809D0002819D1502080F31188BFF359
:1095D0004F8FBFF36F8FFEE7502080F31188BFF3EA
:1095E0004F8FBFF36F8F09484FF0FF318162012128
:1095F0004161C460BDE81F4000F040B81FBD0000DD
:1096000049444C4500000000F98C00080800002087
:109610000248C16A491CC16270470000080000206E
:109620001448C16A11B10121C16170470021C161B3
:109630000169B1FA81F1C1F11F0101EB81020E490B
:1096400051F822306BB101EB820101F108034A6845
:1096500052684A609A4201D152684A60D1680160FA
:109660007047502080F31188BFF34F8FBFF36F8F87
:10967000FEE7000008000020AC0B00201CB53248BB
:109680000168324A914207D1502080F31188BFF31C
:109690004F8FBFF36F8FFEE700682C49491E884249
:1096A00007D1502080F31188BFF34F8FBFF36F8F26
:1096B000FEE7274908780190FF20087008788DF8A8
:1096C00000009DF800009DF8002000F0F00090429E
:1096D00007D0502080F31188BFF34F8FBFF36F8FF7
:1096E000FEE79DF800001B4A00F0500010700720B4
:1096F000906005E09DF800305B008DF80030401E62
:109700009DF800301B06F5D4000200F4E060906084
:10971000019808700C482030016841F47001016024
:10972000016841F070410160FFF7A8FE0020506021
:10973000F6F766FD0848016841F040410160F6F720
:109740004FFD00201CBD000000ED00E071C20F4184
:1097500000E400E04000002034EF00E010B55020AD
:1097600080F31188BFF34F8FBFF36F8F00F0F8F8CD
:1097700018B104494FF080500860002080F3118830
:1097800010BD000004ED00E02DE9FF5F5FEA000B73
:10979000DDE90F900E9E15468A4609D0072E0FD39D
:1097A000502080F31188BFF34F8FBFF36F8FFEE718
:1097B000502080F31188BFF34F8FBFF36F8FFEE708
:1097C000A900884610B90846FFF7F4FA07001ED032
:1097D0005C20FFF7EFFA0400384616D0A522414678
:1097E0002063F6F76FFD6FF00301206B01EB85013D
:1097F000084420F0070778070CD0502080F3118828
:10980000BFF34F8FBFF36F8FFEE7FFF709FE4FF0F7
:10981000FF348CE051463546002022180B5C82F85C
:1098200034300A5C12B1401C1028F6D3002084F8B2
:109830004300072D00D30625E562C4E91350804696
:10984000201DFFF792FD04F11800FFF78EFD246143
:10985000C5F107016462A161C4F8548084F858809E
:1098600059463846039AFFF711FB2060B9F1000F03
:1098700001D0C9F80040FFF79FFD2F4DA868401C9C
:10988000A8602868DFF8B48010B1686948B32DE09B
:109890002C60A868012829D15FF0000707EB870139
:1098A00008EB8100FFF756FD7F1C072FF6D32348F6
:1098B0008C30FFF74FFD2148A030FFF74BFD1F48CC
:1098C000B430FFF747FD1D48C830FFF743FD1B4884
:1098D000DC30FFF73FFD19488C3028631430686393
:1098E00004E02868C06AB04200D82C60686A401C56
:1098F00068626064E16A01202A6988401043286137
:1099000001EB810108EB8100211DFFF749FD0124D6
:10991000FFF772FD686950B12868C06AB04206D28C
:10992000074920070860BFF34F8FBFF36F8F04B064
:109930002046BDE8F09F000008000020AC0B00208E
:1099400004ED00E00548416919B1C06A18B1002072
:109950007047012070470220704700000800002077
:109960002DE9F0412F4C0026E06A40B1A069401C6F
:10997000A061E06900B101263046BDE8F081E068F1
:10998000401CE060E7689FB9206B006838B1502048
:1099900080F31188BFF34F8FBFF36F8FFEE7206B0B
:1099A000616B21636063206A401C2062FFF7DEF96F
:1099B000A06ADFF87480874209D3206B006880B109
:1099C000206BC068C568686887420DD2A0622068B5
:1099D000C06A00EB800158F821000128C9D901268E
:1099E000C7E74FF0FF30F1E7281DFFF7A1FCA86A99
:1099F00018B105F11800FFF79BFCE86A0121226904
:109A000081401143216100EB800108EB8100291D99
:109A1000FFF7C6FCE86A2168C96A8842CDD30126EF
:109A2000CBE7000008000020AC0B00202DE9F04738
:109A30002C4C0026E06A38B1FFF7BEFCE06A401EFD
:109A4000E062E06A40B147E0502080F31188BFF344
:109A50004F8FBFF36F8FFEE7A168234D012079B3CD
:109A6000A5F1B40980462868E8B1E868C76807F13D
:109A70001800FFF75DFC381DFFF75AFCF96A2269F0
:109A800008FA01F01043206101EB810109EB81002C
:109A9000391DFFF785FCF86A2168C96A8842E2D35C
:109AA000C4F81C80DFE7A06958B14546A06940B101
:109AB000FFF756FF00B1E561A069401EA061F5E720
:109AC0000AE0E069012807D108490126000708607B
:109AD000BFF34F8FBFF36F8FFFF78EFC3046BDE8AB
:109AE000F087000008000020600C002004ED00E07A
:109AF0000006101600061016000000000102030404
:109B000001020304060708090000A040000000004D
:109B100000000041000000000000B0410000000013
:109B200000008041000000000000704100000000C3
:109B30006666E63F000000000000204100000000D3
:109B40000000A04000000000C9000000EE0200007C
:109B500000000000C900000032000000000000000A
:109B60000A000000C90000003200000000000000F0
:109B70000A000000C90000006400000000000000AE
:109B80000A0000007C010000320000002E010000ED
:109B900032000000C9000000640000000000000066
:109BA00096000000C9000000320000000000000024
:109BB0009600000096000000190000000000000060
:109BC00019000000960000001900000000000000CD
:109BD00019000000960000001900000000000000BD
:109BE00019000000960000001900000000000000AD
:109BF00064000000960000009600000000000000D5
:109C000019000000FE00000032000000FE0000000D
:109C100019000000FE00000019000000E200000032
:109C200064000000FE00000064000000BE000000B0
:109C300064000000C900000064000000C9000000CA
:109C400064000000FE00000032000000FE00000082
:109C500019000000FE00000019000000E2000000F2
:109C600064000000FE00000064000000A900000085
:109C700064000000BE00000064000000BE000000A0
:109C800064000000FE00000032000000FE00000042
:109C900019000000FE000000190000007E00000016
:109CA000640000009600000064000000BE00000098
:109CB00064000000C900000064000000E200000031
:109CC000640000008E000000320000008E000000E2
:109CD000190000008E00000019000000960000002E
:109CE00064000000BE00000064000000A900000045
:109CF00064000000BE00000064000000BE00000020
:109D000064000000FE00000032000000E2000000DD
:109D100032000000BE000000320000000000000021
:109D20000A000000A900000032000000000000004E
:109D30000A000000A900000032000000000000003E
:109D400001000000A9000000320000000000000037
:109D500001000000BE000000320000000000000012
:109D600001000000A9000000320000000000000017
:109D70000F000000BE0000003200000000000000E4
:109D80000F000000960000003200000000000000FC
:109D90000F0000000000000032000000C9000000B9
:109DA00028000000000000000A000000C9000000B8
:109DB00028000000000000000A000000C9000000A8
:109DC00028000000000000000A000000C900000098
:109DD0004B000000000000000F000000C900000060
:109DE000320000000000000019000000E200000046
:109DF000190000000000000019000000BE00000073
:109E00001900000000000000190000000000000020
:109E1000555555555555C53F7D6FEB0312D6D4BFEB
:109E20005544880E55C1C93F3B8F68B52882A4BFF1
:109E300088B20175E0EF493F09F7FD0DE13D023FB2
:109E40004B2D8A1C273A03C0C88A599CE52A00403A
:109E500059018D1B6C06E6BF82922EB1C5B8B33F87
:109E6000555555555555C53F7D6FEB0312D6D4BF9B
:109E70005544880E55C1C93F3B8F68B52882A4BFA1
:109E800088B20175E0EF493F09F7FD0DE13D023F62
:109E90004B2D8A1C273A03C0C88A599CE52A0040EA
:109EA00059018D1B6C06E6BF82922EB1C5B8B33F37
:109EB000000000000000F03F000000000000F83F3C
:109EC00000000000000000000000004003B8E23F76
:109ED000000000000000000006D0CF43EBFD4C3E28
:109EE000033333333333E33FFFAB6FDBB66DDB3F1D
:109EF0004D268F515555D53F01411DA96074D13F65
:109F000065DBC9934A86CD3FEF4E454A287ECA3F5E
:109F10003E5555555555C53F93BDBE166CC166BFE0
:109F20002CDE25AF6A56113FF16BD2C541BDBBBED9
:109F3000D0A4BE726937663E4C5555555555A53F60
:109F40007751C1166CC156BF9015CB19A001FA3ECE
:109F5000AD529C804F7E92BEC4B1B4BD9EEE213EF8
:109F6000D43888BEE9FAA8BD000000000000000057
:109F700000004054FB21F93F3163621A61B4D03DC7
:109F80000000601A61B4D03D7370032E8A19A33BA0
:109F90000000002E8A19A33BC14920259A837B39F2
:109FA00000000000000000006E83F9A22915444E55
:109FB000D15727FCC0DD34F5999562DB4190433CD5
:109FC000AB6351FE61C5BBDE3A6E24B7E0D24D42B1
:109FD000EA2E49061C92D1091CEB1DFE3EA729B1B1
:109FE000F53582E88444BB2E26709CE9417E5FB43F
:109FF00039D69139F43953838B5F849C3B28F9BD62
:10A00000FF97F81F0F9805DE8B112FEF1F6D0A5A6F
:10A01000CF7E366DB709CB27663F464F2DEA5F9E50
:10A02000C7BA27757BF1E5EBF739073DEA92528A0B
:10A03000B15FFB6B085D8D1FA6F810111111813FF8
:10A04000D561C119A0012ABF7DFEB157E31DC73EEE
:10A05000EB9C2B8AE6E55ABE7CD5CF5A3AD9E53D32
:10A06000D7F3D3D23A256420C7B0BAF33A25642097
:10A07000D3CDC3C53A256420BABDCFF23A256420BA
:10A080006368616E656C352D5357413A25642063D2
:10A0900068616E656C362D5357423A2564206368BB
:10A0A000616E656C372D5652413A256420636861B4
:10A0B0006E656C382D5357433A256420200D0A00F5
:10A0C000E0A0000800000020AC0B0000F40A00082B
:10A0D0009CA20008AC0B0020C4B700006878000800
:10A0E00022000100043A24F4000112AA01024B00EC
:10A0F000012007F8416666E6419B10051501000145
:10A10000011166031C70418652782032C838100451
:10A1100066668A08124004438040A613803E0C12F3
:10A120003F1042410422A01811041006803ECDCCFD
:10A13000EC1812D03022203431184005CDCC4C3EE2
:10A1400020012E1803D2C07F04540466668258167C
:10A15000B634600B40409A99993E3333334018111E
:10A16000A055682620045568660068220030110456
:10A17000156816B87C67E040384598257452A818D1
:10A18000D2A018928860540680403333B368A11877
:10A19000830000180576205ACA5849A881F021D8B2
:10A1A000C36041F00348804018BAC88829D0000431
:10A1B000493333731843E0411C45881C0448E1FAD5
:10A1C0003003031CCC3E188D7803012818022900A7
:10A1D0001872A09000041D8FC2F518568C38AD0877
:10A1E000042DA803011618022DA41829D05B904154
:10A1F000A002203F189E80680401221852D0449E7D
:10A2000040C804024D40185600B031940005A93EE4
:10A210006666061892E08C4DE8050004FF333313A0
:10A220001861181C046666A258056FF041B8055CF9
:10A2300004AE47E1B80501441849D0BA10B800048B
:10A240001966666618022B90186C046666DA50046C
:10A250003D58054D98070346803F180D6040050D99
:10A2600016F0060146180D1638070146180D228013
:10A2700007013A185EA890098D40054538014A1833
:10A280002D72068DD8061944014918AD840A0F3C79
:0CA290006041F80A0F1A401A480B000049
:04000005080001AD41
:00000001FF
